{
	"@chainlink/contracts/src/v0.8/mocks/VRFCoordinatorV2Mock.sol": {
		"VRFCoordinatorV2Mock": {
			"abi": [
				{
					"inputs": [
						{
							"internalType": "uint96",
							"name": "_baseFee",
							"type": "uint96"
						},
						{
							"internalType": "uint96",
							"name": "_gasPriceLink",
							"type": "uint96"
						}
					],
					"stateMutability": "nonpayable",
					"type": "constructor"
				},
				{
					"inputs": [],
					"name": "InsufficientBalance",
					"type": "error"
				},
				{
					"inputs": [],
					"name": "InvalidSubscription",
					"type": "error"
				},
				{
					"inputs": [
						{
							"internalType": "address",
							"name": "owner",
							"type": "address"
						}
					],
					"name": "MustBeSubOwner",
					"type": "error"
				},
				{
					"anonymous": false,
					"inputs": [
						{
							"indexed": true,
							"internalType": "uint256",
							"name": "requestId",
							"type": "uint256"
						},
						{
							"indexed": false,
							"internalType": "uint256",
							"name": "outputSeed",
							"type": "uint256"
						},
						{
							"indexed": false,
							"internalType": "uint96",
							"name": "payment",
							"type": "uint96"
						},
						{
							"indexed": false,
							"internalType": "bool",
							"name": "success",
							"type": "bool"
						}
					],
					"name": "RandomWordsFulfilled",
					"type": "event"
				},
				{
					"anonymous": false,
					"inputs": [
						{
							"indexed": true,
							"internalType": "bytes32",
							"name": "keyHash",
							"type": "bytes32"
						},
						{
							"indexed": false,
							"internalType": "uint256",
							"name": "requestId",
							"type": "uint256"
						},
						{
							"indexed": false,
							"internalType": "uint256",
							"name": "preSeed",
							"type": "uint256"
						},
						{
							"indexed": true,
							"internalType": "uint64",
							"name": "subId",
							"type": "uint64"
						},
						{
							"indexed": false,
							"internalType": "uint16",
							"name": "minimumRequestConfirmations",
							"type": "uint16"
						},
						{
							"indexed": false,
							"internalType": "uint32",
							"name": "callbackGasLimit",
							"type": "uint32"
						},
						{
							"indexed": false,
							"internalType": "uint32",
							"name": "numWords",
							"type": "uint32"
						},
						{
							"indexed": true,
							"internalType": "address",
							"name": "sender",
							"type": "address"
						}
					],
					"name": "RandomWordsRequested",
					"type": "event"
				},
				{
					"anonymous": false,
					"inputs": [
						{
							"indexed": true,
							"internalType": "uint64",
							"name": "subId",
							"type": "uint64"
						},
						{
							"indexed": false,
							"internalType": "address",
							"name": "to",
							"type": "address"
						},
						{
							"indexed": false,
							"internalType": "uint256",
							"name": "amount",
							"type": "uint256"
						}
					],
					"name": "SubscriptionCanceled",
					"type": "event"
				},
				{
					"anonymous": false,
					"inputs": [
						{
							"indexed": true,
							"internalType": "uint64",
							"name": "subId",
							"type": "uint64"
						},
						{
							"indexed": false,
							"internalType": "address",
							"name": "owner",
							"type": "address"
						}
					],
					"name": "SubscriptionCreated",
					"type": "event"
				},
				{
					"anonymous": false,
					"inputs": [
						{
							"indexed": true,
							"internalType": "uint64",
							"name": "subId",
							"type": "uint64"
						},
						{
							"indexed": false,
							"internalType": "uint256",
							"name": "oldBalance",
							"type": "uint256"
						},
						{
							"indexed": false,
							"internalType": "uint256",
							"name": "newBalance",
							"type": "uint256"
						}
					],
					"name": "SubscriptionFunded",
					"type": "event"
				},
				{
					"inputs": [],
					"name": "BASE_FEE",
					"outputs": [
						{
							"internalType": "uint96",
							"name": "",
							"type": "uint96"
						}
					],
					"stateMutability": "view",
					"type": "function"
				},
				{
					"inputs": [],
					"name": "GAS_PRICE_LINK",
					"outputs": [
						{
							"internalType": "uint96",
							"name": "",
							"type": "uint96"
						}
					],
					"stateMutability": "view",
					"type": "function"
				},
				{
					"inputs": [
						{
							"internalType": "uint64",
							"name": "_subId",
							"type": "uint64"
						}
					],
					"name": "acceptSubscriptionOwnerTransfer",
					"outputs": [],
					"stateMutability": "pure",
					"type": "function"
				},
				{
					"inputs": [
						{
							"internalType": "uint64",
							"name": "_subId",
							"type": "uint64"
						},
						{
							"internalType": "address",
							"name": "_consumer",
							"type": "address"
						}
					],
					"name": "addConsumer",
					"outputs": [],
					"stateMutability": "pure",
					"type": "function"
				},
				{
					"inputs": [
						{
							"internalType": "uint64",
							"name": "_subId",
							"type": "uint64"
						},
						{
							"internalType": "address",
							"name": "_to",
							"type": "address"
						}
					],
					"name": "cancelSubscription",
					"outputs": [],
					"stateMutability": "nonpayable",
					"type": "function"
				},
				{
					"inputs": [],
					"name": "createSubscription",
					"outputs": [
						{
							"internalType": "uint64",
							"name": "_subId",
							"type": "uint64"
						}
					],
					"stateMutability": "nonpayable",
					"type": "function"
				},
				{
					"inputs": [
						{
							"internalType": "uint256",
							"name": "_requestId",
							"type": "uint256"
						},
						{
							"internalType": "address",
							"name": "_consumer",
							"type": "address"
						}
					],
					"name": "fulfillRandomWords",
					"outputs": [],
					"stateMutability": "nonpayable",
					"type": "function"
				},
				{
					"inputs": [
						{
							"internalType": "uint64",
							"name": "_subId",
							"type": "uint64"
						},
						{
							"internalType": "uint96",
							"name": "_amount",
							"type": "uint96"
						}
					],
					"name": "fundSubscription",
					"outputs": [],
					"stateMutability": "nonpayable",
					"type": "function"
				},
				{
					"inputs": [],
					"name": "getRequestConfig",
					"outputs": [
						{
							"internalType": "uint16",
							"name": "",
							"type": "uint16"
						},
						{
							"internalType": "uint32",
							"name": "",
							"type": "uint32"
						},
						{
							"internalType": "bytes32[]",
							"name": "",
							"type": "bytes32[]"
						}
					],
					"stateMutability": "pure",
					"type": "function"
				},
				{
					"inputs": [
						{
							"internalType": "uint64",
							"name": "_subId",
							"type": "uint64"
						}
					],
					"name": "getSubscription",
					"outputs": [
						{
							"internalType": "uint96",
							"name": "balance",
							"type": "uint96"
						},
						{
							"internalType": "uint64",
							"name": "reqCount",
							"type": "uint64"
						},
						{
							"internalType": "address",
							"name": "owner",
							"type": "address"
						},
						{
							"internalType": "address[]",
							"name": "consumers",
							"type": "address[]"
						}
					],
					"stateMutability": "view",
					"type": "function"
				},
				{
					"inputs": [
						{
							"internalType": "uint64",
							"name": "_subId",
							"type": "uint64"
						},
						{
							"internalType": "address",
							"name": "_consumer",
							"type": "address"
						}
					],
					"name": "removeConsumer",
					"outputs": [],
					"stateMutability": "pure",
					"type": "function"
				},
				{
					"inputs": [
						{
							"internalType": "bytes32",
							"name": "_keyHash",
							"type": "bytes32"
						},
						{
							"internalType": "uint64",
							"name": "_subId",
							"type": "uint64"
						},
						{
							"internalType": "uint16",
							"name": "_minimumRequestConfirmations",
							"type": "uint16"
						},
						{
							"internalType": "uint32",
							"name": "_callbackGasLimit",
							"type": "uint32"
						},
						{
							"internalType": "uint32",
							"name": "_numWords",
							"type": "uint32"
						}
					],
					"name": "requestRandomWords",
					"outputs": [
						{
							"internalType": "uint256",
							"name": "",
							"type": "uint256"
						}
					],
					"stateMutability": "nonpayable",
					"type": "function"
				},
				{
					"inputs": [
						{
							"internalType": "uint64",
							"name": "_subId",
							"type": "uint64"
						},
						{
							"internalType": "address",
							"name": "_newOwner",
							"type": "address"
						}
					],
					"name": "requestSubscriptionOwnerTransfer",
					"outputs": [],
					"stateMutability": "pure",
					"type": "function"
				}
			],
			"devdoc": {
				"kind": "dev",
				"methods": {
					"createSubscription()": {
						"details": "You can manage the consumer set dynamically with addConsumer/removeConsumer.Note to fund the subscription, use transferAndCall. For exampleLINKTOKEN.transferAndCall(address(COORDINATOR),amount,abi.encode(subId));",
						"returns": {
							"_subId": "- A unique subscription id."
						}
					},
					"fulfillRandomWords(uint256,address)": {
						"details": "This mock uses a simplified formula for calculating payment amount and gas usage, and doesnot account for all edge cases handled in the real VRF coordinator. When making requestsagainst the real coordinator a small amount of additional LINK is required.",
						"params": {
							"_consumer": "the VRF randomness consumer to send the result to",
							"_requestId": "the request to fulfill"
						}
					},
					"fundSubscription(uint64,uint96)": {
						"params": {
							"_amount": "the amount to fund",
							"_subId": "the subscription to fund"
						}
					},
					"getRequestConfig()": {
						"returns": {
							"_0": "minimumRequestConfirmations global min for request confirmations",
							"_1": "maxGasLimit global max for request gas limit",
							"_2": "s_provingKeyHashes list of registered key hashes"
						}
					}
				},
				"version": 1
			},
			"evm": {
				"assembly": "    /* \"@chainlink/contracts/src/v0.8/mocks/VRFCoordinatorV2Mock.sol\":254:6238  contract VRFCoordinatorV2Mock is VRFCoordinatorV2Interface {... */\n  mstore(0x40, 0xc0)\n    /* \"@chainlink/contracts/src/v0.8/mocks/VRFCoordinatorV2Mock.sol\":1144:1145  1 */\n  0x01\n    /* \"@chainlink/contracts/src/v0.8/mocks/VRFCoordinatorV2Mock.sol\":1118:1145  uint256 s_nextRequestId = 1 */\n  dup1\n  sstore\n    /* \"@chainlink/contracts/src/v0.8/mocks/VRFCoordinatorV2Mock.sol\":1173:1176  100 */\n  0x64\n    /* \"@chainlink/contracts/src/v0.8/mocks/VRFCoordinatorV2Mock.sol\":1149:1176  uint256 s_nextPreSeed = 100 */\n  0x02\n  sstore\n    /* \"@chainlink/contracts/src/v0.8/mocks/VRFCoordinatorV2Mock.sol\":1494:1611  constructor(uint96 _baseFee, uint96 _gasPriceLink) {... */\n  callvalue\n  dup1\n  iszero\n  tag_1\n  jumpi\n  0x00\n  dup1\n  revert\ntag_1:\n  pop\n  mload(0x40)\n  sub(codesize, bytecodeSize)\n  dup1\n  bytecodeSize\n  dup4\n  codecopy\n  dup2\n  dup2\n  add\n  0x40\n  mstore\n  dup2\n  add\n  swap1\n  tag_2\n  swap2\n  swap1\n  tag_3\n  jump\t// in\ntag_2:\n    /* \"@chainlink/contracts/src/v0.8/mocks/VRFCoordinatorV2Mock.sol\":1562:1570  _baseFee */\n  dup2\n    /* \"@chainlink/contracts/src/v0.8/mocks/VRFCoordinatorV2Mock.sol\":1551:1570  BASE_FEE = _baseFee */\n  0xffffffffffffffffffffffff\n  and\n  0x80\n  dup2\n  0xffffffffffffffffffffffff\n  and\n  dup2\n  mstore\n  pop\n  pop\n    /* \"@chainlink/contracts/src/v0.8/mocks/VRFCoordinatorV2Mock.sol\":1593:1606  _gasPriceLink */\n  dup1\n    /* \"@chainlink/contracts/src/v0.8/mocks/VRFCoordinatorV2Mock.sol\":1576:1606  GAS_PRICE_LINK = _gasPriceLink */\n  0xffffffffffffffffffffffff\n  and\n  0xa0\n  dup2\n  0xffffffffffffffffffffffff\n  and\n  dup2\n  mstore\n  pop\n  pop\n    /* \"@chainlink/contracts/src/v0.8/mocks/VRFCoordinatorV2Mock.sol\":1494:1611  constructor(uint96 _baseFee, uint96 _gasPriceLink) {... */\n  pop\n  pop\n    /* \"@chainlink/contracts/src/v0.8/mocks/VRFCoordinatorV2Mock.sol\":254:6238  contract VRFCoordinatorV2Mock is VRFCoordinatorV2Interface {... */\n  jump(tag_6)\n    /* \"#utility.yul\":88:205   */\ntag_8:\n    /* \"#utility.yul\":197:198   */\n  0x00\n    /* \"#utility.yul\":194:195   */\n  dup1\n    /* \"#utility.yul\":187:199   */\n  revert\n    /* \"#utility.yul\":334:443   */\ntag_10:\n    /* \"#utility.yul\":370:377   */\n  0x00\n    /* \"#utility.yul\":410:436   */\n  0xffffffffffffffffffffffff\n    /* \"#utility.yul\":403:408   */\n  dup3\n    /* \"#utility.yul\":399:437   */\n  and\n    /* \"#utility.yul\":388:437   */\n  swap1\n  pop\n    /* \"#utility.yul\":334:443   */\n  swap2\n  swap1\n  pop\n  jump\t// out\n    /* \"#utility.yul\":449:569   */\ntag_11:\n    /* \"#utility.yul\":521:544   */\n  tag_19\n    /* \"#utility.yul\":538:543   */\n  dup2\n    /* \"#utility.yul\":521:544   */\n  tag_10\n  jump\t// in\ntag_19:\n    /* \"#utility.yul\":514:519   */\n  dup2\n    /* \"#utility.yul\":511:545   */\n  eq\n    /* \"#utility.yul\":501:563   */\n  tag_20\n  jumpi\n    /* \"#utility.yul\":559:560   */\n  0x00\n    /* \"#utility.yul\":556:557   */\n  dup1\n    /* \"#utility.yul\":549:561   */\n  revert\n    /* \"#utility.yul\":501:563   */\ntag_20:\n    /* \"#utility.yul\":449:569   */\n  pop\n  jump\t// out\n    /* \"#utility.yul\":575:716   */\ntag_12:\n    /* \"#utility.yul\":631:636   */\n  0x00\n    /* \"#utility.yul\":662:668   */\n  dup2\n    /* \"#utility.yul\":656:669   */\n  mload\n    /* \"#utility.yul\":647:669   */\n  swap1\n  pop\n    /* \"#utility.yul\":678:710   */\n  tag_22\n    /* \"#utility.yul\":704:709   */\n  dup2\n    /* \"#utility.yul\":678:710   */\n  tag_11\n  jump\t// in\ntag_22:\n    /* \"#utility.yul\":575:716   */\n  swap3\n  swap2\n  pop\n  pop\n  jump\t// out\n    /* \"#utility.yul\":722:1225   */\ntag_3:\n    /* \"#utility.yul\":799:805   */\n  0x00\n    /* \"#utility.yul\":807:813   */\n  dup1\n    /* \"#utility.yul\":856:858   */\n  0x40\n    /* \"#utility.yul\":844:853   */\n  dup4\n    /* \"#utility.yul\":835:842   */\n  dup6\n    /* \"#utility.yul\":831:854   */\n  sub\n    /* \"#utility.yul\":827:859   */\n  slt\n    /* \"#utility.yul\":824:943   */\n  iszero\n  tag_24\n  jumpi\n    /* \"#utility.yul\":862:941   */\n  tag_25\n  tag_8\n  jump\t// in\ntag_25:\n    /* \"#utility.yul\":824:943   */\ntag_24:\n    /* \"#utility.yul\":982:983   */\n  0x00\n    /* \"#utility.yul\":1007:1070   */\n  tag_26\n    /* \"#utility.yul\":1062:1069   */\n  dup6\n    /* \"#utility.yul\":1053:1059   */\n  dup3\n    /* \"#utility.yul\":1042:1051   */\n  dup7\n    /* \"#utility.yul\":1038:1060   */\n  add\n    /* \"#utility.yul\":1007:1070   */\n  tag_12\n  jump\t// in\ntag_26:\n    /* \"#utility.yul\":997:1070   */\n  swap3\n  pop\n    /* \"#utility.yul\":953:1080   */\n  pop\n    /* \"#utility.yul\":1119:1121   */\n  0x20\n    /* \"#utility.yul\":1145:1208   */\n  tag_27\n    /* \"#utility.yul\":1200:1207   */\n  dup6\n    /* \"#utility.yul\":1191:1197   */\n  dup3\n    /* \"#utility.yul\":1180:1189   */\n  dup7\n    /* \"#utility.yul\":1176:1198   */\n  add\n    /* \"#utility.yul\":1145:1208   */\n  tag_12\n  jump\t// in\ntag_27:\n    /* \"#utility.yul\":1135:1208   */\n  swap2\n  pop\n    /* \"#utility.yul\":1090:1218   */\n  pop\n    /* \"#utility.yul\":722:1225   */\n  swap3\n  pop\n  swap3\n  swap1\n  pop\n  jump\t// out\n    /* \"@chainlink/contracts/src/v0.8/mocks/VRFCoordinatorV2Mock.sol\":254:6238  contract VRFCoordinatorV2Mock is VRFCoordinatorV2Interface {... */\ntag_6:\n  mload(0x80)\n  mload(0xa0)\n  codecopy(0x00, dataOffset(sub_0), dataSize(sub_0))\n  0x00\n  assignImmutable(\"0x3eb2168c54efe55c4cbdb296a43e105b049f642f4564f8ff1105d907daa5cafb\")\n  0x00\n  assignImmutable(\"0x813e891db9ebb5feedb432576f28db2295153153caaffe3a14678b71ee46fad1\")\n  return(0x00, dataSize(sub_0))\nstop\n\nsub_0: assembly {\n        /* \"@chainlink/contracts/src/v0.8/mocks/VRFCoordinatorV2Mock.sol\":254:6238  contract VRFCoordinatorV2Mock is VRFCoordinatorV2Interface {... */\n      mstore(0x40, 0x80)\n      callvalue\n      dup1\n      iszero\n      tag_1\n      jumpi\n      0x00\n      dup1\n      revert\n    tag_1:\n      pop\n      jumpi(tag_2, lt(calldatasize, 0x04))\n      shr(0xe0, calldataload(0x00))\n      dup1\n      0x82359740\n      gt\n      tag_16\n      jumpi\n      dup1\n      0xa410347f\n      gt\n      tag_17\n      jumpi\n      dup1\n      0xa410347f\n      eq\n      tag_12\n      jumpi\n      dup1\n      0xa47c7696\n      eq\n      tag_13\n      jumpi\n      dup1\n      0xafc69b53\n      eq\n      tag_14\n      jumpi\n      dup1\n      0xd7ae1d30\n      eq\n      tag_15\n      jumpi\n      jump(tag_2)\n    tag_17:\n      dup1\n      0x82359740\n      eq\n      tag_9\n      jumpi\n      dup1\n      0x9f87fad7\n      eq\n      tag_10\n      jumpi\n      dup1\n      0xa21a23e4\n      eq\n      tag_11\n      jumpi\n      jump(tag_2)\n    tag_16:\n      dup1\n      0x012291\n      eq\n      tag_3\n      jumpi\n      dup1\n      0x04c357cb\n      eq\n      tag_4\n      jumpi\n      dup1\n      0x3d18651e\n      eq\n      tag_5\n      jumpi\n      dup1\n      0x5d3b1d30\n      eq\n      tag_6\n      jumpi\n      dup1\n      0x7341c10c\n      eq\n      tag_7\n      jumpi\n      dup1\n      0x808974ff\n      eq\n      tag_8\n      jumpi\n    tag_2:\n      0x00\n      dup1\n      revert\n        /* \"@chainlink/contracts/src/v0.8/mocks/VRFCoordinatorV2Mock.sol\":5555:5739  function getRequestConfig()... */\n    tag_3:\n      tag_18\n      tag_19\n      jump\t// in\n    tag_18:\n      mload(0x40)\n      tag_20\n      swap4\n      swap3\n      swap2\n      swap1\n      tag_21\n      jump\t// in\n    tag_20:\n      mload(0x40)\n      dup1\n      swap2\n      sub\n      swap1\n      return\n        /* \"@chainlink/contracts/src/v0.8/mocks/VRFCoordinatorV2Mock.sol\":5982:6117  function requestSubscriptionOwnerTransfer(uint64 _subId, address _newOwner) external pure override {... */\n    tag_4:\n      tag_22\n      0x04\n      dup1\n      calldatasize\n      sub\n      dup2\n      add\n      swap1\n      tag_23\n      swap2\n      swap1\n      tag_24\n      jump\t// in\n    tag_23:\n      tag_25\n      jump\t// in\n    tag_22:\n      stop\n        /* \"@chainlink/contracts/src/v0.8/mocks/VRFCoordinatorV2Mock.sol\":317:349  uint96 public immutable BASE_FEE */\n    tag_5:\n      tag_26\n      tag_27\n      jump\t// in\n    tag_26:\n      mload(0x40)\n      tag_28\n      swap2\n      swap1\n      tag_29\n      jump\t// in\n    tag_28:\n      mload(0x40)\n      dup1\n      swap2\n      sub\n      swap1\n      return\n        /* \"@chainlink/contracts/src/v0.8/mocks/VRFCoordinatorV2Mock.sol\":3691:4409  function requestRandomWords(... */\n    tag_6:\n      tag_30\n      0x04\n      dup1\n      calldatasize\n      sub\n      dup2\n      add\n      swap1\n      tag_31\n      swap2\n      swap1\n      tag_32\n      jump\t// in\n    tag_31:\n      tag_33\n      jump\t// in\n    tag_30:\n      mload(0x40)\n      tag_34\n      swap2\n      swap1\n      tag_35\n      jump\t// in\n    tag_34:\n      mload(0x40)\n      dup1\n      swap2\n      sub\n      swap1\n      return\n        /* \"@chainlink/contracts/src/v0.8/mocks/VRFCoordinatorV2Mock.sol\":5743:5857  function addConsumer(uint64 _subId, address _consumer) external pure override {... */\n    tag_7:\n      tag_36\n      0x04\n      dup1\n      calldatasize\n      sub\n      dup2\n      add\n      swap1\n      tag_37\n      swap2\n      swap1\n      tag_24\n      jump\t// in\n    tag_37:\n      tag_38\n      jump\t// in\n    tag_36:\n      stop\n        /* \"@chainlink/contracts/src/v0.8/mocks/VRFCoordinatorV2Mock.sol\":2165:3143  function fulfillRandomWords(uint256 _requestId, address _consumer) external {... */\n    tag_8:\n      tag_39\n      0x04\n      dup1\n      calldatasize\n      sub\n      dup2\n      add\n      swap1\n      tag_40\n      swap2\n      swap1\n      tag_41\n      jump\t// in\n    tag_40:\n      tag_42\n      jump\t// in\n    tag_39:\n      stop\n        /* \"@chainlink/contracts/src/v0.8/mocks/VRFCoordinatorV2Mock.sol\":6121:6236  function acceptSubscriptionOwnerTransfer(uint64 _subId) external pure override {... */\n    tag_9:\n      tag_43\n      0x04\n      dup1\n      calldatasize\n      sub\n      dup2\n      add\n      swap1\n      tag_44\n      swap2\n      swap1\n      tag_45\n      jump\t// in\n    tag_44:\n      tag_46\n      jump\t// in\n    tag_43:\n      stop\n        /* \"@chainlink/contracts/src/v0.8/mocks/VRFCoordinatorV2Mock.sol\":5861:5978  function removeConsumer(uint64 _subId, address _consumer) external pure override {... */\n    tag_10:\n      tag_47\n      0x04\n      dup1\n      calldatasize\n      sub\n      dup2\n      add\n      swap1\n      tag_48\n      swap2\n      swap1\n      tag_24\n      jump\t// in\n    tag_48:\n      tag_49\n      jump\t// in\n    tag_47:\n      stop\n        /* \"@chainlink/contracts/src/v0.8/mocks/VRFCoordinatorV2Mock.sol\":4413:4682  function createSubscription() external override returns (uint64 _subId) {... */\n    tag_11:\n      tag_50\n      tag_51\n      jump\t// in\n    tag_50:\n      mload(0x40)\n      tag_52\n      swap2\n      swap1\n      tag_53\n      jump\t// in\n    tag_52:\n      mload(0x40)\n      dup1\n      swap2\n      sub\n      swap1\n      return\n        /* \"@chainlink/contracts/src/v0.8/mocks/VRFCoordinatorV2Mock.sol\":353:391  uint96 public immutable GAS_PRICE_LINK */\n    tag_12:\n      tag_54\n      tag_55\n      jump\t// in\n    tag_54:\n      mload(0x40)\n      tag_56\n      swap2\n      swap1\n      tag_29\n      jump\t// in\n    tag_56:\n      mload(0x40)\n      dup1\n      swap2\n      sub\n      swap1\n      return\n        /* \"@chainlink/contracts/src/v0.8/mocks/VRFCoordinatorV2Mock.sol\":4686:5082  function getSubscription(uint64 _subId)... */\n    tag_13:\n      tag_57\n      0x04\n      dup1\n      calldatasize\n      sub\n      dup2\n      add\n      swap1\n      tag_58\n      swap2\n      swap1\n      tag_45\n      jump\t// in\n    tag_58:\n      tag_59\n      jump\t// in\n    tag_57:\n      mload(0x40)\n      tag_60\n      swap5\n      swap4\n      swap3\n      swap2\n      swap1\n      tag_61\n      jump\t// in\n    tag_60:\n      mload(0x40)\n      dup1\n      swap2\n      sub\n      swap1\n      return\n        /* \"@chainlink/contracts/src/v0.8/mocks/VRFCoordinatorV2Mock.sol\":3345:3687  function fundSubscription(uint64 _subId, uint96 _amount) public {... */\n    tag_14:\n      tag_62\n      0x04\n      dup1\n      calldatasize\n      sub\n      dup2\n      add\n      swap1\n      tag_63\n      swap2\n      swap1\n      tag_64\n      jump\t// in\n    tag_63:\n      tag_65\n      jump\t// in\n    tag_62:\n      stop\n        /* \"@chainlink/contracts/src/v0.8/mocks/VRFCoordinatorV2Mock.sol\":5086:5301  function cancelSubscription(uint64 _subId, address _to) external override onlySubOwner(_subId) {... */\n    tag_15:\n      tag_66\n      0x04\n      dup1\n      calldatasize\n      sub\n      dup2\n      add\n      swap1\n      tag_67\n      swap2\n      swap1\n      tag_24\n      jump\t// in\n    tag_67:\n      tag_68\n      jump\t// in\n    tag_66:\n      stop\n        /* \"@chainlink/contracts/src/v0.8/mocks/VRFCoordinatorV2Mock.sol\":5555:5739  function getRequestConfig()... */\n    tag_19:\n        /* \"@chainlink/contracts/src/v0.8/mocks/VRFCoordinatorV2Mock.sol\":5638:5644  uint16 */\n      0x00\n        /* \"@chainlink/contracts/src/v0.8/mocks/VRFCoordinatorV2Mock.sol\":5652:5658  uint32 */\n      dup1\n        /* \"@chainlink/contracts/src/v0.8/mocks/VRFCoordinatorV2Mock.sol\":5666:5682  bytes32[] memory */\n      0x60\n        /* \"@chainlink/contracts/src/v0.8/mocks/VRFCoordinatorV2Mock.sol\":5705:5706  3 */\n      0x03\n        /* \"@chainlink/contracts/src/v0.8/mocks/VRFCoordinatorV2Mock.sol\":5708:5715  2000000 */\n      0x1e8480\n        /* \"@chainlink/contracts/src/v0.8/mocks/VRFCoordinatorV2Mock.sol\":5731:5732  0 */\n      0x00\n        /* \"@chainlink/contracts/src/v0.8/mocks/VRFCoordinatorV2Mock.sol\":5717:5733  new bytes32[](0) */\n      0xffffffffffffffff\n      dup2\n      gt\n      iszero\n      tag_70\n      jumpi\n      tag_71\n      tag_72\n      jump\t// in\n    tag_71:\n    tag_70:\n      mload(0x40)\n      swap1\n      dup1\n      dup3\n      mstore\n      dup1\n      0x20\n      mul\n      0x20\n      add\n      dup3\n      add\n      0x40\n      mstore\n      dup1\n      iszero\n      tag_73\n      jumpi\n      dup2\n      0x20\n      add\n      0x20\n      dup3\n      mul\n      dup1\n      calldatasize\n      dup4\n      calldatacopy\n      dup1\n      dup3\n      add\n      swap2\n      pop\n      pop\n      swap1\n      pop\n    tag_73:\n      pop\n        /* \"@chainlink/contracts/src/v0.8/mocks/VRFCoordinatorV2Mock.sol\":5697:5734  return (3, 2000000, new bytes32[](0)) */\n      swap3\n      pop\n      swap3\n      pop\n      swap3\n      pop\n        /* \"@chainlink/contracts/src/v0.8/mocks/VRFCoordinatorV2Mock.sol\":5555:5739  function getRequestConfig()... */\n      swap1\n      swap2\n      swap3\n      jump\t// out\n        /* \"@chainlink/contracts/src/v0.8/mocks/VRFCoordinatorV2Mock.sol\":5982:6117  function requestSubscriptionOwnerTransfer(uint64 _subId, address _newOwner) external pure override {... */\n    tag_25:\n        /* \"@chainlink/contracts/src/v0.8/mocks/VRFCoordinatorV2Mock.sol\":6087:6112  revert(\"not implemented\") */\n      mload(0x40)\n      0x08c379a000000000000000000000000000000000000000000000000000000000\n      dup2\n      mstore\n      0x04\n      add\n      tag_75\n      swap1\n      tag_76\n      jump\t// in\n    tag_75:\n      mload(0x40)\n      dup1\n      swap2\n      sub\n      swap1\n      revert\n        /* \"@chainlink/contracts/src/v0.8/mocks/VRFCoordinatorV2Mock.sol\":317:349  uint96 public immutable BASE_FEE */\n    tag_27:\n      immutable(\"0x813e891db9ebb5feedb432576f28db2295153153caaffe3a14678b71ee46fad1\")\n      dup2\n      jump\t// out\n        /* \"@chainlink/contracts/src/v0.8/mocks/VRFCoordinatorV2Mock.sol\":3691:4409  function requestRandomWords(... */\n    tag_33:\n        /* \"@chainlink/contracts/src/v0.8/mocks/VRFCoordinatorV2Mock.sol\":3884:3891  uint256 */\n      0x00\n        /* \"@chainlink/contracts/src/v0.8/mocks/VRFCoordinatorV2Mock.sol\":3944:3945  0 */\n      dup1\n        /* \"@chainlink/contracts/src/v0.8/mocks/VRFCoordinatorV2Mock.sol\":3903:3946  s_subscriptions[_subId].owner == address(0) */\n      0xffffffffffffffffffffffffffffffffffffffff\n      and\n        /* \"@chainlink/contracts/src/v0.8/mocks/VRFCoordinatorV2Mock.sol\":3903:3918  s_subscriptions */\n      0x03\n        /* \"@chainlink/contracts/src/v0.8/mocks/VRFCoordinatorV2Mock.sol\":3903:3926  s_subscriptions[_subId] */\n      0x00\n        /* \"@chainlink/contracts/src/v0.8/mocks/VRFCoordinatorV2Mock.sol\":3919:3925  _subId */\n      dup8\n        /* \"@chainlink/contracts/src/v0.8/mocks/VRFCoordinatorV2Mock.sol\":3903:3926  s_subscriptions[_subId] */\n      0xffffffffffffffff\n      and\n      0xffffffffffffffff\n      and\n      dup2\n      mstore\n      0x20\n      add\n      swap1\n      dup2\n      mstore\n      0x20\n      add\n      0x00\n      keccak256\n        /* \"@chainlink/contracts/src/v0.8/mocks/VRFCoordinatorV2Mock.sol\":3903:3932  s_subscriptions[_subId].owner */\n      0x00\n      add\n      0x00\n      swap1\n      sload\n      swap1\n      0x0100\n      exp\n      swap1\n      div\n      0xffffffffffffffffffffffffffffffffffffffff\n      and\n        /* \"@chainlink/contracts/src/v0.8/mocks/VRFCoordinatorV2Mock.sol\":3903:3946  s_subscriptions[_subId].owner == address(0) */\n      0xffffffffffffffffffffffffffffffffffffffff\n      and\n      sub\n        /* \"@chainlink/contracts/src/v0.8/mocks/VRFCoordinatorV2Mock.sol\":3899:3991  if (s_subscriptions[_subId].owner == address(0)) {... */\n      tag_78\n      jumpi\n        /* \"@chainlink/contracts/src/v0.8/mocks/VRFCoordinatorV2Mock.sol\":3963:3984  InvalidSubscription() */\n      mload(0x40)\n      0x1f6a65b600000000000000000000000000000000000000000000000000000000\n      dup2\n      mstore\n      0x04\n      add\n      mload(0x40)\n      dup1\n      swap2\n      sub\n      swap1\n      revert\n        /* \"@chainlink/contracts/src/v0.8/mocks/VRFCoordinatorV2Mock.sol\":3899:3991  if (s_subscriptions[_subId].owner == address(0)) {... */\n    tag_78:\n        /* \"@chainlink/contracts/src/v0.8/mocks/VRFCoordinatorV2Mock.sol\":3997:4014  uint256 requestId */\n      0x00\n        /* \"@chainlink/contracts/src/v0.8/mocks/VRFCoordinatorV2Mock.sol\":4017:4032  s_nextRequestId */\n      0x01\n      0x00\n        /* \"@chainlink/contracts/src/v0.8/mocks/VRFCoordinatorV2Mock.sol\":4017:4034  s_nextRequestId++ */\n      dup2\n      sload\n      dup1\n      swap3\n      swap2\n      swap1\n      tag_79\n      swap1\n      tag_80\n      jump\t// in\n    tag_79:\n      swap2\n      swap1\n      pop\n      sstore\n        /* \"@chainlink/contracts/src/v0.8/mocks/VRFCoordinatorV2Mock.sol\":3997:4034  uint256 requestId = s_nextRequestId++ */\n      swap1\n      pop\n        /* \"@chainlink/contracts/src/v0.8/mocks/VRFCoordinatorV2Mock.sol\":4040:4055  uint256 preSeed */\n      0x00\n        /* \"@chainlink/contracts/src/v0.8/mocks/VRFCoordinatorV2Mock.sol\":4058:4071  s_nextPreSeed */\n      0x02\n      0x00\n        /* \"@chainlink/contracts/src/v0.8/mocks/VRFCoordinatorV2Mock.sol\":4058:4073  s_nextPreSeed++ */\n      dup2\n      sload\n      dup1\n      swap3\n      swap2\n      swap1\n      tag_81\n      swap1\n      tag_80\n      jump\t// in\n    tag_81:\n      swap2\n      swap1\n      pop\n      sstore\n        /* \"@chainlink/contracts/src/v0.8/mocks/VRFCoordinatorV2Mock.sol\":4040:4073  uint256 preSeed = s_nextPreSeed++ */\n      swap1\n      pop\n        /* \"@chainlink/contracts/src/v0.8/mocks/VRFCoordinatorV2Mock.sol\":4104:4186  Request({subId: _subId, callbackGasLimit: _callbackGasLimit, numWords: _numWords}) */\n      mload(0x40)\n      dup1\n      0x60\n      add\n      0x40\n      mstore\n      dup1\n        /* \"@chainlink/contracts/src/v0.8/mocks/VRFCoordinatorV2Mock.sol\":4120:4126  _subId */\n      dup9\n        /* \"@chainlink/contracts/src/v0.8/mocks/VRFCoordinatorV2Mock.sol\":4104:4186  Request({subId: _subId, callbackGasLimit: _callbackGasLimit, numWords: _numWords}) */\n      0xffffffffffffffff\n      and\n      dup2\n      mstore\n      0x20\n      add\n        /* \"@chainlink/contracts/src/v0.8/mocks/VRFCoordinatorV2Mock.sol\":4146:4163  _callbackGasLimit */\n      dup7\n        /* \"@chainlink/contracts/src/v0.8/mocks/VRFCoordinatorV2Mock.sol\":4104:4186  Request({subId: _subId, callbackGasLimit: _callbackGasLimit, numWords: _numWords}) */\n      0xffffffff\n      and\n      dup2\n      mstore\n      0x20\n      add\n        /* \"@chainlink/contracts/src/v0.8/mocks/VRFCoordinatorV2Mock.sol\":4175:4184  _numWords */\n      dup6\n        /* \"@chainlink/contracts/src/v0.8/mocks/VRFCoordinatorV2Mock.sol\":4104:4186  Request({subId: _subId, callbackGasLimit: _callbackGasLimit, numWords: _numWords}) */\n      0xffffffff\n      and\n      dup2\n      mstore\n      pop\n        /* \"@chainlink/contracts/src/v0.8/mocks/VRFCoordinatorV2Mock.sol\":4080:4090  s_requests */\n      0x04\n        /* \"@chainlink/contracts/src/v0.8/mocks/VRFCoordinatorV2Mock.sol\":4080:4101  s_requests[requestId] */\n      0x00\n        /* \"@chainlink/contracts/src/v0.8/mocks/VRFCoordinatorV2Mock.sol\":4091:4100  requestId */\n      dup5\n        /* \"@chainlink/contracts/src/v0.8/mocks/VRFCoordinatorV2Mock.sol\":4080:4101  s_requests[requestId] */\n      dup2\n      mstore\n      0x20\n      add\n      swap1\n      dup2\n      mstore\n      0x20\n      add\n      0x00\n      keccak256\n        /* \"@chainlink/contracts/src/v0.8/mocks/VRFCoordinatorV2Mock.sol\":4080:4186  s_requests[requestId] = Request({subId: _subId, callbackGasLimit: _callbackGasLimit, numWords: _numWords}) */\n      0x00\n      dup3\n      add\n      mload\n      dup2\n      0x00\n      add\n      exp(0x0100, 0x00)\n      dup2\n      sload\n      dup2\n      0xffffffffffffffff\n      mul\n      not\n      and\n      swap1\n      dup4\n      0xffffffffffffffff\n      and\n      mul\n      or\n      swap1\n      sstore\n      pop\n      0x20\n      dup3\n      add\n      mload\n      dup2\n      0x00\n      add\n      exp(0x0100, 0x08)\n      dup2\n      sload\n      dup2\n      0xffffffff\n      mul\n      not\n      and\n      swap1\n      dup4\n      0xffffffff\n      and\n      mul\n      or\n      swap1\n      sstore\n      pop\n      0x40\n      dup3\n      add\n      mload\n      dup2\n      0x00\n      add\n      exp(0x0100, 0x0c)\n      dup2\n      sload\n      dup2\n      0xffffffff\n      mul\n      not\n      and\n      swap1\n      dup4\n      0xffffffff\n      and\n      mul\n      or\n      swap1\n      sstore\n      pop\n      swap1\n      pop\n      pop\n        /* \"@chainlink/contracts/src/v0.8/mocks/VRFCoordinatorV2Mock.sol\":4366:4376  msg.sender */\n      caller\n        /* \"@chainlink/contracts/src/v0.8/mocks/VRFCoordinatorV2Mock.sol\":4198:4382  RandomWordsRequested(... */\n      0xffffffffffffffffffffffffffffffffffffffff\n      and\n        /* \"@chainlink/contracts/src/v0.8/mocks/VRFCoordinatorV2Mock.sol\":4274:4280  _subId */\n      dup8\n        /* \"@chainlink/contracts/src/v0.8/mocks/VRFCoordinatorV2Mock.sol\":4198:4382  RandomWordsRequested(... */\n      0xffffffffffffffff\n      and\n        /* \"@chainlink/contracts/src/v0.8/mocks/VRFCoordinatorV2Mock.sol\":4226:4234  _keyHash */\n      dup10\n        /* \"@chainlink/contracts/src/v0.8/mocks/VRFCoordinatorV2Mock.sol\":4198:4382  RandomWordsRequested(... */\n      0x63373d1c4696214b898952999c9aaec57dac1ee2723cec59bea6888f489a9772\n        /* \"@chainlink/contracts/src/v0.8/mocks/VRFCoordinatorV2Mock.sol\":4242:4251  requestId */\n      dup6\n        /* \"@chainlink/contracts/src/v0.8/mocks/VRFCoordinatorV2Mock.sol\":4259:4266  preSeed */\n      dup6\n        /* \"@chainlink/contracts/src/v0.8/mocks/VRFCoordinatorV2Mock.sol\":4288:4316  _minimumRequestConfirmations */\n      dup12\n        /* \"@chainlink/contracts/src/v0.8/mocks/VRFCoordinatorV2Mock.sol\":4324:4341  _callbackGasLimit */\n      dup12\n        /* \"@chainlink/contracts/src/v0.8/mocks/VRFCoordinatorV2Mock.sol\":4349:4358  _numWords */\n      dup12\n        /* \"@chainlink/contracts/src/v0.8/mocks/VRFCoordinatorV2Mock.sol\":4198:4382  RandomWordsRequested(... */\n      mload(0x40)\n      tag_82\n      swap6\n      swap5\n      swap4\n      swap3\n      swap2\n      swap1\n      tag_83\n      jump\t// in\n    tag_82:\n      mload(0x40)\n      dup1\n      swap2\n      sub\n      swap1\n      log4\n        /* \"@chainlink/contracts/src/v0.8/mocks/VRFCoordinatorV2Mock.sol\":4395:4404  requestId */\n      dup2\n        /* \"@chainlink/contracts/src/v0.8/mocks/VRFCoordinatorV2Mock.sol\":4388:4404  return requestId */\n      swap3\n      pop\n      pop\n      pop\n        /* \"@chainlink/contracts/src/v0.8/mocks/VRFCoordinatorV2Mock.sol\":3691:4409  function requestRandomWords(... */\n      swap6\n      swap5\n      pop\n      pop\n      pop\n      pop\n      pop\n      jump\t// out\n        /* \"@chainlink/contracts/src/v0.8/mocks/VRFCoordinatorV2Mock.sol\":5743:5857  function addConsumer(uint64 _subId, address _consumer) external pure override {... */\n    tag_38:\n        /* \"@chainlink/contracts/src/v0.8/mocks/VRFCoordinatorV2Mock.sol\":5827:5852  revert(\"not implemented\") */\n      mload(0x40)\n      0x08c379a000000000000000000000000000000000000000000000000000000000\n      dup2\n      mstore\n      0x04\n      add\n      tag_85\n      swap1\n      tag_76\n      jump\t// in\n    tag_85:\n      mload(0x40)\n      dup1\n      swap2\n      sub\n      swap1\n      revert\n        /* \"@chainlink/contracts/src/v0.8/mocks/VRFCoordinatorV2Mock.sol\":2165:3143  function fulfillRandomWords(uint256 _requestId, address _consumer) external {... */\n    tag_42:\n        /* \"@chainlink/contracts/src/v0.8/mocks/VRFCoordinatorV2Mock.sol\":2247:2263  uint256 startGas */\n      0x00\n        /* \"@chainlink/contracts/src/v0.8/mocks/VRFCoordinatorV2Mock.sol\":2266:2275  gasleft() */\n      gas\n        /* \"@chainlink/contracts/src/v0.8/mocks/VRFCoordinatorV2Mock.sol\":2247:2275  uint256 startGas = gasleft() */\n      swap1\n      pop\n        /* \"@chainlink/contracts/src/v0.8/mocks/VRFCoordinatorV2Mock.sol\":2317:2318  0 */\n      0x00\n        /* \"@chainlink/contracts/src/v0.8/mocks/VRFCoordinatorV2Mock.sol\":2285:2295  s_requests */\n      0x04\n        /* \"@chainlink/contracts/src/v0.8/mocks/VRFCoordinatorV2Mock.sol\":2285:2307  s_requests[_requestId] */\n      0x00\n        /* \"@chainlink/contracts/src/v0.8/mocks/VRFCoordinatorV2Mock.sol\":2296:2306  _requestId */\n      dup6\n        /* \"@chainlink/contracts/src/v0.8/mocks/VRFCoordinatorV2Mock.sol\":2285:2307  s_requests[_requestId] */\n      dup2\n      mstore\n      0x20\n      add\n      swap1\n      dup2\n      mstore\n      0x20\n      add\n      0x00\n      keccak256\n        /* \"@chainlink/contracts/src/v0.8/mocks/VRFCoordinatorV2Mock.sol\":2285:2313  s_requests[_requestId].subId */\n      0x00\n      add\n      0x00\n      swap1\n      sload\n      swap1\n      0x0100\n      exp\n      swap1\n      div\n      0xffffffffffffffff\n      and\n        /* \"@chainlink/contracts/src/v0.8/mocks/VRFCoordinatorV2Mock.sol\":2285:2318  s_requests[_requestId].subId == 0 */\n      0xffffffffffffffff\n      and\n      sub\n        /* \"@chainlink/contracts/src/v0.8/mocks/VRFCoordinatorV2Mock.sol\":2281:2364  if (s_requests[_requestId].subId == 0) {... */\n      tag_87\n      jumpi\n        /* \"@chainlink/contracts/src/v0.8/mocks/VRFCoordinatorV2Mock.sol\":2328:2357  revert(\"nonexistent request\") */\n      mload(0x40)\n      0x08c379a000000000000000000000000000000000000000000000000000000000\n      dup2\n      mstore\n      0x04\n      add\n      tag_88\n      swap1\n      tag_89\n      jump\t// in\n    tag_88:\n      mload(0x40)\n      dup1\n      swap2\n      sub\n      swap1\n      revert\n        /* \"@chainlink/contracts/src/v0.8/mocks/VRFCoordinatorV2Mock.sol\":2281:2364  if (s_requests[_requestId].subId == 0) {... */\n    tag_87:\n        /* \"@chainlink/contracts/src/v0.8/mocks/VRFCoordinatorV2Mock.sol\":2369:2387  Request memory req */\n      0x00\n        /* \"@chainlink/contracts/src/v0.8/mocks/VRFCoordinatorV2Mock.sol\":2390:2400  s_requests */\n      0x04\n        /* \"@chainlink/contracts/src/v0.8/mocks/VRFCoordinatorV2Mock.sol\":2390:2412  s_requests[_requestId] */\n      0x00\n        /* \"@chainlink/contracts/src/v0.8/mocks/VRFCoordinatorV2Mock.sol\":2401:2411  _requestId */\n      dup6\n        /* \"@chainlink/contracts/src/v0.8/mocks/VRFCoordinatorV2Mock.sol\":2390:2412  s_requests[_requestId] */\n      dup2\n      mstore\n      0x20\n      add\n      swap1\n      dup2\n      mstore\n      0x20\n      add\n      0x00\n      keccak256\n        /* \"@chainlink/contracts/src/v0.8/mocks/VRFCoordinatorV2Mock.sol\":2369:2412  Request memory req = s_requests[_requestId] */\n      mload(0x40)\n      dup1\n      0x60\n      add\n      0x40\n      mstore\n      swap1\n      dup2\n      0x00\n      dup3\n      add\n      0x00\n      swap1\n      sload\n      swap1\n      0x0100\n      exp\n      swap1\n      div\n      0xffffffffffffffff\n      and\n      0xffffffffffffffff\n      and\n      0xffffffffffffffff\n      and\n      dup2\n      mstore\n      0x20\n      add\n      0x00\n      dup3\n      add\n      0x08\n      swap1\n      sload\n      swap1\n      0x0100\n      exp\n      swap1\n      div\n      0xffffffff\n      and\n      0xffffffff\n      and\n      0xffffffff\n      and\n      dup2\n      mstore\n      0x20\n      add\n      0x00\n      dup3\n      add\n      0x0c\n      swap1\n      sload\n      swap1\n      0x0100\n      exp\n      swap1\n      div\n      0xffffffff\n      and\n      0xffffffff\n      and\n      0xffffffff\n      and\n      dup2\n      mstore\n      pop\n      pop\n      swap1\n      pop\n        /* \"@chainlink/contracts/src/v0.8/mocks/VRFCoordinatorV2Mock.sol\":2419:2441  uint256[] memory words */\n      0x00\n        /* \"@chainlink/contracts/src/v0.8/mocks/VRFCoordinatorV2Mock.sol\":2458:2461  req */\n      dup2\n        /* \"@chainlink/contracts/src/v0.8/mocks/VRFCoordinatorV2Mock.sol\":2458:2470  req.numWords */\n      0x40\n      add\n      mload\n        /* \"@chainlink/contracts/src/v0.8/mocks/VRFCoordinatorV2Mock.sol\":2444:2471  new uint256[](req.numWords) */\n      0xffffffff\n      and\n      0xffffffffffffffff\n      dup2\n      gt\n      iszero\n      tag_90\n      jumpi\n      tag_91\n      tag_72\n      jump\t// in\n    tag_91:\n    tag_90:\n      mload(0x40)\n      swap1\n      dup1\n      dup3\n      mstore\n      dup1\n      0x20\n      mul\n      0x20\n      add\n      dup3\n      add\n      0x40\n      mstore\n      dup1\n      iszero\n      tag_92\n      jumpi\n      dup2\n      0x20\n      add\n      0x20\n      dup3\n      mul\n      dup1\n      calldatasize\n      dup4\n      calldatacopy\n      dup1\n      dup3\n      add\n      swap2\n      pop\n      pop\n      swap1\n      pop\n    tag_92:\n      pop\n        /* \"@chainlink/contracts/src/v0.8/mocks/VRFCoordinatorV2Mock.sol\":2419:2471  uint256[] memory words = new uint256[](req.numWords) */\n      swap1\n      pop\n        /* \"@chainlink/contracts/src/v0.8/mocks/VRFCoordinatorV2Mock.sol\":2482:2491  uint256 i */\n      0x00\n        /* \"@chainlink/contracts/src/v0.8/mocks/VRFCoordinatorV2Mock.sol\":2477:2591  for (uint256 i = 0; i < req.numWords; i++) {... */\n    tag_93:\n        /* \"@chainlink/contracts/src/v0.8/mocks/VRFCoordinatorV2Mock.sol\":2501:2504  req */\n      dup3\n        /* \"@chainlink/contracts/src/v0.8/mocks/VRFCoordinatorV2Mock.sol\":2501:2513  req.numWords */\n      0x40\n      add\n      mload\n        /* \"@chainlink/contracts/src/v0.8/mocks/VRFCoordinatorV2Mock.sol\":2497:2513  i < req.numWords */\n      0xffffffff\n      and\n        /* \"@chainlink/contracts/src/v0.8/mocks/VRFCoordinatorV2Mock.sol\":2497:2498  i */\n      dup2\n        /* \"@chainlink/contracts/src/v0.8/mocks/VRFCoordinatorV2Mock.sol\":2497:2513  i < req.numWords */\n      lt\n        /* \"@chainlink/contracts/src/v0.8/mocks/VRFCoordinatorV2Mock.sol\":2477:2591  for (uint256 i = 0; i < req.numWords; i++) {... */\n      iszero\n      tag_94\n      jumpi\n        /* \"@chainlink/contracts/src/v0.8/mocks/VRFCoordinatorV2Mock.sol\":2568:2578  _requestId */\n      dup6\n        /* \"@chainlink/contracts/src/v0.8/mocks/VRFCoordinatorV2Mock.sol\":2580:2581  i */\n      dup2\n        /* \"@chainlink/contracts/src/v0.8/mocks/VRFCoordinatorV2Mock.sol\":2557:2582  abi.encode(_requestId, i) */\n      add(0x20, mload(0x40))\n      tag_96\n      swap3\n      swap2\n      swap1\n      tag_97\n      jump\t// in\n    tag_96:\n      mload(0x40)\n      0x20\n      dup2\n      dup4\n      sub\n      sub\n      dup2\n      mstore\n      swap1\n      0x40\n      mstore\n        /* \"@chainlink/contracts/src/v0.8/mocks/VRFCoordinatorV2Mock.sol\":2547:2583  keccak256(abi.encode(_requestId, i)) */\n      dup1\n      mload\n      swap1\n      0x20\n      add\n      keccak256\n        /* \"@chainlink/contracts/src/v0.8/mocks/VRFCoordinatorV2Mock.sol\":2539:2584  uint256(keccak256(abi.encode(_requestId, i))) */\n      0x00\n      shr\n        /* \"@chainlink/contracts/src/v0.8/mocks/VRFCoordinatorV2Mock.sol\":2528:2533  words */\n      dup3\n        /* \"@chainlink/contracts/src/v0.8/mocks/VRFCoordinatorV2Mock.sol\":2534:2535  i */\n      dup3\n        /* \"@chainlink/contracts/src/v0.8/mocks/VRFCoordinatorV2Mock.sol\":2528:2536  words[i] */\n      dup2\n      mload\n      dup2\n      lt\n      tag_98\n      jumpi\n      tag_99\n      tag_100\n      jump\t// in\n    tag_99:\n    tag_98:\n      0x20\n      mul\n      0x20\n      add\n      add\n        /* \"@chainlink/contracts/src/v0.8/mocks/VRFCoordinatorV2Mock.sol\":2528:2584  words[i] = uint256(keccak256(abi.encode(_requestId, i))) */\n      dup2\n      dup2\n      mstore\n      pop\n      pop\n        /* \"@chainlink/contracts/src/v0.8/mocks/VRFCoordinatorV2Mock.sol\":2515:2518  i++ */\n      dup1\n      dup1\n      tag_101\n      swap1\n      tag_80\n      jump\t// in\n    tag_101:\n      swap2\n      pop\n      pop\n        /* \"@chainlink/contracts/src/v0.8/mocks/VRFCoordinatorV2Mock.sol\":2477:2591  for (uint256 i = 0; i < req.numWords; i++) {... */\n      jump(tag_93)\n    tag_94:\n      pop\n        /* \"@chainlink/contracts/src/v0.8/mocks/VRFCoordinatorV2Mock.sol\":2597:2616  VRFConsumerBaseV2 v */\n      0x00\n        /* \"@chainlink/contracts/src/v0.8/mocks/VRFCoordinatorV2Mock.sol\":2622:2642  bytes memory callReq */\n      dup1\n        /* \"@chainlink/contracts/src/v0.8/mocks/VRFCoordinatorV2Mock.sol\":2668:2700  v.rawFulfillRandomWords.selector */\n      shl(0xe0, 0x1fe543e3)\n        /* \"@chainlink/contracts/src/v0.8/mocks/VRFCoordinatorV2Mock.sol\":2702:2712  _requestId */\n      dup8\n        /* \"@chainlink/contracts/src/v0.8/mocks/VRFCoordinatorV2Mock.sol\":2714:2719  words */\n      dup5\n        /* \"@chainlink/contracts/src/v0.8/mocks/VRFCoordinatorV2Mock.sol\":2645:2720  abi.encodeWithSelector(v.rawFulfillRandomWords.selector, _requestId, words) */\n      add(0x24, mload(0x40))\n      tag_102\n      swap3\n      swap2\n      swap1\n      tag_103\n      jump\t// in\n    tag_102:\n      mload(0x40)\n      0x20\n      dup2\n      dup4\n      sub\n      sub\n      dup2\n      mstore\n      swap1\n      0x40\n      mstore\n      swap1\n      not(0xffffffffffffffffffffffffffffffffffffffffffffffffffffffff)\n      and\n      0x20\n      dup3\n      add\n      dup1\n      mload\n      0xffffffffffffffffffffffffffffffffffffffffffffffffffffffff\n      dup4\n      dup2\n      dup4\n      and\n      or\n      dup4\n      mstore\n      pop\n      pop\n      pop\n      pop\n        /* \"@chainlink/contracts/src/v0.8/mocks/VRFCoordinatorV2Mock.sol\":2622:2720  bytes memory callReq = abi.encodeWithSelector(v.rawFulfillRandomWords.selector, _requestId, words) */\n      swap1\n      pop\n        /* \"@chainlink/contracts/src/v0.8/mocks/VRFCoordinatorV2Mock.sol\":2727:2739  bool success */\n      0x00\n        /* \"@chainlink/contracts/src/v0.8/mocks/VRFCoordinatorV2Mock.sol\":2745:2754  _consumer */\n      dup7\n        /* \"@chainlink/contracts/src/v0.8/mocks/VRFCoordinatorV2Mock.sol\":2745:2759  _consumer.call */\n      0xffffffffffffffffffffffffffffffffffffffff\n      and\n        /* \"@chainlink/contracts/src/v0.8/mocks/VRFCoordinatorV2Mock.sol\":2765:2768  req */\n      dup6\n        /* \"@chainlink/contracts/src/v0.8/mocks/VRFCoordinatorV2Mock.sol\":2765:2785  req.callbackGasLimit */\n      0x20\n      add\n      mload\n        /* \"@chainlink/contracts/src/v0.8/mocks/VRFCoordinatorV2Mock.sol\":2745:2795  _consumer.call{gas: req.callbackGasLimit}(callReq) */\n      0xffffffff\n      and\n        /* \"@chainlink/contracts/src/v0.8/mocks/VRFCoordinatorV2Mock.sol\":2787:2794  callReq */\n      dup4\n        /* \"@chainlink/contracts/src/v0.8/mocks/VRFCoordinatorV2Mock.sol\":2745:2795  _consumer.call{gas: req.callbackGasLimit}(callReq) */\n      mload(0x40)\n      tag_104\n      swap2\n      swap1\n      tag_105\n      jump\t// in\n    tag_104:\n      0x00\n      mload(0x40)\n      dup1\n      dup4\n      sub\n      dup2\n      0x00\n      dup8\n      dup8\n      call\n      swap3\n      pop\n      pop\n      pop\n      returndatasize\n      dup1\n      0x00\n      dup2\n      eq\n      tag_108\n      jumpi\n      mload(0x40)\n      swap2\n      pop\n      and(add(returndatasize, 0x3f), not(0x1f))\n      dup3\n      add\n      0x40\n      mstore\n      returndatasize\n      dup3\n      mstore\n      returndatasize\n      0x00\n      0x20\n      dup5\n      add\n      returndatacopy\n      jump(tag_107)\n    tag_108:\n      0x60\n      swap2\n      pop\n    tag_107:\n      pop\n        /* \"@chainlink/contracts/src/v0.8/mocks/VRFCoordinatorV2Mock.sol\":2726:2795  (bool success, ) = _consumer.call{gas: req.callbackGasLimit}(callReq) */\n      pop\n      swap1\n      pop\n        /* \"@chainlink/contracts/src/v0.8/mocks/VRFCoordinatorV2Mock.sol\":2802:2816  uint96 payment */\n      0x00\n        /* \"@chainlink/contracts/src/v0.8/mocks/VRFCoordinatorV2Mock.sol\":2863:2877  GAS_PRICE_LINK */\n      immutable(\"0x3eb2168c54efe55c4cbdb296a43e105b049f642f4564f8ff1105d907daa5cafb\")\n        /* \"@chainlink/contracts/src/v0.8/mocks/VRFCoordinatorV2Mock.sol\":2838:2877  (startGas - gasleft()) * GAS_PRICE_LINK */\n      0xffffffffffffffffffffffff\n      and\n        /* \"@chainlink/contracts/src/v0.8/mocks/VRFCoordinatorV2Mock.sol\":2850:2859  gasleft() */\n      gas\n        /* \"@chainlink/contracts/src/v0.8/mocks/VRFCoordinatorV2Mock.sol\":2839:2847  startGas */\n      dup9\n        /* \"@chainlink/contracts/src/v0.8/mocks/VRFCoordinatorV2Mock.sol\":2839:2859  startGas - gasleft() */\n      tag_109\n      swap2\n      swap1\n      tag_110\n      jump\t// in\n    tag_109:\n        /* \"@chainlink/contracts/src/v0.8/mocks/VRFCoordinatorV2Mock.sol\":2838:2877  (startGas - gasleft()) * GAS_PRICE_LINK */\n      tag_111\n      swap2\n      swap1\n      tag_112\n      jump\t// in\n    tag_111:\n        /* \"@chainlink/contracts/src/v0.8/mocks/VRFCoordinatorV2Mock.sol\":2826:2834  BASE_FEE */\n      immutable(\"0x813e891db9ebb5feedb432576f28db2295153153caaffe3a14678b71ee46fad1\")\n        /* \"@chainlink/contracts/src/v0.8/mocks/VRFCoordinatorV2Mock.sol\":2826:2878  BASE_FEE + ((startGas - gasleft()) * GAS_PRICE_LINK) */\n      0xffffffffffffffffffffffff\n      and\n      tag_113\n      swap2\n      swap1\n      tag_114\n      jump\t// in\n    tag_113:\n        /* \"@chainlink/contracts/src/v0.8/mocks/VRFCoordinatorV2Mock.sol\":2802:2879  uint96 payment = uint96(BASE_FEE + ((startGas - gasleft()) * GAS_PRICE_LINK)) */\n      swap1\n      pop\n        /* \"@chainlink/contracts/src/v0.8/mocks/VRFCoordinatorV2Mock.sol\":2926:2933  payment */\n      dup1\n        /* \"@chainlink/contracts/src/v0.8/mocks/VRFCoordinatorV2Mock.sol\":2889:2933  s_subscriptions[req.subId].balance < payment */\n      0xffffffffffffffffffffffff\n      and\n        /* \"@chainlink/contracts/src/v0.8/mocks/VRFCoordinatorV2Mock.sol\":2889:2904  s_subscriptions */\n      0x03\n        /* \"@chainlink/contracts/src/v0.8/mocks/VRFCoordinatorV2Mock.sol\":2889:2915  s_subscriptions[req.subId] */\n      0x00\n        /* \"@chainlink/contracts/src/v0.8/mocks/VRFCoordinatorV2Mock.sol\":2905:2908  req */\n      dup9\n        /* \"@chainlink/contracts/src/v0.8/mocks/VRFCoordinatorV2Mock.sol\":2905:2914  req.subId */\n      0x00\n      add\n      mload\n        /* \"@chainlink/contracts/src/v0.8/mocks/VRFCoordinatorV2Mock.sol\":2889:2915  s_subscriptions[req.subId] */\n      0xffffffffffffffff\n      and\n      0xffffffffffffffff\n      and\n      dup2\n      mstore\n      0x20\n      add\n      swap1\n      dup2\n      mstore\n      0x20\n      add\n      0x00\n      keccak256\n        /* \"@chainlink/contracts/src/v0.8/mocks/VRFCoordinatorV2Mock.sol\":2889:2923  s_subscriptions[req.subId].balance */\n      0x00\n      add\n      0x14\n      swap1\n      sload\n      swap1\n      0x0100\n      exp\n      swap1\n      div\n      0xffffffffffffffffffffffff\n      and\n        /* \"@chainlink/contracts/src/v0.8/mocks/VRFCoordinatorV2Mock.sol\":2889:2933  s_subscriptions[req.subId].balance < payment */\n      0xffffffffffffffffffffffff\n      and\n      lt\n        /* \"@chainlink/contracts/src/v0.8/mocks/VRFCoordinatorV2Mock.sol\":2885:2978  if (s_subscriptions[req.subId].balance < payment) {... */\n      iszero\n      tag_115\n      jumpi\n        /* \"@chainlink/contracts/src/v0.8/mocks/VRFCoordinatorV2Mock.sol\":2950:2971  InsufficientBalance() */\n      mload(0x40)\n      0xf4d678b800000000000000000000000000000000000000000000000000000000\n      dup2\n      mstore\n      0x04\n      add\n      mload(0x40)\n      dup1\n      swap2\n      sub\n      swap1\n      revert\n        /* \"@chainlink/contracts/src/v0.8/mocks/VRFCoordinatorV2Mock.sol\":2885:2978  if (s_subscriptions[req.subId].balance < payment) {... */\n    tag_115:\n        /* \"@chainlink/contracts/src/v0.8/mocks/VRFCoordinatorV2Mock.sol\":3021:3028  payment */\n      dup1\n        /* \"@chainlink/contracts/src/v0.8/mocks/VRFCoordinatorV2Mock.sol\":2983:2998  s_subscriptions */\n      0x03\n        /* \"@chainlink/contracts/src/v0.8/mocks/VRFCoordinatorV2Mock.sol\":2983:3009  s_subscriptions[req.subId] */\n      0x00\n        /* \"@chainlink/contracts/src/v0.8/mocks/VRFCoordinatorV2Mock.sol\":2999:3002  req */\n      dup9\n        /* \"@chainlink/contracts/src/v0.8/mocks/VRFCoordinatorV2Mock.sol\":2999:3008  req.subId */\n      0x00\n      add\n      mload\n        /* \"@chainlink/contracts/src/v0.8/mocks/VRFCoordinatorV2Mock.sol\":2983:3009  s_subscriptions[req.subId] */\n      0xffffffffffffffff\n      and\n      0xffffffffffffffff\n      and\n      dup2\n      mstore\n      0x20\n      add\n      swap1\n      dup2\n      mstore\n      0x20\n      add\n      0x00\n      keccak256\n        /* \"@chainlink/contracts/src/v0.8/mocks/VRFCoordinatorV2Mock.sol\":2983:3017  s_subscriptions[req.subId].balance */\n      0x00\n      add\n      0x14\n        /* \"@chainlink/contracts/src/v0.8/mocks/VRFCoordinatorV2Mock.sol\":2983:3028  s_subscriptions[req.subId].balance -= payment */\n      dup3\n      dup3\n      dup3\n      swap1\n      sload\n      swap1\n      0x0100\n      exp\n      swap1\n      div\n      0xffffffffffffffffffffffff\n      and\n      tag_116\n      swap2\n      swap1\n      tag_117\n      jump\t// in\n    tag_116:\n      swap3\n      pop\n      0x0100\n      exp\n      dup2\n      sload\n      dup2\n      0xffffffffffffffffffffffff\n      mul\n      not\n      and\n      swap1\n      dup4\n      0xffffffffffffffffffffffff\n      and\n      mul\n      or\n      swap1\n      sstore\n      pop\n        /* \"@chainlink/contracts/src/v0.8/mocks/VRFCoordinatorV2Mock.sol\":3042:3052  s_requests */\n      0x04\n        /* \"@chainlink/contracts/src/v0.8/mocks/VRFCoordinatorV2Mock.sol\":3042:3064  s_requests[_requestId] */\n      0x00\n        /* \"@chainlink/contracts/src/v0.8/mocks/VRFCoordinatorV2Mock.sol\":3053:3063  _requestId */\n      dup11\n        /* \"@chainlink/contracts/src/v0.8/mocks/VRFCoordinatorV2Mock.sol\":3042:3064  s_requests[_requestId] */\n      dup2\n      mstore\n      0x20\n      add\n      swap1\n      dup2\n      mstore\n      0x20\n      add\n      0x00\n      keccak256\n      0x00\n        /* \"@chainlink/contracts/src/v0.8/mocks/VRFCoordinatorV2Mock.sol\":3034:3065  delete (s_requests[_requestId]) */\n      dup1\n      dup3\n      add\n      exp(0x0100, 0x00)\n      dup2\n      sload\n      swap1\n      0xffffffffffffffff\n      mul\n      not\n      and\n      swap1\n      sstore\n      0x00\n      dup3\n      add\n      exp(0x0100, 0x08)\n      dup2\n      sload\n      swap1\n      0xffffffff\n      mul\n      not\n      and\n      swap1\n      sstore\n      0x00\n      dup3\n      add\n      exp(0x0100, 0x0c)\n      dup2\n      sload\n      swap1\n      0xffffffff\n      mul\n      not\n      and\n      swap1\n      sstore\n      pop\n      pop\n        /* \"@chainlink/contracts/src/v0.8/mocks/VRFCoordinatorV2Mock.sol\":3097:3107  _requestId */\n      dup9\n        /* \"@chainlink/contracts/src/v0.8/mocks/VRFCoordinatorV2Mock.sol\":3076:3138  RandomWordsFulfilled(_requestId, _requestId, payment, success) */\n      0x7dffc5ae5ee4e2e4df1651cf6ad329a73cebdb728f37ea0187b9b17e036756e4\n        /* \"@chainlink/contracts/src/v0.8/mocks/VRFCoordinatorV2Mock.sol\":3109:3119  _requestId */\n      dup11\n        /* \"@chainlink/contracts/src/v0.8/mocks/VRFCoordinatorV2Mock.sol\":3121:3128  payment */\n      dup4\n        /* \"@chainlink/contracts/src/v0.8/mocks/VRFCoordinatorV2Mock.sol\":3130:3137  success */\n      dup6\n        /* \"@chainlink/contracts/src/v0.8/mocks/VRFCoordinatorV2Mock.sol\":3076:3138  RandomWordsFulfilled(_requestId, _requestId, payment, success) */\n      mload(0x40)\n      tag_118\n      swap4\n      swap3\n      swap2\n      swap1\n      tag_119\n      jump\t// in\n    tag_118:\n      mload(0x40)\n      dup1\n      swap2\n      sub\n      swap1\n      log2\n        /* \"@chainlink/contracts/src/v0.8/mocks/VRFCoordinatorV2Mock.sol\":2241:3143  {... */\n      pop\n      pop\n      pop\n      pop\n      pop\n      pop\n      pop\n        /* \"@chainlink/contracts/src/v0.8/mocks/VRFCoordinatorV2Mock.sol\":2165:3143  function fulfillRandomWords(uint256 _requestId, address _consumer) external {... */\n      pop\n      pop\n      jump\t// out\n        /* \"@chainlink/contracts/src/v0.8/mocks/VRFCoordinatorV2Mock.sol\":6121:6236  function acceptSubscriptionOwnerTransfer(uint64 _subId) external pure override {... */\n    tag_46:\n        /* \"@chainlink/contracts/src/v0.8/mocks/VRFCoordinatorV2Mock.sol\":6206:6231  revert(\"not implemented\") */\n      mload(0x40)\n      0x08c379a000000000000000000000000000000000000000000000000000000000\n      dup2\n      mstore\n      0x04\n      add\n      tag_121\n      swap1\n      tag_76\n      jump\t// in\n    tag_121:\n      mload(0x40)\n      dup1\n      swap2\n      sub\n      swap1\n      revert\n        /* \"@chainlink/contracts/src/v0.8/mocks/VRFCoordinatorV2Mock.sol\":5861:5978  function removeConsumer(uint64 _subId, address _consumer) external pure override {... */\n    tag_49:\n        /* \"@chainlink/contracts/src/v0.8/mocks/VRFCoordinatorV2Mock.sol\":5948:5973  revert(\"not implemented\") */\n      mload(0x40)\n      0x08c379a000000000000000000000000000000000000000000000000000000000\n      dup2\n      mstore\n      0x04\n      add\n      tag_123\n      swap1\n      tag_76\n      jump\t// in\n    tag_123:\n      mload(0x40)\n      dup1\n      swap2\n      sub\n      swap1\n      revert\n        /* \"@chainlink/contracts/src/v0.8/mocks/VRFCoordinatorV2Mock.sol\":4413:4682  function createSubscription() external override returns (uint64 _subId) {... */\n    tag_51:\n        /* \"@chainlink/contracts/src/v0.8/mocks/VRFCoordinatorV2Mock.sol\":4470:4483  uint64 _subId */\n      0x00\n        /* \"@chainlink/contracts/src/v0.8/mocks/VRFCoordinatorV2Mock.sol\":4491:4505  s_currentSubId */\n      dup1\n      0x00\n        /* \"@chainlink/contracts/src/v0.8/mocks/VRFCoordinatorV2Mock.sol\":4491:4507  s_currentSubId++ */\n      dup2\n      dup2\n      swap1\n      sload\n      swap1\n      0x0100\n      exp\n      swap1\n      div\n      0xffffffffffffffff\n      and\n      dup1\n      swap3\n      swap2\n      swap1\n      tag_125\n      swap1\n      tag_126\n      jump\t// in\n    tag_125:\n      swap2\n      swap1\n      0x0100\n      exp\n      dup2\n      sload\n      dup2\n      0xffffffffffffffff\n      mul\n      not\n      and\n      swap1\n      dup4\n      0xffffffffffffffff\n      and\n      mul\n      or\n      swap1\n      sstore\n      pop\n      pop\n        /* \"@chainlink/contracts/src/v0.8/mocks/VRFCoordinatorV2Mock.sol\":4547:4592  Subscription({owner: msg.sender, balance: 0}) */\n      mload(0x40)\n      dup1\n      0x40\n      add\n      0x40\n      mstore\n      dup1\n        /* \"@chainlink/contracts/src/v0.8/mocks/VRFCoordinatorV2Mock.sol\":4568:4578  msg.sender */\n      caller\n        /* \"@chainlink/contracts/src/v0.8/mocks/VRFCoordinatorV2Mock.sol\":4547:4592  Subscription({owner: msg.sender, balance: 0}) */\n      0xffffffffffffffffffffffffffffffffffffffff\n      and\n      dup2\n      mstore\n      0x20\n      add\n        /* \"@chainlink/contracts/src/v0.8/mocks/VRFCoordinatorV2Mock.sol\":4589:4590  0 */\n      0x00\n        /* \"@chainlink/contracts/src/v0.8/mocks/VRFCoordinatorV2Mock.sol\":4547:4592  Subscription({owner: msg.sender, balance: 0}) */\n      0xffffffffffffffffffffffff\n      and\n      dup2\n      mstore\n      pop\n        /* \"@chainlink/contracts/src/v0.8/mocks/VRFCoordinatorV2Mock.sol\":4513:4528  s_subscriptions */\n      0x03\n        /* \"@chainlink/contracts/src/v0.8/mocks/VRFCoordinatorV2Mock.sol\":4513:4544  s_subscriptions[s_currentSubId] */\n      0x00\n        /* \"@chainlink/contracts/src/v0.8/mocks/VRFCoordinatorV2Mock.sol\":4529:4543  s_currentSubId */\n      dup1\n      0x00\n      swap1\n      sload\n      swap1\n      0x0100\n      exp\n      swap1\n      div\n      0xffffffffffffffff\n      and\n        /* \"@chainlink/contracts/src/v0.8/mocks/VRFCoordinatorV2Mock.sol\":4513:4544  s_subscriptions[s_currentSubId] */\n      0xffffffffffffffff\n      and\n      0xffffffffffffffff\n      and\n      dup2\n      mstore\n      0x20\n      add\n      swap1\n      dup2\n      mstore\n      0x20\n      add\n      0x00\n      keccak256\n        /* \"@chainlink/contracts/src/v0.8/mocks/VRFCoordinatorV2Mock.sol\":4513:4592  s_subscriptions[s_currentSubId] = Subscription({owner: msg.sender, balance: 0}) */\n      0x00\n      dup3\n      add\n      mload\n      dup2\n      0x00\n      add\n      exp(0x0100, 0x00)\n      dup2\n      sload\n      dup2\n      0xffffffffffffffffffffffffffffffffffffffff\n      mul\n      not\n      and\n      swap1\n      dup4\n      0xffffffffffffffffffffffffffffffffffffffff\n      and\n      mul\n      or\n      swap1\n      sstore\n      pop\n      0x20\n      dup3\n      add\n      mload\n      dup2\n      0x00\n      add\n      exp(0x0100, 0x14)\n      dup2\n      sload\n      dup2\n      0xffffffffffffffffffffffff\n      mul\n      not\n      and\n      swap1\n      dup4\n      0xffffffffffffffffffffffff\n      and\n      mul\n      or\n      swap1\n      sstore\n      pop\n      swap1\n      pop\n      pop\n        /* \"@chainlink/contracts/src/v0.8/mocks/VRFCoordinatorV2Mock.sol\":4623:4637  s_currentSubId */\n      0x00\n      dup1\n      sload\n      swap1\n      0x0100\n      exp\n      swap1\n      div\n      0xffffffffffffffff\n      and\n        /* \"@chainlink/contracts/src/v0.8/mocks/VRFCoordinatorV2Mock.sol\":4603:4650  SubscriptionCreated(s_currentSubId, msg.sender) */\n      0xffffffffffffffff\n      and\n      0x464722b4166576d3dcbba877b999bc35cf911f4eaf434b7eba68fa113951d0bf\n        /* \"@chainlink/contracts/src/v0.8/mocks/VRFCoordinatorV2Mock.sol\":4639:4649  msg.sender */\n      caller\n        /* \"@chainlink/contracts/src/v0.8/mocks/VRFCoordinatorV2Mock.sol\":4603:4650  SubscriptionCreated(s_currentSubId, msg.sender) */\n      mload(0x40)\n      tag_127\n      swap2\n      swap1\n      tag_128\n      jump\t// in\n    tag_127:\n      mload(0x40)\n      dup1\n      swap2\n      sub\n      swap1\n      log2\n        /* \"@chainlink/contracts/src/v0.8/mocks/VRFCoordinatorV2Mock.sol\":4663:4677  s_currentSubId */\n      0x00\n      dup1\n      sload\n      swap1\n      0x0100\n      exp\n      swap1\n      div\n      0xffffffffffffffff\n      and\n        /* \"@chainlink/contracts/src/v0.8/mocks/VRFCoordinatorV2Mock.sol\":4656:4677  return s_currentSubId */\n      swap1\n      pop\n        /* \"@chainlink/contracts/src/v0.8/mocks/VRFCoordinatorV2Mock.sol\":4413:4682  function createSubscription() external override returns (uint64 _subId) {... */\n      swap1\n      jump\t// out\n        /* \"@chainlink/contracts/src/v0.8/mocks/VRFCoordinatorV2Mock.sol\":353:391  uint96 public immutable GAS_PRICE_LINK */\n    tag_55:\n      immutable(\"0x3eb2168c54efe55c4cbdb296a43e105b049f642f4564f8ff1105d907daa5cafb\")\n      dup2\n      jump\t// out\n        /* \"@chainlink/contracts/src/v0.8/mocks/VRFCoordinatorV2Mock.sol\":4686:5082  function getSubscription(uint64 _subId)... */\n    tag_59:\n        /* \"@chainlink/contracts/src/v0.8/mocks/VRFCoordinatorV2Mock.sol\":4781:4795  uint96 balance */\n      0x00\n        /* \"@chainlink/contracts/src/v0.8/mocks/VRFCoordinatorV2Mock.sol\":4803:4818  uint64 reqCount */\n      dup1\n        /* \"@chainlink/contracts/src/v0.8/mocks/VRFCoordinatorV2Mock.sol\":4826:4839  address owner */\n      0x00\n        /* \"@chainlink/contracts/src/v0.8/mocks/VRFCoordinatorV2Mock.sol\":4847:4873  address[] memory consumers */\n      0x60\n        /* \"@chainlink/contracts/src/v0.8/mocks/VRFCoordinatorV2Mock.sol\":4933:4934  0 */\n      0x00\n        /* \"@chainlink/contracts/src/v0.8/mocks/VRFCoordinatorV2Mock.sol\":4892:4935  s_subscriptions[_subId].owner == address(0) */\n      0xffffffffffffffffffffffffffffffffffffffff\n      and\n        /* \"@chainlink/contracts/src/v0.8/mocks/VRFCoordinatorV2Mock.sol\":4892:4907  s_subscriptions */\n      0x03\n        /* \"@chainlink/contracts/src/v0.8/mocks/VRFCoordinatorV2Mock.sol\":4892:4915  s_subscriptions[_subId] */\n      0x00\n        /* \"@chainlink/contracts/src/v0.8/mocks/VRFCoordinatorV2Mock.sol\":4908:4914  _subId */\n      dup8\n        /* \"@chainlink/contracts/src/v0.8/mocks/VRFCoordinatorV2Mock.sol\":4892:4915  s_subscriptions[_subId] */\n      0xffffffffffffffff\n      and\n      0xffffffffffffffff\n      and\n      dup2\n      mstore\n      0x20\n      add\n      swap1\n      dup2\n      mstore\n      0x20\n      add\n      0x00\n      keccak256\n        /* \"@chainlink/contracts/src/v0.8/mocks/VRFCoordinatorV2Mock.sol\":4892:4921  s_subscriptions[_subId].owner */\n      0x00\n      add\n      0x00\n      swap1\n      sload\n      swap1\n      0x0100\n      exp\n      swap1\n      div\n      0xffffffffffffffffffffffffffffffffffffffff\n      and\n        /* \"@chainlink/contracts/src/v0.8/mocks/VRFCoordinatorV2Mock.sol\":4892:4935  s_subscriptions[_subId].owner == address(0) */\n      0xffffffffffffffffffffffffffffffffffffffff\n      and\n      sub\n        /* \"@chainlink/contracts/src/v0.8/mocks/VRFCoordinatorV2Mock.sol\":4888:4980  if (s_subscriptions[_subId].owner == address(0)) {... */\n      tag_130\n      jumpi\n        /* \"@chainlink/contracts/src/v0.8/mocks/VRFCoordinatorV2Mock.sol\":4952:4973  InvalidSubscription() */\n      mload(0x40)\n      0x1f6a65b600000000000000000000000000000000000000000000000000000000\n      dup2\n      mstore\n      0x04\n      add\n      mload(0x40)\n      dup1\n      swap2\n      sub\n      swap1\n      revert\n        /* \"@chainlink/contracts/src/v0.8/mocks/VRFCoordinatorV2Mock.sol\":4888:4980  if (s_subscriptions[_subId].owner == address(0)) {... */\n    tag_130:\n        /* \"@chainlink/contracts/src/v0.8/mocks/VRFCoordinatorV2Mock.sol\":4993:5008  s_subscriptions */\n      0x03\n        /* \"@chainlink/contracts/src/v0.8/mocks/VRFCoordinatorV2Mock.sol\":4993:5016  s_subscriptions[_subId] */\n      0x00\n        /* \"@chainlink/contracts/src/v0.8/mocks/VRFCoordinatorV2Mock.sol\":5009:5015  _subId */\n      dup7\n        /* \"@chainlink/contracts/src/v0.8/mocks/VRFCoordinatorV2Mock.sol\":4993:5016  s_subscriptions[_subId] */\n      0xffffffffffffffff\n      and\n      0xffffffffffffffff\n      and\n      dup2\n      mstore\n      0x20\n      add\n      swap1\n      dup2\n      mstore\n      0x20\n      add\n      0x00\n      keccak256\n        /* \"@chainlink/contracts/src/v0.8/mocks/VRFCoordinatorV2Mock.sol\":4993:5024  s_subscriptions[_subId].balance */\n      0x00\n      add\n      0x14\n      swap1\n      sload\n      swap1\n      0x0100\n      exp\n      swap1\n      div\n      0xffffffffffffffffffffffff\n      and\n        /* \"@chainlink/contracts/src/v0.8/mocks/VRFCoordinatorV2Mock.sol\":5026:5027  0 */\n      0x00\n        /* \"@chainlink/contracts/src/v0.8/mocks/VRFCoordinatorV2Mock.sol\":5029:5044  s_subscriptions */\n      0x03\n        /* \"@chainlink/contracts/src/v0.8/mocks/VRFCoordinatorV2Mock.sol\":5029:5052  s_subscriptions[_subId] */\n      0x00\n        /* \"@chainlink/contracts/src/v0.8/mocks/VRFCoordinatorV2Mock.sol\":5045:5051  _subId */\n      dup9\n        /* \"@chainlink/contracts/src/v0.8/mocks/VRFCoordinatorV2Mock.sol\":5029:5052  s_subscriptions[_subId] */\n      0xffffffffffffffff\n      and\n      0xffffffffffffffff\n      and\n      dup2\n      mstore\n      0x20\n      add\n      swap1\n      dup2\n      mstore\n      0x20\n      add\n      0x00\n      keccak256\n        /* \"@chainlink/contracts/src/v0.8/mocks/VRFCoordinatorV2Mock.sol\":5029:5058  s_subscriptions[_subId].owner */\n      0x00\n      add\n      0x00\n      swap1\n      sload\n      swap1\n      0x0100\n      exp\n      swap1\n      div\n      0xffffffffffffffffffffffffffffffffffffffff\n      and\n        /* \"@chainlink/contracts/src/v0.8/mocks/VRFCoordinatorV2Mock.sol\":5074:5075  0 */\n      0x00\n        /* \"@chainlink/contracts/src/v0.8/mocks/VRFCoordinatorV2Mock.sol\":5060:5076  new address[](0) */\n      0xffffffffffffffff\n      dup2\n      gt\n      iszero\n      tag_131\n      jumpi\n      tag_132\n      tag_72\n      jump\t// in\n    tag_132:\n    tag_131:\n      mload(0x40)\n      swap1\n      dup1\n      dup3\n      mstore\n      dup1\n      0x20\n      mul\n      0x20\n      add\n      dup3\n      add\n      0x40\n      mstore\n      dup1\n      iszero\n      tag_133\n      jumpi\n      dup2\n      0x20\n      add\n      0x20\n      dup3\n      mul\n      dup1\n      calldatasize\n      dup4\n      calldatacopy\n      dup1\n      dup3\n      add\n      swap2\n      pop\n      pop\n      swap1\n      pop\n    tag_133:\n      pop\n        /* \"@chainlink/contracts/src/v0.8/mocks/VRFCoordinatorV2Mock.sol\":4985:5077  return (s_subscriptions[_subId].balance, 0, s_subscriptions[_subId].owner, new address[](0)) */\n      swap4\n      pop\n      swap4\n      pop\n      swap4\n      pop\n      swap4\n      pop\n        /* \"@chainlink/contracts/src/v0.8/mocks/VRFCoordinatorV2Mock.sol\":4686:5082  function getSubscription(uint64 _subId)... */\n      swap2\n      swap4\n      pop\n      swap2\n      swap4\n      jump\t// out\n        /* \"@chainlink/contracts/src/v0.8/mocks/VRFCoordinatorV2Mock.sol\":3345:3687  function fundSubscription(uint64 _subId, uint96 _amount) public {... */\n    tag_65:\n        /* \"@chainlink/contracts/src/v0.8/mocks/VRFCoordinatorV2Mock.sol\":3460:3461  0 */\n      0x00\n        /* \"@chainlink/contracts/src/v0.8/mocks/VRFCoordinatorV2Mock.sol\":3419:3462  s_subscriptions[_subId].owner == address(0) */\n      0xffffffffffffffffffffffffffffffffffffffff\n      and\n        /* \"@chainlink/contracts/src/v0.8/mocks/VRFCoordinatorV2Mock.sol\":3419:3434  s_subscriptions */\n      0x03\n        /* \"@chainlink/contracts/src/v0.8/mocks/VRFCoordinatorV2Mock.sol\":3419:3442  s_subscriptions[_subId] */\n      0x00\n        /* \"@chainlink/contracts/src/v0.8/mocks/VRFCoordinatorV2Mock.sol\":3435:3441  _subId */\n      dup5\n        /* \"@chainlink/contracts/src/v0.8/mocks/VRFCoordinatorV2Mock.sol\":3419:3442  s_subscriptions[_subId] */\n      0xffffffffffffffff\n      and\n      0xffffffffffffffff\n      and\n      dup2\n      mstore\n      0x20\n      add\n      swap1\n      dup2\n      mstore\n      0x20\n      add\n      0x00\n      keccak256\n        /* \"@chainlink/contracts/src/v0.8/mocks/VRFCoordinatorV2Mock.sol\":3419:3448  s_subscriptions[_subId].owner */\n      0x00\n      add\n      0x00\n      swap1\n      sload\n      swap1\n      0x0100\n      exp\n      swap1\n      div\n      0xffffffffffffffffffffffffffffffffffffffff\n      and\n        /* \"@chainlink/contracts/src/v0.8/mocks/VRFCoordinatorV2Mock.sol\":3419:3462  s_subscriptions[_subId].owner == address(0) */\n      0xffffffffffffffffffffffffffffffffffffffff\n      and\n      sub\n        /* \"@chainlink/contracts/src/v0.8/mocks/VRFCoordinatorV2Mock.sol\":3415:3507  if (s_subscriptions[_subId].owner == address(0)) {... */\n      tag_135\n      jumpi\n        /* \"@chainlink/contracts/src/v0.8/mocks/VRFCoordinatorV2Mock.sol\":3479:3500  InvalidSubscription() */\n      mload(0x40)\n      0x1f6a65b600000000000000000000000000000000000000000000000000000000\n      dup2\n      mstore\n      0x04\n      add\n      mload(0x40)\n      dup1\n      swap2\n      sub\n      swap1\n      revert\n        /* \"@chainlink/contracts/src/v0.8/mocks/VRFCoordinatorV2Mock.sol\":3415:3507  if (s_subscriptions[_subId].owner == address(0)) {... */\n    tag_135:\n        /* \"@chainlink/contracts/src/v0.8/mocks/VRFCoordinatorV2Mock.sol\":3512:3529  uint96 oldBalance */\n      0x00\n        /* \"@chainlink/contracts/src/v0.8/mocks/VRFCoordinatorV2Mock.sol\":3532:3547  s_subscriptions */\n      0x03\n        /* \"@chainlink/contracts/src/v0.8/mocks/VRFCoordinatorV2Mock.sol\":3532:3555  s_subscriptions[_subId] */\n      0x00\n        /* \"@chainlink/contracts/src/v0.8/mocks/VRFCoordinatorV2Mock.sol\":3548:3554  _subId */\n      dup5\n        /* \"@chainlink/contracts/src/v0.8/mocks/VRFCoordinatorV2Mock.sol\":3532:3555  s_subscriptions[_subId] */\n      0xffffffffffffffff\n      and\n      0xffffffffffffffff\n      and\n      dup2\n      mstore\n      0x20\n      add\n      swap1\n      dup2\n      mstore\n      0x20\n      add\n      0x00\n      keccak256\n        /* \"@chainlink/contracts/src/v0.8/mocks/VRFCoordinatorV2Mock.sol\":3532:3563  s_subscriptions[_subId].balance */\n      0x00\n      add\n      0x14\n      swap1\n      sload\n      swap1\n      0x0100\n      exp\n      swap1\n      div\n      0xffffffffffffffffffffffff\n      and\n        /* \"@chainlink/contracts/src/v0.8/mocks/VRFCoordinatorV2Mock.sol\":3512:3563  uint96 oldBalance = s_subscriptions[_subId].balance */\n      swap1\n      pop\n        /* \"@chainlink/contracts/src/v0.8/mocks/VRFCoordinatorV2Mock.sol\":3604:3611  _amount */\n      dup2\n        /* \"@chainlink/contracts/src/v0.8/mocks/VRFCoordinatorV2Mock.sol\":3569:3584  s_subscriptions */\n      0x03\n        /* \"@chainlink/contracts/src/v0.8/mocks/VRFCoordinatorV2Mock.sol\":3569:3592  s_subscriptions[_subId] */\n      0x00\n        /* \"@chainlink/contracts/src/v0.8/mocks/VRFCoordinatorV2Mock.sol\":3585:3591  _subId */\n      dup6\n        /* \"@chainlink/contracts/src/v0.8/mocks/VRFCoordinatorV2Mock.sol\":3569:3592  s_subscriptions[_subId] */\n      0xffffffffffffffff\n      and\n      0xffffffffffffffff\n      and\n      dup2\n      mstore\n      0x20\n      add\n      swap1\n      dup2\n      mstore\n      0x20\n      add\n      0x00\n      keccak256\n        /* \"@chainlink/contracts/src/v0.8/mocks/VRFCoordinatorV2Mock.sol\":3569:3600  s_subscriptions[_subId].balance */\n      0x00\n      add\n      0x14\n        /* \"@chainlink/contracts/src/v0.8/mocks/VRFCoordinatorV2Mock.sol\":3569:3611  s_subscriptions[_subId].balance += _amount */\n      dup3\n      dup3\n      dup3\n      swap1\n      sload\n      swap1\n      0x0100\n      exp\n      swap1\n      div\n      0xffffffffffffffffffffffff\n      and\n      tag_136\n      swap2\n      swap1\n      tag_137\n      jump\t// in\n    tag_136:\n      swap3\n      pop\n      0x0100\n      exp\n      dup2\n      sload\n      dup2\n      0xffffffffffffffffffffffff\n      mul\n      not\n      and\n      swap1\n      dup4\n      0xffffffffffffffffffffffff\n      and\n      mul\n      or\n      swap1\n      sstore\n      pop\n        /* \"@chainlink/contracts/src/v0.8/mocks/VRFCoordinatorV2Mock.sol\":3641:3647  _subId */\n      dup3\n        /* \"@chainlink/contracts/src/v0.8/mocks/VRFCoordinatorV2Mock.sol\":3622:3682  SubscriptionFunded(_subId, oldBalance, oldBalance + _amount) */\n      0xffffffffffffffff\n      and\n      0xd39ec07f4e209f627a4c427971473820dc129761ba28de8906bd56f57101d4f8\n        /* \"@chainlink/contracts/src/v0.8/mocks/VRFCoordinatorV2Mock.sol\":3649:3659  oldBalance */\n      dup3\n        /* \"@chainlink/contracts/src/v0.8/mocks/VRFCoordinatorV2Mock.sol\":3674:3681  _amount */\n      dup5\n        /* \"@chainlink/contracts/src/v0.8/mocks/VRFCoordinatorV2Mock.sol\":3661:3671  oldBalance */\n      dup5\n        /* \"@chainlink/contracts/src/v0.8/mocks/VRFCoordinatorV2Mock.sol\":3661:3681  oldBalance + _amount */\n      tag_138\n      swap2\n      swap1\n      tag_137\n      jump\t// in\n    tag_138:\n        /* \"@chainlink/contracts/src/v0.8/mocks/VRFCoordinatorV2Mock.sol\":3622:3682  SubscriptionFunded(_subId, oldBalance, oldBalance + _amount) */\n      mload(0x40)\n      tag_139\n      swap3\n      swap2\n      swap1\n      tag_140\n      jump\t// in\n    tag_139:\n      mload(0x40)\n      dup1\n      swap2\n      sub\n      swap1\n      log2\n        /* \"@chainlink/contracts/src/v0.8/mocks/VRFCoordinatorV2Mock.sol\":3409:3687  {... */\n      pop\n        /* \"@chainlink/contracts/src/v0.8/mocks/VRFCoordinatorV2Mock.sol\":3345:3687  function fundSubscription(uint64 _subId, uint96 _amount) public {... */\n      pop\n      pop\n      jump\t// out\n        /* \"@chainlink/contracts/src/v0.8/mocks/VRFCoordinatorV2Mock.sol\":5086:5301  function cancelSubscription(uint64 _subId, address _to) external override onlySubOwner(_subId) {... */\n    tag_68:\n        /* \"@chainlink/contracts/src/v0.8/mocks/VRFCoordinatorV2Mock.sol\":5173:5179  _subId */\n      dup2\n        /* \"@chainlink/contracts/src/v0.8/mocks/VRFCoordinatorV2Mock.sol\":5348:5361  address owner */\n      0x00\n        /* \"@chainlink/contracts/src/v0.8/mocks/VRFCoordinatorV2Mock.sol\":5364:5379  s_subscriptions */\n      0x03\n        /* \"@chainlink/contracts/src/v0.8/mocks/VRFCoordinatorV2Mock.sol\":5364:5387  s_subscriptions[_subId] */\n      0x00\n        /* \"@chainlink/contracts/src/v0.8/mocks/VRFCoordinatorV2Mock.sol\":5380:5386  _subId */\n      dup4\n        /* \"@chainlink/contracts/src/v0.8/mocks/VRFCoordinatorV2Mock.sol\":5364:5387  s_subscriptions[_subId] */\n      0xffffffffffffffff\n      and\n      0xffffffffffffffff\n      and\n      dup2\n      mstore\n      0x20\n      add\n      swap1\n      dup2\n      mstore\n      0x20\n      add\n      0x00\n      keccak256\n        /* \"@chainlink/contracts/src/v0.8/mocks/VRFCoordinatorV2Mock.sol\":5364:5393  s_subscriptions[_subId].owner */\n      0x00\n      add\n      0x00\n      swap1\n      sload\n      swap1\n      0x0100\n      exp\n      swap1\n      div\n      0xffffffffffffffffffffffffffffffffffffffff\n      and\n        /* \"@chainlink/contracts/src/v0.8/mocks/VRFCoordinatorV2Mock.sol\":5348:5393  address owner = s_subscriptions[_subId].owner */\n      swap1\n      pop\n        /* \"@chainlink/contracts/src/v0.8/mocks/VRFCoordinatorV2Mock.sol\":5420:5421  0 */\n      0x00\n        /* \"@chainlink/contracts/src/v0.8/mocks/VRFCoordinatorV2Mock.sol\":5403:5422  owner == address(0) */\n      0xffffffffffffffffffffffffffffffffffffffff\n      and\n        /* \"@chainlink/contracts/src/v0.8/mocks/VRFCoordinatorV2Mock.sol\":5403:5408  owner */\n      dup2\n        /* \"@chainlink/contracts/src/v0.8/mocks/VRFCoordinatorV2Mock.sol\":5403:5422  owner == address(0) */\n      0xffffffffffffffffffffffffffffffffffffffff\n      and\n      sub\n        /* \"@chainlink/contracts/src/v0.8/mocks/VRFCoordinatorV2Mock.sol\":5399:5467  if (owner == address(0)) {... */\n      tag_142\n      jumpi\n        /* \"@chainlink/contracts/src/v0.8/mocks/VRFCoordinatorV2Mock.sol\":5439:5460  InvalidSubscription() */\n      mload(0x40)\n      0x1f6a65b600000000000000000000000000000000000000000000000000000000\n      dup2\n      mstore\n      0x04\n      add\n      mload(0x40)\n      dup1\n      swap2\n      sub\n      swap1\n      revert\n        /* \"@chainlink/contracts/src/v0.8/mocks/VRFCoordinatorV2Mock.sol\":5399:5467  if (owner == address(0)) {... */\n    tag_142:\n        /* \"@chainlink/contracts/src/v0.8/mocks/VRFCoordinatorV2Mock.sol\":5490:5495  owner */\n      dup1\n        /* \"@chainlink/contracts/src/v0.8/mocks/VRFCoordinatorV2Mock.sol\":5476:5495  msg.sender != owner */\n      0xffffffffffffffffffffffffffffffffffffffff\n      and\n        /* \"@chainlink/contracts/src/v0.8/mocks/VRFCoordinatorV2Mock.sol\":5476:5486  msg.sender */\n      caller\n        /* \"@chainlink/contracts/src/v0.8/mocks/VRFCoordinatorV2Mock.sol\":5476:5495  msg.sender != owner */\n      0xffffffffffffffffffffffffffffffffffffffff\n      and\n      eq\n        /* \"@chainlink/contracts/src/v0.8/mocks/VRFCoordinatorV2Mock.sol\":5472:5540  if (msg.sender != owner) {... */\n      tag_143\n      jumpi\n        /* \"@chainlink/contracts/src/v0.8/mocks/VRFCoordinatorV2Mock.sol\":5527:5532  owner */\n      dup1\n        /* \"@chainlink/contracts/src/v0.8/mocks/VRFCoordinatorV2Mock.sol\":5512:5533  MustBeSubOwner(owner) */\n      mload(0x40)\n      0xd8a3fb5200000000000000000000000000000000000000000000000000000000\n      dup2\n      mstore\n      0x04\n      add\n      tag_144\n      swap2\n      swap1\n      tag_128\n      jump\t// in\n    tag_144:\n      mload(0x40)\n      dup1\n      swap2\n      sub\n      swap1\n      revert\n        /* \"@chainlink/contracts/src/v0.8/mocks/VRFCoordinatorV2Mock.sol\":5472:5540  if (msg.sender != owner) {... */\n    tag_143:\n        /* \"@chainlink/contracts/src/v0.8/mocks/VRFCoordinatorV2Mock.sol\":5213:5219  _subId */\n      dup4\n        /* \"@chainlink/contracts/src/v0.8/mocks/VRFCoordinatorV2Mock.sol\":5192:5258  SubscriptionCanceled(_subId, _to, s_subscriptions[_subId].balance) */\n      0xffffffffffffffff\n      and\n      0xe8ed5b475a5b5987aa9165e8731bb78043f39eee32ec5a1169a89e27fcd49815\n        /* \"@chainlink/contracts/src/v0.8/mocks/VRFCoordinatorV2Mock.sol\":5221:5224  _to */\n      dup5\n        /* \"@chainlink/contracts/src/v0.8/mocks/VRFCoordinatorV2Mock.sol\":5226:5241  s_subscriptions */\n      0x03\n        /* \"@chainlink/contracts/src/v0.8/mocks/VRFCoordinatorV2Mock.sol\":5226:5249  s_subscriptions[_subId] */\n      0x00\n        /* \"@chainlink/contracts/src/v0.8/mocks/VRFCoordinatorV2Mock.sol\":5242:5248  _subId */\n      dup9\n        /* \"@chainlink/contracts/src/v0.8/mocks/VRFCoordinatorV2Mock.sol\":5226:5249  s_subscriptions[_subId] */\n      0xffffffffffffffff\n      and\n      0xffffffffffffffff\n      and\n      dup2\n      mstore\n      0x20\n      add\n      swap1\n      dup2\n      mstore\n      0x20\n      add\n      0x00\n      keccak256\n        /* \"@chainlink/contracts/src/v0.8/mocks/VRFCoordinatorV2Mock.sol\":5226:5257  s_subscriptions[_subId].balance */\n      0x00\n      add\n      0x14\n      swap1\n      sload\n      swap1\n      0x0100\n      exp\n      swap1\n      div\n      0xffffffffffffffffffffffff\n      and\n        /* \"@chainlink/contracts/src/v0.8/mocks/VRFCoordinatorV2Mock.sol\":5192:5258  SubscriptionCanceled(_subId, _to, s_subscriptions[_subId].balance) */\n      mload(0x40)\n      tag_146\n      swap3\n      swap2\n      swap1\n      tag_147\n      jump\t// in\n    tag_146:\n      mload(0x40)\n      dup1\n      swap2\n      sub\n      swap1\n      log2\n        /* \"@chainlink/contracts/src/v0.8/mocks/VRFCoordinatorV2Mock.sol\":5272:5287  s_subscriptions */\n      0x03\n        /* \"@chainlink/contracts/src/v0.8/mocks/VRFCoordinatorV2Mock.sol\":5272:5295  s_subscriptions[_subId] */\n      0x00\n        /* \"@chainlink/contracts/src/v0.8/mocks/VRFCoordinatorV2Mock.sol\":5288:5294  _subId */\n      dup6\n        /* \"@chainlink/contracts/src/v0.8/mocks/VRFCoordinatorV2Mock.sol\":5272:5295  s_subscriptions[_subId] */\n      0xffffffffffffffff\n      and\n      0xffffffffffffffff\n      and\n      dup2\n      mstore\n      0x20\n      add\n      swap1\n      dup2\n      mstore\n      0x20\n      add\n      0x00\n      keccak256\n      0x00\n        /* \"@chainlink/contracts/src/v0.8/mocks/VRFCoordinatorV2Mock.sol\":5264:5296  delete (s_subscriptions[_subId]) */\n      dup1\n      dup3\n      add\n      exp(0x0100, 0x00)\n      dup2\n      sload\n      swap1\n      0xffffffffffffffffffffffffffffffffffffffff\n      mul\n      not\n      and\n      swap1\n      sstore\n      0x00\n      dup3\n      add\n      exp(0x0100, 0x14)\n      dup2\n      sload\n      swap1\n      0xffffffffffffffffffffffff\n      mul\n      not\n      and\n      swap1\n      sstore\n      pop\n      pop\n        /* \"@chainlink/contracts/src/v0.8/mocks/VRFCoordinatorV2Mock.sol\":5342:5551  {... */\n      pop\n        /* \"@chainlink/contracts/src/v0.8/mocks/VRFCoordinatorV2Mock.sol\":5086:5301  function cancelSubscription(uint64 _subId, address _to) external override onlySubOwner(_subId) {... */\n      pop\n      pop\n      pop\n      jump\t// out\n        /* \"#utility.yul\":7:96   */\n    tag_148:\n        /* \"#utility.yul\":43:50   */\n      0x00\n        /* \"#utility.yul\":83:89   */\n      0xffff\n        /* \"#utility.yul\":76:81   */\n      dup3\n        /* \"#utility.yul\":72:90   */\n      and\n        /* \"#utility.yul\":61:90   */\n      swap1\n      pop\n        /* \"#utility.yul\":7:96   */\n      swap2\n      swap1\n      pop\n      jump\t// out\n        /* \"#utility.yul\":102:217   */\n    tag_149:\n        /* \"#utility.yul\":187:210   */\n      tag_218\n        /* \"#utility.yul\":204:209   */\n      dup2\n        /* \"#utility.yul\":187:210   */\n      tag_148\n      jump\t// in\n    tag_218:\n        /* \"#utility.yul\":182:185   */\n      dup3\n        /* \"#utility.yul\":175:211   */\n      mstore\n        /* \"#utility.yul\":102:217   */\n      pop\n      pop\n      jump\t// out\n        /* \"#utility.yul\":223:316   */\n    tag_150:\n        /* \"#utility.yul\":259:266   */\n      0x00\n        /* \"#utility.yul\":299:309   */\n      0xffffffff\n        /* \"#utility.yul\":292:297   */\n      dup3\n        /* \"#utility.yul\":288:310   */\n      and\n        /* \"#utility.yul\":277:310   */\n      swap1\n      pop\n        /* \"#utility.yul\":223:316   */\n      swap2\n      swap1\n      pop\n      jump\t// out\n        /* \"#utility.yul\":322:437   */\n    tag_151:\n        /* \"#utility.yul\":407:430   */\n      tag_221\n        /* \"#utility.yul\":424:429   */\n      dup2\n        /* \"#utility.yul\":407:430   */\n      tag_150\n      jump\t// in\n    tag_221:\n        /* \"#utility.yul\":402:405   */\n      dup3\n        /* \"#utility.yul\":395:431   */\n      mstore\n        /* \"#utility.yul\":322:437   */\n      pop\n      pop\n      jump\t// out\n        /* \"#utility.yul\":443:557   */\n    tag_152:\n        /* \"#utility.yul\":510:516   */\n      0x00\n        /* \"#utility.yul\":544:549   */\n      dup2\n        /* \"#utility.yul\":538:550   */\n      mload\n        /* \"#utility.yul\":528:550   */\n      swap1\n      pop\n        /* \"#utility.yul\":443:557   */\n      swap2\n      swap1\n      pop\n      jump\t// out\n        /* \"#utility.yul\":563:747   */\n    tag_153:\n        /* \"#utility.yul\":662:673   */\n      0x00\n        /* \"#utility.yul\":696:702   */\n      dup3\n        /* \"#utility.yul\":691:694   */\n      dup3\n        /* \"#utility.yul\":684:703   */\n      mstore\n        /* \"#utility.yul\":736:740   */\n      0x20\n        /* \"#utility.yul\":731:734   */\n      dup3\n        /* \"#utility.yul\":727:741   */\n      add\n        /* \"#utility.yul\":712:741   */\n      swap1\n      pop\n        /* \"#utility.yul\":563:747   */\n      swap3\n      swap2\n      pop\n      pop\n      jump\t// out\n        /* \"#utility.yul\":753:885   */\n    tag_154:\n        /* \"#utility.yul\":820:824   */\n      0x00\n        /* \"#utility.yul\":843:846   */\n      dup2\n        /* \"#utility.yul\":835:846   */\n      swap1\n      pop\n        /* \"#utility.yul\":873:877   */\n      0x20\n        /* \"#utility.yul\":868:871   */\n      dup3\n        /* \"#utility.yul\":864:878   */\n      add\n        /* \"#utility.yul\":856:878   */\n      swap1\n      pop\n        /* \"#utility.yul\":753:885   */\n      swap2\n      swap1\n      pop\n      jump\t// out\n        /* \"#utility.yul\":891:968   */\n    tag_155:\n        /* \"#utility.yul\":928:935   */\n      0x00\n        /* \"#utility.yul\":957:962   */\n      dup2\n        /* \"#utility.yul\":946:962   */\n      swap1\n      pop\n        /* \"#utility.yul\":891:968   */\n      swap2\n      swap1\n      pop\n      jump\t// out\n        /* \"#utility.yul\":974:1082   */\n    tag_156:\n        /* \"#utility.yul\":1051:1075   */\n      tag_227\n        /* \"#utility.yul\":1069:1074   */\n      dup2\n        /* \"#utility.yul\":1051:1075   */\n      tag_155\n      jump\t// in\n    tag_227:\n        /* \"#utility.yul\":1046:1049   */\n      dup3\n        /* \"#utility.yul\":1039:1076   */\n      mstore\n        /* \"#utility.yul\":974:1082   */\n      pop\n      pop\n      jump\t// out\n        /* \"#utility.yul\":1088:1267   */\n    tag_157:\n        /* \"#utility.yul\":1157:1167   */\n      0x00\n        /* \"#utility.yul\":1178:1224   */\n      tag_229\n        /* \"#utility.yul\":1220:1223   */\n      dup4\n        /* \"#utility.yul\":1212:1218   */\n      dup4\n        /* \"#utility.yul\":1178:1224   */\n      tag_156\n      jump\t// in\n    tag_229:\n        /* \"#utility.yul\":1256:1260   */\n      0x20\n        /* \"#utility.yul\":1251:1254   */\n      dup4\n        /* \"#utility.yul\":1247:1261   */\n      add\n        /* \"#utility.yul\":1233:1261   */\n      swap1\n      pop\n        /* \"#utility.yul\":1088:1267   */\n      swap3\n      swap2\n      pop\n      pop\n      jump\t// out\n        /* \"#utility.yul\":1273:1386   */\n    tag_158:\n        /* \"#utility.yul\":1343:1347   */\n      0x00\n        /* \"#utility.yul\":1375:1379   */\n      0x20\n        /* \"#utility.yul\":1370:1373   */\n      dup3\n        /* \"#utility.yul\":1366:1380   */\n      add\n        /* \"#utility.yul\":1358:1380   */\n      swap1\n      pop\n        /* \"#utility.yul\":1273:1386   */\n      swap2\n      swap1\n      pop\n      jump\t// out\n        /* \"#utility.yul\":1422:2154   */\n    tag_159:\n        /* \"#utility.yul\":1541:1544   */\n      0x00\n        /* \"#utility.yul\":1570:1624   */\n      tag_232\n        /* \"#utility.yul\":1618:1623   */\n      dup3\n        /* \"#utility.yul\":1570:1624   */\n      tag_152\n      jump\t// in\n    tag_232:\n        /* \"#utility.yul\":1640:1726   */\n      tag_233\n        /* \"#utility.yul\":1719:1725   */\n      dup2\n        /* \"#utility.yul\":1714:1717   */\n      dup6\n        /* \"#utility.yul\":1640:1726   */\n      tag_153\n      jump\t// in\n    tag_233:\n        /* \"#utility.yul\":1633:1726   */\n      swap4\n      pop\n        /* \"#utility.yul\":1750:1806   */\n      tag_234\n        /* \"#utility.yul\":1800:1805   */\n      dup4\n        /* \"#utility.yul\":1750:1806   */\n      tag_154\n      jump\t// in\n    tag_234:\n        /* \"#utility.yul\":1829:1836   */\n      dup1\n        /* \"#utility.yul\":1860:1861   */\n      0x00\n        /* \"#utility.yul\":1845:2129   */\n    tag_235:\n        /* \"#utility.yul\":1870:1876   */\n      dup4\n        /* \"#utility.yul\":1867:1868   */\n      dup2\n        /* \"#utility.yul\":1864:1877   */\n      lt\n        /* \"#utility.yul\":1845:2129   */\n      iszero\n      tag_237\n      jumpi\n        /* \"#utility.yul\":1946:1952   */\n      dup2\n        /* \"#utility.yul\":1940:1953   */\n      mload\n        /* \"#utility.yul\":1973:2036   */\n      tag_238\n        /* \"#utility.yul\":2032:2035   */\n      dup9\n        /* \"#utility.yul\":2017:2030   */\n      dup3\n        /* \"#utility.yul\":1973:2036   */\n      tag_157\n      jump\t// in\n    tag_238:\n        /* \"#utility.yul\":1966:2036   */\n      swap8\n      pop\n        /* \"#utility.yul\":2059:2119   */\n      tag_239\n        /* \"#utility.yul\":2112:2118   */\n      dup4\n        /* \"#utility.yul\":2059:2119   */\n      tag_158\n      jump\t// in\n    tag_239:\n        /* \"#utility.yul\":2049:2119   */\n      swap3\n      pop\n        /* \"#utility.yul\":1905:2129   */\n      pop\n        /* \"#utility.yul\":1892:1893   */\n      0x01\n        /* \"#utility.yul\":1889:1890   */\n      dup2\n        /* \"#utility.yul\":1885:1894   */\n      add\n        /* \"#utility.yul\":1880:1894   */\n      swap1\n      pop\n        /* \"#utility.yul\":1845:2129   */\n      jump(tag_235)\n    tag_237:\n        /* \"#utility.yul\":1849:1863   */\n      pop\n        /* \"#utility.yul\":2145:2148   */\n      dup6\n        /* \"#utility.yul\":2138:2148   */\n      swap4\n      pop\n        /* \"#utility.yul\":1546:2154   */\n      pop\n      pop\n      pop\n        /* \"#utility.yul\":1422:2154   */\n      swap3\n      swap2\n      pop\n      pop\n      jump\t// out\n        /* \"#utility.yul\":2160:2745   */\n    tag_21:\n        /* \"#utility.yul\":2355:2359   */\n      0x00\n        /* \"#utility.yul\":2393:2395   */\n      0x60\n        /* \"#utility.yul\":2382:2391   */\n      dup3\n        /* \"#utility.yul\":2378:2396   */\n      add\n        /* \"#utility.yul\":2370:2396   */\n      swap1\n      pop\n        /* \"#utility.yul\":2406:2475   */\n      tag_241\n        /* \"#utility.yul\":2472:2473   */\n      0x00\n        /* \"#utility.yul\":2461:2470   */\n      dup4\n        /* \"#utility.yul\":2457:2474   */\n      add\n        /* \"#utility.yul\":2448:2454   */\n      dup7\n        /* \"#utility.yul\":2406:2475   */\n      tag_149\n      jump\t// in\n    tag_241:\n        /* \"#utility.yul\":2485:2555   */\n      tag_242\n        /* \"#utility.yul\":2551:2553   */\n      0x20\n        /* \"#utility.yul\":2540:2549   */\n      dup4\n        /* \"#utility.yul\":2536:2554   */\n      add\n        /* \"#utility.yul\":2527:2533   */\n      dup6\n        /* \"#utility.yul\":2485:2555   */\n      tag_151\n      jump\t// in\n    tag_242:\n        /* \"#utility.yul\":2602:2611   */\n      dup2\n        /* \"#utility.yul\":2596:2600   */\n      dup2\n        /* \"#utility.yul\":2592:2612   */\n      sub\n        /* \"#utility.yul\":2587:2589   */\n      0x40\n        /* \"#utility.yul\":2576:2585   */\n      dup4\n        /* \"#utility.yul\":2572:2590   */\n      add\n        /* \"#utility.yul\":2565:2613   */\n      mstore\n        /* \"#utility.yul\":2630:2738   */\n      tag_243\n        /* \"#utility.yul\":2733:2737   */\n      dup2\n        /* \"#utility.yul\":2724:2730   */\n      dup5\n        /* \"#utility.yul\":2630:2738   */\n      tag_159\n      jump\t// in\n    tag_243:\n        /* \"#utility.yul\":2622:2738   */\n      swap1\n      pop\n        /* \"#utility.yul\":2160:2745   */\n      swap5\n      swap4\n      pop\n      pop\n      pop\n      pop\n      jump\t// out\n        /* \"#utility.yul\":2832:2949   */\n    tag_161:\n        /* \"#utility.yul\":2941:2942   */\n      0x00\n        /* \"#utility.yul\":2938:2939   */\n      dup1\n        /* \"#utility.yul\":2931:2943   */\n      revert\n        /* \"#utility.yul\":3078:3179   */\n    tag_163:\n        /* \"#utility.yul\":3114:3121   */\n      0x00\n        /* \"#utility.yul\":3154:3172   */\n      0xffffffffffffffff\n        /* \"#utility.yul\":3147:3152   */\n      dup3\n        /* \"#utility.yul\":3143:3173   */\n      and\n        /* \"#utility.yul\":3132:3173   */\n      swap1\n      pop\n        /* \"#utility.yul\":3078:3179   */\n      swap2\n      swap1\n      pop\n      jump\t// out\n        /* \"#utility.yul\":3185:3305   */\n    tag_164:\n        /* \"#utility.yul\":3257:3280   */\n      tag_249\n        /* \"#utility.yul\":3274:3279   */\n      dup2\n        /* \"#utility.yul\":3257:3280   */\n      tag_163\n      jump\t// in\n    tag_249:\n        /* \"#utility.yul\":3250:3255   */\n      dup2\n        /* \"#utility.yul\":3247:3281   */\n      eq\n        /* \"#utility.yul\":3237:3299   */\n      tag_250\n      jumpi\n        /* \"#utility.yul\":3295:3296   */\n      0x00\n        /* \"#utility.yul\":3292:3293   */\n      dup1\n        /* \"#utility.yul\":3285:3297   */\n      revert\n        /* \"#utility.yul\":3237:3299   */\n    tag_250:\n        /* \"#utility.yul\":3185:3305   */\n      pop\n      jump\t// out\n        /* \"#utility.yul\":3311:3448   */\n    tag_165:\n        /* \"#utility.yul\":3356:3361   */\n      0x00\n        /* \"#utility.yul\":3394:3400   */\n      dup2\n        /* \"#utility.yul\":3381:3401   */\n      calldataload\n        /* \"#utility.yul\":3372:3401   */\n      swap1\n      pop\n        /* \"#utility.yul\":3410:3442   */\n      tag_252\n        /* \"#utility.yul\":3436:3441   */\n      dup2\n        /* \"#utility.yul\":3410:3442   */\n      tag_164\n      jump\t// in\n    tag_252:\n        /* \"#utility.yul\":3311:3448   */\n      swap3\n      swap2\n      pop\n      pop\n      jump\t// out\n        /* \"#utility.yul\":3454:3580   */\n    tag_166:\n        /* \"#utility.yul\":3491:3498   */\n      0x00\n        /* \"#utility.yul\":3531:3573   */\n      0xffffffffffffffffffffffffffffffffffffffff\n        /* \"#utility.yul\":3524:3529   */\n      dup3\n        /* \"#utility.yul\":3520:3574   */\n      and\n        /* \"#utility.yul\":3509:3574   */\n      swap1\n      pop\n        /* \"#utility.yul\":3454:3580   */\n      swap2\n      swap1\n      pop\n      jump\t// out\n        /* \"#utility.yul\":3586:3682   */\n    tag_167:\n        /* \"#utility.yul\":3623:3630   */\n      0x00\n        /* \"#utility.yul\":3652:3676   */\n      tag_255\n        /* \"#utility.yul\":3670:3675   */\n      dup3\n        /* \"#utility.yul\":3652:3676   */\n      tag_166\n      jump\t// in\n    tag_255:\n        /* \"#utility.yul\":3641:3676   */\n      swap1\n      pop\n        /* \"#utility.yul\":3586:3682   */\n      swap2\n      swap1\n      pop\n      jump\t// out\n        /* \"#utility.yul\":3688:3810   */\n    tag_168:\n        /* \"#utility.yul\":3761:3785   */\n      tag_257\n        /* \"#utility.yul\":3779:3784   */\n      dup2\n        /* \"#utility.yul\":3761:3785   */\n      tag_167\n      jump\t// in\n    tag_257:\n        /* \"#utility.yul\":3754:3759   */\n      dup2\n        /* \"#utility.yul\":3751:3786   */\n      eq\n        /* \"#utility.yul\":3741:3804   */\n      tag_258\n      jumpi\n        /* \"#utility.yul\":3800:3801   */\n      0x00\n        /* \"#utility.yul\":3797:3798   */\n      dup1\n        /* \"#utility.yul\":3790:3802   */\n      revert\n        /* \"#utility.yul\":3741:3804   */\n    tag_258:\n        /* \"#utility.yul\":3688:3810   */\n      pop\n      jump\t// out\n        /* \"#utility.yul\":3816:3955   */\n    tag_169:\n        /* \"#utility.yul\":3862:3867   */\n      0x00\n        /* \"#utility.yul\":3900:3906   */\n      dup2\n        /* \"#utility.yul\":3887:3907   */\n      calldataload\n        /* \"#utility.yul\":3878:3907   */\n      swap1\n      pop\n        /* \"#utility.yul\":3916:3949   */\n      tag_260\n        /* \"#utility.yul\":3943:3948   */\n      dup2\n        /* \"#utility.yul\":3916:3949   */\n      tag_168\n      jump\t// in\n    tag_260:\n        /* \"#utility.yul\":3816:3955   */\n      swap3\n      swap2\n      pop\n      pop\n      jump\t// out\n        /* \"#utility.yul\":3961:4433   */\n    tag_24:\n        /* \"#utility.yul\":4028:4034   */\n      0x00\n        /* \"#utility.yul\":4036:4042   */\n      dup1\n        /* \"#utility.yul\":4085:4087   */\n      0x40\n        /* \"#utility.yul\":4073:4082   */\n      dup4\n        /* \"#utility.yul\":4064:4071   */\n      dup6\n        /* \"#utility.yul\":4060:4083   */\n      sub\n        /* \"#utility.yul\":4056:4088   */\n      slt\n        /* \"#utility.yul\":4053:4172   */\n      iszero\n      tag_262\n      jumpi\n        /* \"#utility.yul\":4091:4170   */\n      tag_263\n      tag_161\n      jump\t// in\n    tag_263:\n        /* \"#utility.yul\":4053:4172   */\n    tag_262:\n        /* \"#utility.yul\":4211:4212   */\n      0x00\n        /* \"#utility.yul\":4236:4288   */\n      tag_264\n        /* \"#utility.yul\":4280:4287   */\n      dup6\n        /* \"#utility.yul\":4271:4277   */\n      dup3\n        /* \"#utility.yul\":4260:4269   */\n      dup7\n        /* \"#utility.yul\":4256:4278   */\n      add\n        /* \"#utility.yul\":4236:4288   */\n      tag_165\n      jump\t// in\n    tag_264:\n        /* \"#utility.yul\":4226:4288   */\n      swap3\n      pop\n        /* \"#utility.yul\":4182:4298   */\n      pop\n        /* \"#utility.yul\":4337:4339   */\n      0x20\n        /* \"#utility.yul\":4363:4416   */\n      tag_265\n        /* \"#utility.yul\":4408:4415   */\n      dup6\n        /* \"#utility.yul\":4399:4405   */\n      dup3\n        /* \"#utility.yul\":4388:4397   */\n      dup7\n        /* \"#utility.yul\":4384:4406   */\n      add\n        /* \"#utility.yul\":4363:4416   */\n      tag_169\n      jump\t// in\n    tag_265:\n        /* \"#utility.yul\":4353:4416   */\n      swap2\n      pop\n        /* \"#utility.yul\":4308:4426   */\n      pop\n        /* \"#utility.yul\":3961:4433   */\n      swap3\n      pop\n      swap3\n      swap1\n      pop\n      jump\t// out\n        /* \"#utility.yul\":4439:4548   */\n    tag_170:\n        /* \"#utility.yul\":4475:4482   */\n      0x00\n        /* \"#utility.yul\":4515:4541   */\n      0xffffffffffffffffffffffff\n        /* \"#utility.yul\":4508:4513   */\n      dup3\n        /* \"#utility.yul\":4504:4542   */\n      and\n        /* \"#utility.yul\":4493:4542   */\n      swap1\n      pop\n        /* \"#utility.yul\":4439:4548   */\n      swap2\n      swap1\n      pop\n      jump\t// out\n        /* \"#utility.yul\":4554:4669   */\n    tag_171:\n        /* \"#utility.yul\":4639:4662   */\n      tag_268\n        /* \"#utility.yul\":4656:4661   */\n      dup2\n        /* \"#utility.yul\":4639:4662   */\n      tag_170\n      jump\t// in\n    tag_268:\n        /* \"#utility.yul\":4634:4637   */\n      dup3\n        /* \"#utility.yul\":4627:4663   */\n      mstore\n        /* \"#utility.yul\":4554:4669   */\n      pop\n      pop\n      jump\t// out\n        /* \"#utility.yul\":4675:4893   */\n    tag_29:\n        /* \"#utility.yul\":4766:4770   */\n      0x00\n        /* \"#utility.yul\":4804:4806   */\n      0x20\n        /* \"#utility.yul\":4793:4802   */\n      dup3\n        /* \"#utility.yul\":4789:4807   */\n      add\n        /* \"#utility.yul\":4781:4807   */\n      swap1\n      pop\n        /* \"#utility.yul\":4817:4886   */\n      tag_270\n        /* \"#utility.yul\":4883:4884   */\n      0x00\n        /* \"#utility.yul\":4872:4881   */\n      dup4\n        /* \"#utility.yul\":4868:4885   */\n      add\n        /* \"#utility.yul\":4859:4865   */\n      dup5\n        /* \"#utility.yul\":4817:4886   */\n      tag_171\n      jump\t// in\n    tag_270:\n        /* \"#utility.yul\":4675:4893   */\n      swap3\n      swap2\n      pop\n      pop\n      jump\t// out\n        /* \"#utility.yul\":4899:5021   */\n    tag_172:\n        /* \"#utility.yul\":4972:4996   */\n      tag_272\n        /* \"#utility.yul\":4990:4995   */\n      dup2\n        /* \"#utility.yul\":4972:4996   */\n      tag_155\n      jump\t// in\n    tag_272:\n        /* \"#utility.yul\":4965:4970   */\n      dup2\n        /* \"#utility.yul\":4962:4997   */\n      eq\n        /* \"#utility.yul\":4952:5015   */\n      tag_273\n      jumpi\n        /* \"#utility.yul\":5011:5012   */\n      0x00\n        /* \"#utility.yul\":5008:5009   */\n      dup1\n        /* \"#utility.yul\":5001:5013   */\n      revert\n        /* \"#utility.yul\":4952:5015   */\n    tag_273:\n        /* \"#utility.yul\":4899:5021   */\n      pop\n      jump\t// out\n        /* \"#utility.yul\":5027:5166   */\n    tag_173:\n        /* \"#utility.yul\":5073:5078   */\n      0x00\n        /* \"#utility.yul\":5111:5117   */\n      dup2\n        /* \"#utility.yul\":5098:5118   */\n      calldataload\n        /* \"#utility.yul\":5089:5118   */\n      swap1\n      pop\n        /* \"#utility.yul\":5127:5160   */\n      tag_275\n        /* \"#utility.yul\":5154:5159   */\n      dup2\n        /* \"#utility.yul\":5127:5160   */\n      tag_172\n      jump\t// in\n    tag_275:\n        /* \"#utility.yul\":5027:5166   */\n      swap3\n      swap2\n      pop\n      pop\n      jump\t// out\n        /* \"#utility.yul\":5172:5292   */\n    tag_174:\n        /* \"#utility.yul\":5244:5267   */\n      tag_277\n        /* \"#utility.yul\":5261:5266   */\n      dup2\n        /* \"#utility.yul\":5244:5267   */\n      tag_148\n      jump\t// in\n    tag_277:\n        /* \"#utility.yul\":5237:5242   */\n      dup2\n        /* \"#utility.yul\":5234:5268   */\n      eq\n        /* \"#utility.yul\":5224:5286   */\n      tag_278\n      jumpi\n        /* \"#utility.yul\":5282:5283   */\n      0x00\n        /* \"#utility.yul\":5279:5280   */\n      dup1\n        /* \"#utility.yul\":5272:5284   */\n      revert\n        /* \"#utility.yul\":5224:5286   */\n    tag_278:\n        /* \"#utility.yul\":5172:5292   */\n      pop\n      jump\t// out\n        /* \"#utility.yul\":5298:5435   */\n    tag_175:\n        /* \"#utility.yul\":5343:5348   */\n      0x00\n        /* \"#utility.yul\":5381:5387   */\n      dup2\n        /* \"#utility.yul\":5368:5388   */\n      calldataload\n        /* \"#utility.yul\":5359:5388   */\n      swap1\n      pop\n        /* \"#utility.yul\":5397:5429   */\n      tag_280\n        /* \"#utility.yul\":5423:5428   */\n      dup2\n        /* \"#utility.yul\":5397:5429   */\n      tag_174\n      jump\t// in\n    tag_280:\n        /* \"#utility.yul\":5298:5435   */\n      swap3\n      swap2\n      pop\n      pop\n      jump\t// out\n        /* \"#utility.yul\":5441:5561   */\n    tag_176:\n        /* \"#utility.yul\":5513:5536   */\n      tag_282\n        /* \"#utility.yul\":5530:5535   */\n      dup2\n        /* \"#utility.yul\":5513:5536   */\n      tag_150\n      jump\t// in\n    tag_282:\n        /* \"#utility.yul\":5506:5511   */\n      dup2\n        /* \"#utility.yul\":5503:5537   */\n      eq\n        /* \"#utility.yul\":5493:5555   */\n      tag_283\n      jumpi\n        /* \"#utility.yul\":5551:5552   */\n      0x00\n        /* \"#utility.yul\":5548:5549   */\n      dup1\n        /* \"#utility.yul\":5541:5553   */\n      revert\n        /* \"#utility.yul\":5493:5555   */\n    tag_283:\n        /* \"#utility.yul\":5441:5561   */\n      pop\n      jump\t// out\n        /* \"#utility.yul\":5567:5704   */\n    tag_177:\n        /* \"#utility.yul\":5612:5617   */\n      0x00\n        /* \"#utility.yul\":5650:5656   */\n      dup2\n        /* \"#utility.yul\":5637:5657   */\n      calldataload\n        /* \"#utility.yul\":5628:5657   */\n      swap1\n      pop\n        /* \"#utility.yul\":5666:5698   */\n      tag_285\n        /* \"#utility.yul\":5692:5697   */\n      dup2\n        /* \"#utility.yul\":5666:5698   */\n      tag_176\n      jump\t// in\n    tag_285:\n        /* \"#utility.yul\":5567:5704   */\n      swap3\n      swap2\n      pop\n      pop\n      jump\t// out\n        /* \"#utility.yul\":5710:6613   */\n    tag_32:\n        /* \"#utility.yul\":5801:5807   */\n      0x00\n        /* \"#utility.yul\":5809:5815   */\n      dup1\n        /* \"#utility.yul\":5817:5823   */\n      0x00\n        /* \"#utility.yul\":5825:5831   */\n      dup1\n        /* \"#utility.yul\":5833:5839   */\n      0x00\n        /* \"#utility.yul\":5882:5885   */\n      0xa0\n        /* \"#utility.yul\":5870:5879   */\n      dup7\n        /* \"#utility.yul\":5861:5868   */\n      dup9\n        /* \"#utility.yul\":5857:5880   */\n      sub\n        /* \"#utility.yul\":5853:5886   */\n      slt\n        /* \"#utility.yul\":5850:5970   */\n      iszero\n      tag_287\n      jumpi\n        /* \"#utility.yul\":5889:5968   */\n      tag_288\n      tag_161\n      jump\t// in\n    tag_288:\n        /* \"#utility.yul\":5850:5970   */\n    tag_287:\n        /* \"#utility.yul\":6009:6010   */\n      0x00\n        /* \"#utility.yul\":6034:6087   */\n      tag_289\n        /* \"#utility.yul\":6079:6086   */\n      dup9\n        /* \"#utility.yul\":6070:6076   */\n      dup3\n        /* \"#utility.yul\":6059:6068   */\n      dup10\n        /* \"#utility.yul\":6055:6077   */\n      add\n        /* \"#utility.yul\":6034:6087   */\n      tag_173\n      jump\t// in\n    tag_289:\n        /* \"#utility.yul\":6024:6087   */\n      swap6\n      pop\n        /* \"#utility.yul\":5980:6097   */\n      pop\n        /* \"#utility.yul\":6136:6138   */\n      0x20\n        /* \"#utility.yul\":6162:6214   */\n      tag_290\n        /* \"#utility.yul\":6206:6213   */\n      dup9\n        /* \"#utility.yul\":6197:6203   */\n      dup3\n        /* \"#utility.yul\":6186:6195   */\n      dup10\n        /* \"#utility.yul\":6182:6204   */\n      add\n        /* \"#utility.yul\":6162:6214   */\n      tag_165\n      jump\t// in\n    tag_290:\n        /* \"#utility.yul\":6152:6214   */\n      swap5\n      pop\n        /* \"#utility.yul\":6107:6224   */\n      pop\n        /* \"#utility.yul\":6263:6265   */\n      0x40\n        /* \"#utility.yul\":6289:6341   */\n      tag_291\n        /* \"#utility.yul\":6333:6340   */\n      dup9\n        /* \"#utility.yul\":6324:6330   */\n      dup3\n        /* \"#utility.yul\":6313:6322   */\n      dup10\n        /* \"#utility.yul\":6309:6331   */\n      add\n        /* \"#utility.yul\":6289:6341   */\n      tag_175\n      jump\t// in\n    tag_291:\n        /* \"#utility.yul\":6279:6341   */\n      swap4\n      pop\n        /* \"#utility.yul\":6234:6351   */\n      pop\n        /* \"#utility.yul\":6390:6392   */\n      0x60\n        /* \"#utility.yul\":6416:6468   */\n      tag_292\n        /* \"#utility.yul\":6460:6467   */\n      dup9\n        /* \"#utility.yul\":6451:6457   */\n      dup3\n        /* \"#utility.yul\":6440:6449   */\n      dup10\n        /* \"#utility.yul\":6436:6458   */\n      add\n        /* \"#utility.yul\":6416:6468   */\n      tag_177\n      jump\t// in\n    tag_292:\n        /* \"#utility.yul\":6406:6468   */\n      swap3\n      pop\n        /* \"#utility.yul\":6361:6478   */\n      pop\n        /* \"#utility.yul\":6517:6520   */\n      0x80\n        /* \"#utility.yul\":6544:6596   */\n      tag_293\n        /* \"#utility.yul\":6588:6595   */\n      dup9\n        /* \"#utility.yul\":6579:6585   */\n      dup3\n        /* \"#utility.yul\":6568:6577   */\n      dup10\n        /* \"#utility.yul\":6564:6586   */\n      add\n        /* \"#utility.yul\":6544:6596   */\n      tag_177\n      jump\t// in\n    tag_293:\n        /* \"#utility.yul\":6534:6596   */\n      swap2\n      pop\n        /* \"#utility.yul\":6488:6606   */\n      pop\n        /* \"#utility.yul\":5710:6613   */\n      swap3\n      swap6\n      pop\n      swap3\n      swap6\n      swap1\n      swap4\n      pop\n      jump\t// out\n        /* \"#utility.yul\":6619:6696   */\n    tag_178:\n        /* \"#utility.yul\":6656:6663   */\n      0x00\n        /* \"#utility.yul\":6685:6690   */\n      dup2\n        /* \"#utility.yul\":6674:6690   */\n      swap1\n      pop\n        /* \"#utility.yul\":6619:6696   */\n      swap2\n      swap1\n      pop\n      jump\t// out\n        /* \"#utility.yul\":6702:6820   */\n    tag_179:\n        /* \"#utility.yul\":6789:6813   */\n      tag_296\n        /* \"#utility.yul\":6807:6812   */\n      dup2\n        /* \"#utility.yul\":6789:6813   */\n      tag_178\n      jump\t// in\n    tag_296:\n        /* \"#utility.yul\":6784:6787   */\n      dup3\n        /* \"#utility.yul\":6777:6814   */\n      mstore\n        /* \"#utility.yul\":6702:6820   */\n      pop\n      pop\n      jump\t// out\n        /* \"#utility.yul\":6826:7048   */\n    tag_35:\n        /* \"#utility.yul\":6919:6923   */\n      0x00\n        /* \"#utility.yul\":6957:6959   */\n      0x20\n        /* \"#utility.yul\":6946:6955   */\n      dup3\n        /* \"#utility.yul\":6942:6960   */\n      add\n        /* \"#utility.yul\":6934:6960   */\n      swap1\n      pop\n        /* \"#utility.yul\":6970:7041   */\n      tag_298\n        /* \"#utility.yul\":7038:7039   */\n      0x00\n        /* \"#utility.yul\":7027:7036   */\n      dup4\n        /* \"#utility.yul\":7023:7040   */\n      add\n        /* \"#utility.yul\":7014:7020   */\n      dup5\n        /* \"#utility.yul\":6970:7041   */\n      tag_179\n      jump\t// in\n    tag_298:\n        /* \"#utility.yul\":6826:7048   */\n      swap3\n      swap2\n      pop\n      pop\n      jump\t// out\n        /* \"#utility.yul\":7054:7176   */\n    tag_180:\n        /* \"#utility.yul\":7127:7151   */\n      tag_300\n        /* \"#utility.yul\":7145:7150   */\n      dup2\n        /* \"#utility.yul\":7127:7151   */\n      tag_178\n      jump\t// in\n    tag_300:\n        /* \"#utility.yul\":7120:7125   */\n      dup2\n        /* \"#utility.yul\":7117:7152   */\n      eq\n        /* \"#utility.yul\":7107:7170   */\n      tag_301\n      jumpi\n        /* \"#utility.yul\":7166:7167   */\n      0x00\n        /* \"#utility.yul\":7163:7164   */\n      dup1\n        /* \"#utility.yul\":7156:7168   */\n      revert\n        /* \"#utility.yul\":7107:7170   */\n    tag_301:\n        /* \"#utility.yul\":7054:7176   */\n      pop\n      jump\t// out\n        /* \"#utility.yul\":7182:7321   */\n    tag_181:\n        /* \"#utility.yul\":7228:7233   */\n      0x00\n        /* \"#utility.yul\":7266:7272   */\n      dup2\n        /* \"#utility.yul\":7253:7273   */\n      calldataload\n        /* \"#utility.yul\":7244:7273   */\n      swap1\n      pop\n        /* \"#utility.yul\":7282:7315   */\n      tag_303\n        /* \"#utility.yul\":7309:7314   */\n      dup2\n        /* \"#utility.yul\":7282:7315   */\n      tag_180\n      jump\t// in\n    tag_303:\n        /* \"#utility.yul\":7182:7321   */\n      swap3\n      swap2\n      pop\n      pop\n      jump\t// out\n        /* \"#utility.yul\":7327:7801   */\n    tag_41:\n        /* \"#utility.yul\":7395:7401   */\n      0x00\n        /* \"#utility.yul\":7403:7409   */\n      dup1\n        /* \"#utility.yul\":7452:7454   */\n      0x40\n        /* \"#utility.yul\":7440:7449   */\n      dup4\n        /* \"#utility.yul\":7431:7438   */\n      dup6\n        /* \"#utility.yul\":7427:7450   */\n      sub\n        /* \"#utility.yul\":7423:7455   */\n      slt\n        /* \"#utility.yul\":7420:7539   */\n      iszero\n      tag_305\n      jumpi\n        /* \"#utility.yul\":7458:7537   */\n      tag_306\n      tag_161\n      jump\t// in\n    tag_306:\n        /* \"#utility.yul\":7420:7539   */\n    tag_305:\n        /* \"#utility.yul\":7578:7579   */\n      0x00\n        /* \"#utility.yul\":7603:7656   */\n      tag_307\n        /* \"#utility.yul\":7648:7655   */\n      dup6\n        /* \"#utility.yul\":7639:7645   */\n      dup3\n        /* \"#utility.yul\":7628:7637   */\n      dup7\n        /* \"#utility.yul\":7624:7646   */\n      add\n        /* \"#utility.yul\":7603:7656   */\n      tag_181\n      jump\t// in\n    tag_307:\n        /* \"#utility.yul\":7593:7656   */\n      swap3\n      pop\n        /* \"#utility.yul\":7549:7666   */\n      pop\n        /* \"#utility.yul\":7705:7707   */\n      0x20\n        /* \"#utility.yul\":7731:7784   */\n      tag_308\n        /* \"#utility.yul\":7776:7783   */\n      dup6\n        /* \"#utility.yul\":7767:7773   */\n      dup3\n        /* \"#utility.yul\":7756:7765   */\n      dup7\n        /* \"#utility.yul\":7752:7774   */\n      add\n        /* \"#utility.yul\":7731:7784   */\n      tag_169\n      jump\t// in\n    tag_308:\n        /* \"#utility.yul\":7721:7784   */\n      swap2\n      pop\n        /* \"#utility.yul\":7676:7794   */\n      pop\n        /* \"#utility.yul\":7327:7801   */\n      swap3\n      pop\n      swap3\n      swap1\n      pop\n      jump\t// out\n        /* \"#utility.yul\":7807:8134   */\n    tag_45:\n        /* \"#utility.yul\":7865:7871   */\n      0x00\n        /* \"#utility.yul\":7914:7916   */\n      0x20\n        /* \"#utility.yul\":7902:7911   */\n      dup3\n        /* \"#utility.yul\":7893:7900   */\n      dup5\n        /* \"#utility.yul\":7889:7912   */\n      sub\n        /* \"#utility.yul\":7885:7917   */\n      slt\n        /* \"#utility.yul\":7882:8001   */\n      iszero\n      tag_310\n      jumpi\n        /* \"#utility.yul\":7920:7999   */\n      tag_311\n      tag_161\n      jump\t// in\n    tag_311:\n        /* \"#utility.yul\":7882:8001   */\n    tag_310:\n        /* \"#utility.yul\":8040:8041   */\n      0x00\n        /* \"#utility.yul\":8065:8117   */\n      tag_312\n        /* \"#utility.yul\":8109:8116   */\n      dup5\n        /* \"#utility.yul\":8100:8106   */\n      dup3\n        /* \"#utility.yul\":8089:8098   */\n      dup6\n        /* \"#utility.yul\":8085:8107   */\n      add\n        /* \"#utility.yul\":8065:8117   */\n      tag_165\n      jump\t// in\n    tag_312:\n        /* \"#utility.yul\":8055:8117   */\n      swap2\n      pop\n        /* \"#utility.yul\":8011:8127   */\n      pop\n        /* \"#utility.yul\":7807:8134   */\n      swap3\n      swap2\n      pop\n      pop\n      jump\t// out\n        /* \"#utility.yul\":8140:8255   */\n    tag_182:\n        /* \"#utility.yul\":8225:8248   */\n      tag_314\n        /* \"#utility.yul\":8242:8247   */\n      dup2\n        /* \"#utility.yul\":8225:8248   */\n      tag_163\n      jump\t// in\n    tag_314:\n        /* \"#utility.yul\":8220:8223   */\n      dup3\n        /* \"#utility.yul\":8213:8249   */\n      mstore\n        /* \"#utility.yul\":8140:8255   */\n      pop\n      pop\n      jump\t// out\n        /* \"#utility.yul\":8261:8479   */\n    tag_53:\n        /* \"#utility.yul\":8352:8356   */\n      0x00\n        /* \"#utility.yul\":8390:8392   */\n      0x20\n        /* \"#utility.yul\":8379:8388   */\n      dup3\n        /* \"#utility.yul\":8375:8393   */\n      add\n        /* \"#utility.yul\":8367:8393   */\n      swap1\n      pop\n        /* \"#utility.yul\":8403:8472   */\n      tag_316\n        /* \"#utility.yul\":8469:8470   */\n      0x00\n        /* \"#utility.yul\":8458:8467   */\n      dup4\n        /* \"#utility.yul\":8454:8471   */\n      add\n        /* \"#utility.yul\":8445:8451   */\n      dup5\n        /* \"#utility.yul\":8403:8472   */\n      tag_182\n      jump\t// in\n    tag_316:\n        /* \"#utility.yul\":8261:8479   */\n      swap3\n      swap2\n      pop\n      pop\n      jump\t// out\n        /* \"#utility.yul\":8485:8603   */\n    tag_183:\n        /* \"#utility.yul\":8572:8596   */\n      tag_318\n        /* \"#utility.yul\":8590:8595   */\n      dup2\n        /* \"#utility.yul\":8572:8596   */\n      tag_167\n      jump\t// in\n    tag_318:\n        /* \"#utility.yul\":8567:8570   */\n      dup3\n        /* \"#utility.yul\":8560:8597   */\n      mstore\n        /* \"#utility.yul\":8485:8603   */\n      pop\n      pop\n      jump\t// out\n        /* \"#utility.yul\":8609:8723   */\n    tag_184:\n        /* \"#utility.yul\":8676:8682   */\n      0x00\n        /* \"#utility.yul\":8710:8715   */\n      dup2\n        /* \"#utility.yul\":8704:8716   */\n      mload\n        /* \"#utility.yul\":8694:8716   */\n      swap1\n      pop\n        /* \"#utility.yul\":8609:8723   */\n      swap2\n      swap1\n      pop\n      jump\t// out\n        /* \"#utility.yul\":8729:8913   */\n    tag_185:\n        /* \"#utility.yul\":8828:8839   */\n      0x00\n        /* \"#utility.yul\":8862:8868   */\n      dup3\n        /* \"#utility.yul\":8857:8860   */\n      dup3\n        /* \"#utility.yul\":8850:8869   */\n      mstore\n        /* \"#utility.yul\":8902:8906   */\n      0x20\n        /* \"#utility.yul\":8897:8900   */\n      dup3\n        /* \"#utility.yul\":8893:8907   */\n      add\n        /* \"#utility.yul\":8878:8907   */\n      swap1\n      pop\n        /* \"#utility.yul\":8729:8913   */\n      swap3\n      swap2\n      pop\n      pop\n      jump\t// out\n        /* \"#utility.yul\":8919:9051   */\n    tag_186:\n        /* \"#utility.yul\":8986:8990   */\n      0x00\n        /* \"#utility.yul\":9009:9012   */\n      dup2\n        /* \"#utility.yul\":9001:9012   */\n      swap1\n      pop\n        /* \"#utility.yul\":9039:9043   */\n      0x20\n        /* \"#utility.yul\":9034:9037   */\n      dup3\n        /* \"#utility.yul\":9030:9044   */\n      add\n        /* \"#utility.yul\":9022:9044   */\n      swap1\n      pop\n        /* \"#utility.yul\":8919:9051   */\n      swap2\n      swap1\n      pop\n      jump\t// out\n        /* \"#utility.yul\":9057:9165   */\n    tag_187:\n        /* \"#utility.yul\":9134:9158   */\n      tag_323\n        /* \"#utility.yul\":9152:9157   */\n      dup2\n        /* \"#utility.yul\":9134:9158   */\n      tag_167\n      jump\t// in\n    tag_323:\n        /* \"#utility.yul\":9129:9132   */\n      dup3\n        /* \"#utility.yul\":9122:9159   */\n      mstore\n        /* \"#utility.yul\":9057:9165   */\n      pop\n      pop\n      jump\t// out\n        /* \"#utility.yul\":9171:9350   */\n    tag_188:\n        /* \"#utility.yul\":9240:9250   */\n      0x00\n        /* \"#utility.yul\":9261:9307   */\n      tag_325\n        /* \"#utility.yul\":9303:9306   */\n      dup4\n        /* \"#utility.yul\":9295:9301   */\n      dup4\n        /* \"#utility.yul\":9261:9307   */\n      tag_187\n      jump\t// in\n    tag_325:\n        /* \"#utility.yul\":9339:9343   */\n      0x20\n        /* \"#utility.yul\":9334:9337   */\n      dup4\n        /* \"#utility.yul\":9330:9344   */\n      add\n        /* \"#utility.yul\":9316:9344   */\n      swap1\n      pop\n        /* \"#utility.yul\":9171:9350   */\n      swap3\n      swap2\n      pop\n      pop\n      jump\t// out\n        /* \"#utility.yul\":9356:9469   */\n    tag_189:\n        /* \"#utility.yul\":9426:9430   */\n      0x00\n        /* \"#utility.yul\":9458:9462   */\n      0x20\n        /* \"#utility.yul\":9453:9456   */\n      dup3\n        /* \"#utility.yul\":9449:9463   */\n      add\n        /* \"#utility.yul\":9441:9463   */\n      swap1\n      pop\n        /* \"#utility.yul\":9356:9469   */\n      swap2\n      swap1\n      pop\n      jump\t// out\n        /* \"#utility.yul\":9505:10237   */\n    tag_190:\n        /* \"#utility.yul\":9624:9627   */\n      0x00\n        /* \"#utility.yul\":9653:9707   */\n      tag_328\n        /* \"#utility.yul\":9701:9706   */\n      dup3\n        /* \"#utility.yul\":9653:9707   */\n      tag_184\n      jump\t// in\n    tag_328:\n        /* \"#utility.yul\":9723:9809   */\n      tag_329\n        /* \"#utility.yul\":9802:9808   */\n      dup2\n        /* \"#utility.yul\":9797:9800   */\n      dup6\n        /* \"#utility.yul\":9723:9809   */\n      tag_185\n      jump\t// in\n    tag_329:\n        /* \"#utility.yul\":9716:9809   */\n      swap4\n      pop\n        /* \"#utility.yul\":9833:9889   */\n      tag_330\n        /* \"#utility.yul\":9883:9888   */\n      dup4\n        /* \"#utility.yul\":9833:9889   */\n      tag_186\n      jump\t// in\n    tag_330:\n        /* \"#utility.yul\":9912:9919   */\n      dup1\n        /* \"#utility.yul\":9943:9944   */\n      0x00\n        /* \"#utility.yul\":9928:10212   */\n    tag_331:\n        /* \"#utility.yul\":9953:9959   */\n      dup4\n        /* \"#utility.yul\":9950:9951   */\n      dup2\n        /* \"#utility.yul\":9947:9960   */\n      lt\n        /* \"#utility.yul\":9928:10212   */\n      iszero\n      tag_333\n      jumpi\n        /* \"#utility.yul\":10029:10035   */\n      dup2\n        /* \"#utility.yul\":10023:10036   */\n      mload\n        /* \"#utility.yul\":10056:10119   */\n      tag_334\n        /* \"#utility.yul\":10115:10118   */\n      dup9\n        /* \"#utility.yul\":10100:10113   */\n      dup3\n        /* \"#utility.yul\":10056:10119   */\n      tag_188\n      jump\t// in\n    tag_334:\n        /* \"#utility.yul\":10049:10119   */\n      swap8\n      pop\n        /* \"#utility.yul\":10142:10202   */\n      tag_335\n        /* \"#utility.yul\":10195:10201   */\n      dup4\n        /* \"#utility.yul\":10142:10202   */\n      tag_189\n      jump\t// in\n    tag_335:\n        /* \"#utility.yul\":10132:10202   */\n      swap3\n      pop\n        /* \"#utility.yul\":9988:10212   */\n      pop\n        /* \"#utility.yul\":9975:9976   */\n      0x01\n        /* \"#utility.yul\":9972:9973   */\n      dup2\n        /* \"#utility.yul\":9968:9977   */\n      add\n        /* \"#utility.yul\":9963:9977   */\n      swap1\n      pop\n        /* \"#utility.yul\":9928:10212   */\n      jump(tag_331)\n    tag_333:\n        /* \"#utility.yul\":9932:9946   */\n      pop\n        /* \"#utility.yul\":10228:10231   */\n      dup6\n        /* \"#utility.yul\":10221:10231   */\n      swap4\n      pop\n        /* \"#utility.yul\":9629:10237   */\n      pop\n      pop\n      pop\n        /* \"#utility.yul\":9505:10237   */\n      swap3\n      swap2\n      pop\n      pop\n      jump\t// out\n        /* \"#utility.yul\":10243:10939   */\n    tag_61:\n        /* \"#utility.yul\":10466:10470   */\n      0x00\n        /* \"#utility.yul\":10504:10507   */\n      0x80\n        /* \"#utility.yul\":10493:10502   */\n      dup3\n        /* \"#utility.yul\":10489:10508   */\n      add\n        /* \"#utility.yul\":10481:10508   */\n      swap1\n      pop\n        /* \"#utility.yul\":10518:10587   */\n      tag_337\n        /* \"#utility.yul\":10584:10585   */\n      0x00\n        /* \"#utility.yul\":10573:10582   */\n      dup4\n        /* \"#utility.yul\":10569:10586   */\n      add\n        /* \"#utility.yul\":10560:10566   */\n      dup8\n        /* \"#utility.yul\":10518:10587   */\n      tag_171\n      jump\t// in\n    tag_337:\n        /* \"#utility.yul\":10597:10667   */\n      tag_338\n        /* \"#utility.yul\":10663:10665   */\n      0x20\n        /* \"#utility.yul\":10652:10661   */\n      dup4\n        /* \"#utility.yul\":10648:10666   */\n      add\n        /* \"#utility.yul\":10639:10645   */\n      dup7\n        /* \"#utility.yul\":10597:10667   */\n      tag_182\n      jump\t// in\n    tag_338:\n        /* \"#utility.yul\":10677:10749   */\n      tag_339\n        /* \"#utility.yul\":10745:10747   */\n      0x40\n        /* \"#utility.yul\":10734:10743   */\n      dup4\n        /* \"#utility.yul\":10730:10748   */\n      add\n        /* \"#utility.yul\":10721:10727   */\n      dup6\n        /* \"#utility.yul\":10677:10749   */\n      tag_183\n      jump\t// in\n    tag_339:\n        /* \"#utility.yul\":10796:10805   */\n      dup2\n        /* \"#utility.yul\":10790:10794   */\n      dup2\n        /* \"#utility.yul\":10786:10806   */\n      sub\n        /* \"#utility.yul\":10781:10783   */\n      0x60\n        /* \"#utility.yul\":10770:10779   */\n      dup4\n        /* \"#utility.yul\":10766:10784   */\n      add\n        /* \"#utility.yul\":10759:10807   */\n      mstore\n        /* \"#utility.yul\":10824:10932   */\n      tag_340\n        /* \"#utility.yul\":10927:10931   */\n      dup2\n        /* \"#utility.yul\":10918:10924   */\n      dup5\n        /* \"#utility.yul\":10824:10932   */\n      tag_190\n      jump\t// in\n    tag_340:\n        /* \"#utility.yul\":10816:10932   */\n      swap1\n      pop\n        /* \"#utility.yul\":10243:10939   */\n      swap6\n      swap5\n      pop\n      pop\n      pop\n      pop\n      pop\n      jump\t// out\n        /* \"#utility.yul\":10945:11065   */\n    tag_191:\n        /* \"#utility.yul\":11017:11040   */\n      tag_342\n        /* \"#utility.yul\":11034:11039   */\n      dup2\n        /* \"#utility.yul\":11017:11040   */\n      tag_170\n      jump\t// in\n    tag_342:\n        /* \"#utility.yul\":11010:11015   */\n      dup2\n        /* \"#utility.yul\":11007:11041   */\n      eq\n        /* \"#utility.yul\":10997:11059   */\n      tag_343\n      jumpi\n        /* \"#utility.yul\":11055:11056   */\n      0x00\n        /* \"#utility.yul\":11052:11053   */\n      dup1\n        /* \"#utility.yul\":11045:11057   */\n      revert\n        /* \"#utility.yul\":10997:11059   */\n    tag_343:\n        /* \"#utility.yul\":10945:11065   */\n      pop\n      jump\t// out\n        /* \"#utility.yul\":11071:11208   */\n    tag_192:\n        /* \"#utility.yul\":11116:11121   */\n      0x00\n        /* \"#utility.yul\":11154:11160   */\n      dup2\n        /* \"#utility.yul\":11141:11161   */\n      calldataload\n        /* \"#utility.yul\":11132:11161   */\n      swap1\n      pop\n        /* \"#utility.yul\":11170:11202   */\n      tag_345\n        /* \"#utility.yul\":11196:11201   */\n      dup2\n        /* \"#utility.yul\":11170:11202   */\n      tag_191\n      jump\t// in\n    tag_345:\n        /* \"#utility.yul\":11071:11208   */\n      swap3\n      swap2\n      pop\n      pop\n      jump\t// out\n        /* \"#utility.yul\":11214:11684   */\n    tag_64:\n        /* \"#utility.yul\":11280:11286   */\n      0x00\n        /* \"#utility.yul\":11288:11294   */\n      dup1\n        /* \"#utility.yul\":11337:11339   */\n      0x40\n        /* \"#utility.yul\":11325:11334   */\n      dup4\n        /* \"#utility.yul\":11316:11323   */\n      dup6\n        /* \"#utility.yul\":11312:11335   */\n      sub\n        /* \"#utility.yul\":11308:11340   */\n      slt\n        /* \"#utility.yul\":11305:11424   */\n      iszero\n      tag_347\n      jumpi\n        /* \"#utility.yul\":11343:11422   */\n      tag_348\n      tag_161\n      jump\t// in\n    tag_348:\n        /* \"#utility.yul\":11305:11424   */\n    tag_347:\n        /* \"#utility.yul\":11463:11464   */\n      0x00\n        /* \"#utility.yul\":11488:11540   */\n      tag_349\n        /* \"#utility.yul\":11532:11539   */\n      dup6\n        /* \"#utility.yul\":11523:11529   */\n      dup3\n        /* \"#utility.yul\":11512:11521   */\n      dup7\n        /* \"#utility.yul\":11508:11530   */\n      add\n        /* \"#utility.yul\":11488:11540   */\n      tag_165\n      jump\t// in\n    tag_349:\n        /* \"#utility.yul\":11478:11540   */\n      swap3\n      pop\n        /* \"#utility.yul\":11434:11550   */\n      pop\n        /* \"#utility.yul\":11589:11591   */\n      0x20\n        /* \"#utility.yul\":11615:11667   */\n      tag_350\n        /* \"#utility.yul\":11659:11666   */\n      dup6\n        /* \"#utility.yul\":11650:11656   */\n      dup3\n        /* \"#utility.yul\":11639:11648   */\n      dup7\n        /* \"#utility.yul\":11635:11657   */\n      add\n        /* \"#utility.yul\":11615:11667   */\n      tag_192\n      jump\t// in\n    tag_350:\n        /* \"#utility.yul\":11605:11667   */\n      swap2\n      pop\n        /* \"#utility.yul\":11560:11677   */\n      pop\n        /* \"#utility.yul\":11214:11684   */\n      swap3\n      pop\n      swap3\n      swap1\n      pop\n      jump\t// out\n        /* \"#utility.yul\":11690:11870   */\n    tag_72:\n        /* \"#utility.yul\":11738:11815   */\n      0x4e487b7100000000000000000000000000000000000000000000000000000000\n        /* \"#utility.yul\":11735:11736   */\n      0x00\n        /* \"#utility.yul\":11728:11816   */\n      mstore\n        /* \"#utility.yul\":11835:11839   */\n      0x41\n        /* \"#utility.yul\":11832:11833   */\n      0x04\n        /* \"#utility.yul\":11825:11840   */\n      mstore\n        /* \"#utility.yul\":11859:11863   */\n      0x24\n        /* \"#utility.yul\":11856:11857   */\n      0x00\n        /* \"#utility.yul\":11849:11864   */\n      revert\n        /* \"#utility.yul\":11876:12045   */\n    tag_193:\n        /* \"#utility.yul\":11960:11971   */\n      0x00\n        /* \"#utility.yul\":11994:12000   */\n      dup3\n        /* \"#utility.yul\":11989:11992   */\n      dup3\n        /* \"#utility.yul\":11982:12001   */\n      mstore\n        /* \"#utility.yul\":12034:12038   */\n      0x20\n        /* \"#utility.yul\":12029:12032   */\n      dup3\n        /* \"#utility.yul\":12025:12039   */\n      add\n        /* \"#utility.yul\":12010:12039   */\n      swap1\n      pop\n        /* \"#utility.yul\":11876:12045   */\n      swap3\n      swap2\n      pop\n      pop\n      jump\t// out\n        /* \"#utility.yul\":12051:12216   */\n    tag_194:\n        /* \"#utility.yul\":12191:12208   */\n      0x6e6f7420696d706c656d656e7465640000000000000000000000000000000000\n        /* \"#utility.yul\":12187:12188   */\n      0x00\n        /* \"#utility.yul\":12179:12185   */\n      dup3\n        /* \"#utility.yul\":12175:12189   */\n      add\n        /* \"#utility.yul\":12168:12209   */\n      mstore\n        /* \"#utility.yul\":12051:12216   */\n      pop\n      jump\t// out\n        /* \"#utility.yul\":12222:12588   */\n    tag_195:\n        /* \"#utility.yul\":12364:12367   */\n      0x00\n        /* \"#utility.yul\":12385:12452   */\n      tag_355\n        /* \"#utility.yul\":12449:12451   */\n      0x0f\n        /* \"#utility.yul\":12444:12447   */\n      dup4\n        /* \"#utility.yul\":12385:12452   */\n      tag_193\n      jump\t// in\n    tag_355:\n        /* \"#utility.yul\":12378:12452   */\n      swap2\n      pop\n        /* \"#utility.yul\":12461:12554   */\n      tag_356\n        /* \"#utility.yul\":12550:12553   */\n      dup3\n        /* \"#utility.yul\":12461:12554   */\n      tag_194\n      jump\t// in\n    tag_356:\n        /* \"#utility.yul\":12579:12581   */\n      0x20\n        /* \"#utility.yul\":12574:12577   */\n      dup3\n        /* \"#utility.yul\":12570:12582   */\n      add\n        /* \"#utility.yul\":12563:12582   */\n      swap1\n      pop\n        /* \"#utility.yul\":12222:12588   */\n      swap2\n      swap1\n      pop\n      jump\t// out\n        /* \"#utility.yul\":12594:13013   */\n    tag_76:\n        /* \"#utility.yul\":12760:12764   */\n      0x00\n        /* \"#utility.yul\":12798:12800   */\n      0x20\n        /* \"#utility.yul\":12787:12796   */\n      dup3\n        /* \"#utility.yul\":12783:12801   */\n      add\n        /* \"#utility.yul\":12775:12801   */\n      swap1\n      pop\n        /* \"#utility.yul\":12847:12856   */\n      dup2\n        /* \"#utility.yul\":12841:12845   */\n      dup2\n        /* \"#utility.yul\":12837:12857   */\n      sub\n        /* \"#utility.yul\":12833:12834   */\n      0x00\n        /* \"#utility.yul\":12822:12831   */\n      dup4\n        /* \"#utility.yul\":12818:12835   */\n      add\n        /* \"#utility.yul\":12811:12858   */\n      mstore\n        /* \"#utility.yul\":12875:13006   */\n      tag_358\n        /* \"#utility.yul\":13001:13005   */\n      dup2\n        /* \"#utility.yul\":12875:13006   */\n      tag_195\n      jump\t// in\n    tag_358:\n        /* \"#utility.yul\":12867:13006   */\n      swap1\n      pop\n        /* \"#utility.yul\":12594:13013   */\n      swap2\n      swap1\n      pop\n      jump\t// out\n        /* \"#utility.yul\":13019:13199   */\n    tag_196:\n        /* \"#utility.yul\":13067:13144   */\n      0x4e487b7100000000000000000000000000000000000000000000000000000000\n        /* \"#utility.yul\":13064:13065   */\n      0x00\n        /* \"#utility.yul\":13057:13145   */\n      mstore\n        /* \"#utility.yul\":13164:13168   */\n      0x11\n        /* \"#utility.yul\":13161:13162   */\n      0x04\n        /* \"#utility.yul\":13154:13169   */\n      mstore\n        /* \"#utility.yul\":13188:13192   */\n      0x24\n        /* \"#utility.yul\":13185:13186   */\n      0x00\n        /* \"#utility.yul\":13178:13193   */\n      revert\n        /* \"#utility.yul\":13205:13438   */\n    tag_80:\n        /* \"#utility.yul\":13244:13247   */\n      0x00\n        /* \"#utility.yul\":13267:13291   */\n      tag_361\n        /* \"#utility.yul\":13285:13290   */\n      dup3\n        /* \"#utility.yul\":13267:13291   */\n      tag_178\n      jump\t// in\n    tag_361:\n        /* \"#utility.yul\":13258:13291   */\n      swap2\n      pop\n        /* \"#utility.yul\":13313:13379   */\n      0xffffffffffffffffffffffffffffffffffffffffffffffffffffffffffffffff\n        /* \"#utility.yul\":13306:13311   */\n      dup3\n        /* \"#utility.yul\":13303:13380   */\n      sub\n        /* \"#utility.yul\":13300:13403   */\n      tag_362\n      jumpi\n        /* \"#utility.yul\":13383:13401   */\n      tag_363\n      tag_196\n      jump\t// in\n    tag_363:\n        /* \"#utility.yul\":13300:13403   */\n    tag_362:\n        /* \"#utility.yul\":13430:13431   */\n      0x01\n        /* \"#utility.yul\":13423:13428   */\n      dup3\n        /* \"#utility.yul\":13419:13432   */\n      add\n        /* \"#utility.yul\":13412:13432   */\n      swap1\n      pop\n        /* \"#utility.yul\":13205:13438   */\n      swap2\n      swap1\n      pop\n      jump\t// out\n        /* \"#utility.yul\":13444:14096   */\n    tag_83:\n        /* \"#utility.yul\":13643:13647   */\n      0x00\n        /* \"#utility.yul\":13681:13684   */\n      0xa0\n        /* \"#utility.yul\":13670:13679   */\n      dup3\n        /* \"#utility.yul\":13666:13685   */\n      add\n        /* \"#utility.yul\":13658:13685   */\n      swap1\n      pop\n        /* \"#utility.yul\":13695:13766   */\n      tag_365\n        /* \"#utility.yul\":13763:13764   */\n      0x00\n        /* \"#utility.yul\":13752:13761   */\n      dup4\n        /* \"#utility.yul\":13748:13765   */\n      add\n        /* \"#utility.yul\":13739:13745   */\n      dup9\n        /* \"#utility.yul\":13695:13766   */\n      tag_179\n      jump\t// in\n    tag_365:\n        /* \"#utility.yul\":13776:13848   */\n      tag_366\n        /* \"#utility.yul\":13844:13846   */\n      0x20\n        /* \"#utility.yul\":13833:13842   */\n      dup4\n        /* \"#utility.yul\":13829:13847   */\n      add\n        /* \"#utility.yul\":13820:13826   */\n      dup8\n        /* \"#utility.yul\":13776:13848   */\n      tag_179\n      jump\t// in\n    tag_366:\n        /* \"#utility.yul\":13858:13928   */\n      tag_367\n        /* \"#utility.yul\":13924:13926   */\n      0x40\n        /* \"#utility.yul\":13913:13922   */\n      dup4\n        /* \"#utility.yul\":13909:13927   */\n      add\n        /* \"#utility.yul\":13900:13906   */\n      dup7\n        /* \"#utility.yul\":13858:13928   */\n      tag_149\n      jump\t// in\n    tag_367:\n        /* \"#utility.yul\":13938:14008   */\n      tag_368\n        /* \"#utility.yul\":14004:14006   */\n      0x60\n        /* \"#utility.yul\":13993:14002   */\n      dup4\n        /* \"#utility.yul\":13989:14007   */\n      add\n        /* \"#utility.yul\":13980:13986   */\n      dup6\n        /* \"#utility.yul\":13938:14008   */\n      tag_151\n      jump\t// in\n    tag_368:\n        /* \"#utility.yul\":14018:14089   */\n      tag_369\n        /* \"#utility.yul\":14084:14087   */\n      0x80\n        /* \"#utility.yul\":14073:14082   */\n      dup4\n        /* \"#utility.yul\":14069:14088   */\n      add\n        /* \"#utility.yul\":14060:14066   */\n      dup5\n        /* \"#utility.yul\":14018:14089   */\n      tag_151\n      jump\t// in\n    tag_369:\n        /* \"#utility.yul\":13444:14096   */\n      swap7\n      swap6\n      pop\n      pop\n      pop\n      pop\n      pop\n      pop\n      jump\t// out\n        /* \"#utility.yul\":14102:14271   */\n    tag_197:\n        /* \"#utility.yul\":14242:14263   */\n      0x6e6f6e6578697374656e74207265717565737400000000000000000000000000\n        /* \"#utility.yul\":14238:14239   */\n      0x00\n        /* \"#utility.yul\":14230:14236   */\n      dup3\n        /* \"#utility.yul\":14226:14240   */\n      add\n        /* \"#utility.yul\":14219:14264   */\n      mstore\n        /* \"#utility.yul\":14102:14271   */\n      pop\n      jump\t// out\n        /* \"#utility.yul\":14277:14643   */\n    tag_198:\n        /* \"#utility.yul\":14419:14422   */\n      0x00\n        /* \"#utility.yul\":14440:14507   */\n      tag_372\n        /* \"#utility.yul\":14504:14506   */\n      0x13\n        /* \"#utility.yul\":14499:14502   */\n      dup4\n        /* \"#utility.yul\":14440:14507   */\n      tag_193\n      jump\t// in\n    tag_372:\n        /* \"#utility.yul\":14433:14507   */\n      swap2\n      pop\n        /* \"#utility.yul\":14516:14609   */\n      tag_373\n        /* \"#utility.yul\":14605:14608   */\n      dup3\n        /* \"#utility.yul\":14516:14609   */\n      tag_197\n      jump\t// in\n    tag_373:\n        /* \"#utility.yul\":14634:14636   */\n      0x20\n        /* \"#utility.yul\":14629:14632   */\n      dup3\n        /* \"#utility.yul\":14625:14637   */\n      add\n        /* \"#utility.yul\":14618:14637   */\n      swap1\n      pop\n        /* \"#utility.yul\":14277:14643   */\n      swap2\n      swap1\n      pop\n      jump\t// out\n        /* \"#utility.yul\":14649:15068   */\n    tag_89:\n        /* \"#utility.yul\":14815:14819   */\n      0x00\n        /* \"#utility.yul\":14853:14855   */\n      0x20\n        /* \"#utility.yul\":14842:14851   */\n      dup3\n        /* \"#utility.yul\":14838:14856   */\n      add\n        /* \"#utility.yul\":14830:14856   */\n      swap1\n      pop\n        /* \"#utility.yul\":14902:14911   */\n      dup2\n        /* \"#utility.yul\":14896:14900   */\n      dup2\n        /* \"#utility.yul\":14892:14912   */\n      sub\n        /* \"#utility.yul\":14888:14889   */\n      0x00\n        /* \"#utility.yul\":14877:14886   */\n      dup4\n        /* \"#utility.yul\":14873:14890   */\n      add\n        /* \"#utility.yul\":14866:14913   */\n      mstore\n        /* \"#utility.yul\":14930:15061   */\n      tag_375\n        /* \"#utility.yul\":15056:15060   */\n      dup2\n        /* \"#utility.yul\":14930:15061   */\n      tag_198\n      jump\t// in\n    tag_375:\n        /* \"#utility.yul\":14922:15061   */\n      swap1\n      pop\n        /* \"#utility.yul\":14649:15068   */\n      swap2\n      swap1\n      pop\n      jump\t// out\n        /* \"#utility.yul\":15074:15406   */\n    tag_97:\n        /* \"#utility.yul\":15195:15199   */\n      0x00\n        /* \"#utility.yul\":15233:15235   */\n      0x40\n        /* \"#utility.yul\":15222:15231   */\n      dup3\n        /* \"#utility.yul\":15218:15236   */\n      add\n        /* \"#utility.yul\":15210:15236   */\n      swap1\n      pop\n        /* \"#utility.yul\":15246:15317   */\n      tag_377\n        /* \"#utility.yul\":15314:15315   */\n      0x00\n        /* \"#utility.yul\":15303:15312   */\n      dup4\n        /* \"#utility.yul\":15299:15316   */\n      add\n        /* \"#utility.yul\":15290:15296   */\n      dup6\n        /* \"#utility.yul\":15246:15317   */\n      tag_179\n      jump\t// in\n    tag_377:\n        /* \"#utility.yul\":15327:15399   */\n      tag_378\n        /* \"#utility.yul\":15395:15397   */\n      0x20\n        /* \"#utility.yul\":15384:15393   */\n      dup4\n        /* \"#utility.yul\":15380:15398   */\n      add\n        /* \"#utility.yul\":15371:15377   */\n      dup5\n        /* \"#utility.yul\":15327:15399   */\n      tag_179\n      jump\t// in\n    tag_378:\n        /* \"#utility.yul\":15074:15406   */\n      swap4\n      swap3\n      pop\n      pop\n      pop\n      jump\t// out\n        /* \"#utility.yul\":15412:15592   */\n    tag_100:\n        /* \"#utility.yul\":15460:15537   */\n      0x4e487b7100000000000000000000000000000000000000000000000000000000\n        /* \"#utility.yul\":15457:15458   */\n      0x00\n        /* \"#utility.yul\":15450:15538   */\n      mstore\n        /* \"#utility.yul\":15557:15561   */\n      0x32\n        /* \"#utility.yul\":15554:15555   */\n      0x04\n        /* \"#utility.yul\":15547:15562   */\n      mstore\n        /* \"#utility.yul\":15581:15585   */\n      0x24\n        /* \"#utility.yul\":15578:15579   */\n      0x00\n        /* \"#utility.yul\":15571:15586   */\n      revert\n        /* \"#utility.yul\":15598:15712   */\n    tag_199:\n        /* \"#utility.yul\":15665:15671   */\n      0x00\n        /* \"#utility.yul\":15699:15704   */\n      dup2\n        /* \"#utility.yul\":15693:15705   */\n      mload\n        /* \"#utility.yul\":15683:15705   */\n      swap1\n      pop\n        /* \"#utility.yul\":15598:15712   */\n      swap2\n      swap1\n      pop\n      jump\t// out\n        /* \"#utility.yul\":15718:15902   */\n    tag_200:\n        /* \"#utility.yul\":15817:15828   */\n      0x00\n        /* \"#utility.yul\":15851:15857   */\n      dup3\n        /* \"#utility.yul\":15846:15849   */\n      dup3\n        /* \"#utility.yul\":15839:15858   */\n      mstore\n        /* \"#utility.yul\":15891:15895   */\n      0x20\n        /* \"#utility.yul\":15886:15889   */\n      dup3\n        /* \"#utility.yul\":15882:15896   */\n      add\n        /* \"#utility.yul\":15867:15896   */\n      swap1\n      pop\n        /* \"#utility.yul\":15718:15902   */\n      swap3\n      swap2\n      pop\n      pop\n      jump\t// out\n        /* \"#utility.yul\":15908:16040   */\n    tag_201:\n        /* \"#utility.yul\":15975:15979   */\n      0x00\n        /* \"#utility.yul\":15998:16001   */\n      dup2\n        /* \"#utility.yul\":15990:16001   */\n      swap1\n      pop\n        /* \"#utility.yul\":16028:16032   */\n      0x20\n        /* \"#utility.yul\":16023:16026   */\n      dup3\n        /* \"#utility.yul\":16019:16033   */\n      add\n        /* \"#utility.yul\":16011:16033   */\n      swap1\n      pop\n        /* \"#utility.yul\":15908:16040   */\n      swap2\n      swap1\n      pop\n      jump\t// out\n        /* \"#utility.yul\":16046:16154   */\n    tag_202:\n        /* \"#utility.yul\":16123:16147   */\n      tag_384\n        /* \"#utility.yul\":16141:16146   */\n      dup2\n        /* \"#utility.yul\":16123:16147   */\n      tag_178\n      jump\t// in\n    tag_384:\n        /* \"#utility.yul\":16118:16121   */\n      dup3\n        /* \"#utility.yul\":16111:16148   */\n      mstore\n        /* \"#utility.yul\":16046:16154   */\n      pop\n      pop\n      jump\t// out\n        /* \"#utility.yul\":16160:16339   */\n    tag_203:\n        /* \"#utility.yul\":16229:16239   */\n      0x00\n        /* \"#utility.yul\":16250:16296   */\n      tag_386\n        /* \"#utility.yul\":16292:16295   */\n      dup4\n        /* \"#utility.yul\":16284:16290   */\n      dup4\n        /* \"#utility.yul\":16250:16296   */\n      tag_202\n      jump\t// in\n    tag_386:\n        /* \"#utility.yul\":16328:16332   */\n      0x20\n        /* \"#utility.yul\":16323:16326   */\n      dup4\n        /* \"#utility.yul\":16319:16333   */\n      add\n        /* \"#utility.yul\":16305:16333   */\n      swap1\n      pop\n        /* \"#utility.yul\":16160:16339   */\n      swap3\n      swap2\n      pop\n      pop\n      jump\t// out\n        /* \"#utility.yul\":16345:16458   */\n    tag_204:\n        /* \"#utility.yul\":16415:16419   */\n      0x00\n        /* \"#utility.yul\":16447:16451   */\n      0x20\n        /* \"#utility.yul\":16442:16445   */\n      dup3\n        /* \"#utility.yul\":16438:16452   */\n      add\n        /* \"#utility.yul\":16430:16452   */\n      swap1\n      pop\n        /* \"#utility.yul\":16345:16458   */\n      swap2\n      swap1\n      pop\n      jump\t// out\n        /* \"#utility.yul\":16494:17226   */\n    tag_205:\n        /* \"#utility.yul\":16613:16616   */\n      0x00\n        /* \"#utility.yul\":16642:16696   */\n      tag_389\n        /* \"#utility.yul\":16690:16695   */\n      dup3\n        /* \"#utility.yul\":16642:16696   */\n      tag_199\n      jump\t// in\n    tag_389:\n        /* \"#utility.yul\":16712:16798   */\n      tag_390\n        /* \"#utility.yul\":16791:16797   */\n      dup2\n        /* \"#utility.yul\":16786:16789   */\n      dup6\n        /* \"#utility.yul\":16712:16798   */\n      tag_200\n      jump\t// in\n    tag_390:\n        /* \"#utility.yul\":16705:16798   */\n      swap4\n      pop\n        /* \"#utility.yul\":16822:16878   */\n      tag_391\n        /* \"#utility.yul\":16872:16877   */\n      dup4\n        /* \"#utility.yul\":16822:16878   */\n      tag_201\n      jump\t// in\n    tag_391:\n        /* \"#utility.yul\":16901:16908   */\n      dup1\n        /* \"#utility.yul\":16932:16933   */\n      0x00\n        /* \"#utility.yul\":16917:17201   */\n    tag_392:\n        /* \"#utility.yul\":16942:16948   */\n      dup4\n        /* \"#utility.yul\":16939:16940   */\n      dup2\n        /* \"#utility.yul\":16936:16949   */\n      lt\n        /* \"#utility.yul\":16917:17201   */\n      iszero\n      tag_394\n      jumpi\n        /* \"#utility.yul\":17018:17024   */\n      dup2\n        /* \"#utility.yul\":17012:17025   */\n      mload\n        /* \"#utility.yul\":17045:17108   */\n      tag_395\n        /* \"#utility.yul\":17104:17107   */\n      dup9\n        /* \"#utility.yul\":17089:17102   */\n      dup3\n        /* \"#utility.yul\":17045:17108   */\n      tag_203\n      jump\t// in\n    tag_395:\n        /* \"#utility.yul\":17038:17108   */\n      swap8\n      pop\n        /* \"#utility.yul\":17131:17191   */\n      tag_396\n        /* \"#utility.yul\":17184:17190   */\n      dup4\n        /* \"#utility.yul\":17131:17191   */\n      tag_204\n      jump\t// in\n    tag_396:\n        /* \"#utility.yul\":17121:17191   */\n      swap3\n      pop\n        /* \"#utility.yul\":16977:17201   */\n      pop\n        /* \"#utility.yul\":16964:16965   */\n      0x01\n        /* \"#utility.yul\":16961:16962   */\n      dup2\n        /* \"#utility.yul\":16957:16966   */\n      add\n        /* \"#utility.yul\":16952:16966   */\n      swap1\n      pop\n        /* \"#utility.yul\":16917:17201   */\n      jump(tag_392)\n    tag_394:\n        /* \"#utility.yul\":16921:16935   */\n      pop\n        /* \"#utility.yul\":17217:17220   */\n      dup6\n        /* \"#utility.yul\":17210:17220   */\n      swap4\n      pop\n        /* \"#utility.yul\":16618:17226   */\n      pop\n      pop\n      pop\n        /* \"#utility.yul\":16494:17226   */\n      swap3\n      swap2\n      pop\n      pop\n      jump\t// out\n        /* \"#utility.yul\":17232:17715   */\n    tag_103:\n        /* \"#utility.yul\":17403:17407   */\n      0x00\n        /* \"#utility.yul\":17441:17443   */\n      0x40\n        /* \"#utility.yul\":17430:17439   */\n      dup3\n        /* \"#utility.yul\":17426:17444   */\n      add\n        /* \"#utility.yul\":17418:17444   */\n      swap1\n      pop\n        /* \"#utility.yul\":17454:17525   */\n      tag_398\n        /* \"#utility.yul\":17522:17523   */\n      0x00\n        /* \"#utility.yul\":17511:17520   */\n      dup4\n        /* \"#utility.yul\":17507:17524   */\n      add\n        /* \"#utility.yul\":17498:17504   */\n      dup6\n        /* \"#utility.yul\":17454:17525   */\n      tag_179\n      jump\t// in\n    tag_398:\n        /* \"#utility.yul\":17572:17581   */\n      dup2\n        /* \"#utility.yul\":17566:17570   */\n      dup2\n        /* \"#utility.yul\":17562:17582   */\n      sub\n        /* \"#utility.yul\":17557:17559   */\n      0x20\n        /* \"#utility.yul\":17546:17555   */\n      dup4\n        /* \"#utility.yul\":17542:17560   */\n      add\n        /* \"#utility.yul\":17535:17583   */\n      mstore\n        /* \"#utility.yul\":17600:17708   */\n      tag_399\n        /* \"#utility.yul\":17703:17707   */\n      dup2\n        /* \"#utility.yul\":17694:17700   */\n      dup5\n        /* \"#utility.yul\":17600:17708   */\n      tag_205\n      jump\t// in\n    tag_399:\n        /* \"#utility.yul\":17592:17708   */\n      swap1\n      pop\n        /* \"#utility.yul\":17232:17715   */\n      swap4\n      swap3\n      pop\n      pop\n      pop\n      jump\t// out\n        /* \"#utility.yul\":17721:17819   */\n    tag_206:\n        /* \"#utility.yul\":17772:17778   */\n      0x00\n        /* \"#utility.yul\":17806:17811   */\n      dup2\n        /* \"#utility.yul\":17800:17812   */\n      mload\n        /* \"#utility.yul\":17790:17812   */\n      swap1\n      pop\n        /* \"#utility.yul\":17721:17819   */\n      swap2\n      swap1\n      pop\n      jump\t// out\n        /* \"#utility.yul\":17825:17972   */\n    tag_207:\n        /* \"#utility.yul\":17926:17937   */\n      0x00\n        /* \"#utility.yul\":17963:17966   */\n      dup2\n        /* \"#utility.yul\":17948:17966   */\n      swap1\n      pop\n        /* \"#utility.yul\":17825:17972   */\n      swap3\n      swap2\n      pop\n      pop\n      jump\t// out\n        /* \"#utility.yul\":17978:18285   */\n    tag_208:\n        /* \"#utility.yul\":18046:18047   */\n      0x00\n        /* \"#utility.yul\":18056:18169   */\n    tag_403:\n        /* \"#utility.yul\":18070:18076   */\n      dup4\n        /* \"#utility.yul\":18067:18068   */\n      dup2\n        /* \"#utility.yul\":18064:18077   */\n      lt\n        /* \"#utility.yul\":18056:18169   */\n      iszero\n      tag_405\n      jumpi\n        /* \"#utility.yul\":18155:18156   */\n      dup1\n        /* \"#utility.yul\":18150:18153   */\n      dup3\n        /* \"#utility.yul\":18146:18157   */\n      add\n        /* \"#utility.yul\":18140:18158   */\n      mload\n        /* \"#utility.yul\":18136:18137   */\n      dup2\n        /* \"#utility.yul\":18131:18134   */\n      dup5\n        /* \"#utility.yul\":18127:18138   */\n      add\n        /* \"#utility.yul\":18120:18159   */\n      mstore\n        /* \"#utility.yul\":18092:18094   */\n      0x20\n        /* \"#utility.yul\":18089:18090   */\n      dup2\n        /* \"#utility.yul\":18085:18095   */\n      add\n        /* \"#utility.yul\":18080:18095   */\n      swap1\n      pop\n        /* \"#utility.yul\":18056:18169   */\n      jump(tag_403)\n    tag_405:\n        /* \"#utility.yul\":18187:18193   */\n      dup4\n        /* \"#utility.yul\":18184:18185   */\n      dup2\n        /* \"#utility.yul\":18181:18194   */\n      gt\n        /* \"#utility.yul\":18178:18279   */\n      iszero\n      tag_406\n      jumpi\n        /* \"#utility.yul\":18267:18268   */\n      0x00\n        /* \"#utility.yul\":18258:18264   */\n      dup5\n        /* \"#utility.yul\":18253:18256   */\n      dup5\n        /* \"#utility.yul\":18249:18265   */\n      add\n        /* \"#utility.yul\":18242:18269   */\n      mstore\n        /* \"#utility.yul\":18178:18279   */\n    tag_406:\n        /* \"#utility.yul\":18027:18285   */\n      pop\n        /* \"#utility.yul\":17978:18285   */\n      pop\n      pop\n      pop\n      jump\t// out\n        /* \"#utility.yul\":18291:18664   */\n    tag_209:\n        /* \"#utility.yul\":18395:18398   */\n      0x00\n        /* \"#utility.yul\":18423:18461   */\n      tag_408\n        /* \"#utility.yul\":18455:18460   */\n      dup3\n        /* \"#utility.yul\":18423:18461   */\n      tag_206\n      jump\t// in\n    tag_408:\n        /* \"#utility.yul\":18477:18565   */\n      tag_409\n        /* \"#utility.yul\":18558:18564   */\n      dup2\n        /* \"#utility.yul\":18553:18556   */\n      dup6\n        /* \"#utility.yul\":18477:18565   */\n      tag_207\n      jump\t// in\n    tag_409:\n        /* \"#utility.yul\":18470:18565   */\n      swap4\n      pop\n        /* \"#utility.yul\":18574:18626   */\n      tag_410\n        /* \"#utility.yul\":18619:18625   */\n      dup2\n        /* \"#utility.yul\":18614:18617   */\n      dup6\n        /* \"#utility.yul\":18607:18611   */\n      0x20\n        /* \"#utility.yul\":18600:18605   */\n      dup7\n        /* \"#utility.yul\":18596:18612   */\n      add\n        /* \"#utility.yul\":18574:18626   */\n      tag_208\n      jump\t// in\n    tag_410:\n        /* \"#utility.yul\":18651:18657   */\n      dup1\n        /* \"#utility.yul\":18646:18649   */\n      dup5\n        /* \"#utility.yul\":18642:18658   */\n      add\n        /* \"#utility.yul\":18635:18658   */\n      swap2\n      pop\n        /* \"#utility.yul\":18399:18664   */\n      pop\n        /* \"#utility.yul\":18291:18664   */\n      swap3\n      swap2\n      pop\n      pop\n      jump\t// out\n        /* \"#utility.yul\":18670:18941   */\n    tag_105:\n        /* \"#utility.yul\":18800:18803   */\n      0x00\n        /* \"#utility.yul\":18822:18915   */\n      tag_412\n        /* \"#utility.yul\":18911:18914   */\n      dup3\n        /* \"#utility.yul\":18902:18908   */\n      dup5\n        /* \"#utility.yul\":18822:18915   */\n      tag_209\n      jump\t// in\n    tag_412:\n        /* \"#utility.yul\":18815:18915   */\n      swap2\n      pop\n        /* \"#utility.yul\":18932:18935   */\n      dup2\n        /* \"#utility.yul\":18925:18935   */\n      swap1\n      pop\n        /* \"#utility.yul\":18670:18941   */\n      swap3\n      swap2\n      pop\n      pop\n      jump\t// out\n        /* \"#utility.yul\":18947:19138   */\n    tag_110:\n        /* \"#utility.yul\":18987:18991   */\n      0x00\n        /* \"#utility.yul\":19007:19027   */\n      tag_414\n        /* \"#utility.yul\":19025:19026   */\n      dup3\n        /* \"#utility.yul\":19007:19027   */\n      tag_178\n      jump\t// in\n    tag_414:\n        /* \"#utility.yul\":19002:19027   */\n      swap2\n      pop\n        /* \"#utility.yul\":19041:19061   */\n      tag_415\n        /* \"#utility.yul\":19059:19060   */\n      dup4\n        /* \"#utility.yul\":19041:19061   */\n      tag_178\n      jump\t// in\n    tag_415:\n        /* \"#utility.yul\":19036:19061   */\n      swap3\n      pop\n        /* \"#utility.yul\":19080:19081   */\n      dup3\n        /* \"#utility.yul\":19077:19078   */\n      dup3\n        /* \"#utility.yul\":19074:19082   */\n      lt\n        /* \"#utility.yul\":19071:19105   */\n      iszero\n      tag_416\n      jumpi\n        /* \"#utility.yul\":19085:19103   */\n      tag_417\n      tag_196\n      jump\t// in\n    tag_417:\n        /* \"#utility.yul\":19071:19105   */\n    tag_416:\n        /* \"#utility.yul\":19130:19131   */\n      dup3\n        /* \"#utility.yul\":19127:19128   */\n      dup3\n        /* \"#utility.yul\":19123:19132   */\n      sub\n        /* \"#utility.yul\":19115:19132   */\n      swap1\n      pop\n        /* \"#utility.yul\":18947:19138   */\n      swap3\n      swap2\n      pop\n      pop\n      jump\t// out\n        /* \"#utility.yul\":19144:19492   */\n    tag_112:\n        /* \"#utility.yul\":19184:19191   */\n      0x00\n        /* \"#utility.yul\":19207:19227   */\n      tag_419\n        /* \"#utility.yul\":19225:19226   */\n      dup3\n        /* \"#utility.yul\":19207:19227   */\n      tag_178\n      jump\t// in\n    tag_419:\n        /* \"#utility.yul\":19202:19227   */\n      swap2\n      pop\n        /* \"#utility.yul\":19241:19261   */\n      tag_420\n        /* \"#utility.yul\":19259:19260   */\n      dup4\n        /* \"#utility.yul\":19241:19261   */\n      tag_178\n      jump\t// in\n    tag_420:\n        /* \"#utility.yul\":19236:19261   */\n      swap3\n      pop\n        /* \"#utility.yul\":19429:19430   */\n      dup2\n        /* \"#utility.yul\":19361:19427   */\n      0xffffffffffffffffffffffffffffffffffffffffffffffffffffffffffffffff\n        /* \"#utility.yul\":19357:19431   */\n      div\n        /* \"#utility.yul\":19354:19355   */\n      dup4\n        /* \"#utility.yul\":19351:19432   */\n      gt\n        /* \"#utility.yul\":19346:19347   */\n      dup3\n        /* \"#utility.yul\":19339:19348   */\n      iszero\n        /* \"#utility.yul\":19332:19349   */\n      iszero\n        /* \"#utility.yul\":19328:19433   */\n      and\n        /* \"#utility.yul\":19325:19456   */\n      iszero\n      tag_421\n      jumpi\n        /* \"#utility.yul\":19436:19454   */\n      tag_422\n      tag_196\n      jump\t// in\n    tag_422:\n        /* \"#utility.yul\":19325:19456   */\n    tag_421:\n        /* \"#utility.yul\":19484:19485   */\n      dup3\n        /* \"#utility.yul\":19481:19482   */\n      dup3\n        /* \"#utility.yul\":19477:19486   */\n      mul\n        /* \"#utility.yul\":19466:19486   */\n      swap1\n      pop\n        /* \"#utility.yul\":19144:19492   */\n      swap3\n      swap2\n      pop\n      pop\n      jump\t// out\n        /* \"#utility.yul\":19498:19803   */\n    tag_114:\n        /* \"#utility.yul\":19538:19541   */\n      0x00\n        /* \"#utility.yul\":19557:19577   */\n      tag_424\n        /* \"#utility.yul\":19575:19576   */\n      dup3\n        /* \"#utility.yul\":19557:19577   */\n      tag_178\n      jump\t// in\n    tag_424:\n        /* \"#utility.yul\":19552:19577   */\n      swap2\n      pop\n        /* \"#utility.yul\":19591:19611   */\n      tag_425\n        /* \"#utility.yul\":19609:19610   */\n      dup4\n        /* \"#utility.yul\":19591:19611   */\n      tag_178\n      jump\t// in\n    tag_425:\n        /* \"#utility.yul\":19586:19611   */\n      swap3\n      pop\n        /* \"#utility.yul\":19745:19746   */\n      dup3\n        /* \"#utility.yul\":19677:19743   */\n      0xffffffffffffffffffffffffffffffffffffffffffffffffffffffffffffffff\n        /* \"#utility.yul\":19673:19747   */\n      sub\n        /* \"#utility.yul\":19670:19671   */\n      dup3\n        /* \"#utility.yul\":19667:19748   */\n      gt\n        /* \"#utility.yul\":19664:19771   */\n      iszero\n      tag_426\n      jumpi\n        /* \"#utility.yul\":19751:19769   */\n      tag_427\n      tag_196\n      jump\t// in\n    tag_427:\n        /* \"#utility.yul\":19664:19771   */\n    tag_426:\n        /* \"#utility.yul\":19795:19796   */\n      dup3\n        /* \"#utility.yul\":19792:19793   */\n      dup3\n        /* \"#utility.yul\":19788:19797   */\n      add\n        /* \"#utility.yul\":19781:19797   */\n      swap1\n      pop\n        /* \"#utility.yul\":19498:19803   */\n      swap3\n      swap2\n      pop\n      pop\n      jump\t// out\n        /* \"#utility.yul\":19809:19997   */\n    tag_117:\n        /* \"#utility.yul\":19848:19852   */\n      0x00\n        /* \"#utility.yul\":19868:19887   */\n      tag_429\n        /* \"#utility.yul\":19885:19886   */\n      dup3\n        /* \"#utility.yul\":19868:19887   */\n      tag_170\n      jump\t// in\n    tag_429:\n        /* \"#utility.yul\":19863:19887   */\n      swap2\n      pop\n        /* \"#utility.yul\":19901:19920   */\n      tag_430\n        /* \"#utility.yul\":19918:19919   */\n      dup4\n        /* \"#utility.yul\":19901:19920   */\n      tag_170\n      jump\t// in\n    tag_430:\n        /* \"#utility.yul\":19896:19920   */\n      swap3\n      pop\n        /* \"#utility.yul\":19939:19940   */\n      dup3\n        /* \"#utility.yul\":19936:19937   */\n      dup3\n        /* \"#utility.yul\":19933:19941   */\n      lt\n        /* \"#utility.yul\":19930:19964   */\n      iszero\n      tag_431\n      jumpi\n        /* \"#utility.yul\":19944:19962   */\n      tag_432\n      tag_196\n      jump\t// in\n    tag_432:\n        /* \"#utility.yul\":19930:19964   */\n    tag_431:\n        /* \"#utility.yul\":19989:19990   */\n      dup3\n        /* \"#utility.yul\":19986:19987   */\n      dup3\n        /* \"#utility.yul\":19982:19991   */\n      sub\n        /* \"#utility.yul\":19974:19991   */\n      swap1\n      pop\n        /* \"#utility.yul\":19809:19997   */\n      swap3\n      swap2\n      pop\n      pop\n      jump\t// out\n        /* \"#utility.yul\":20003:20093   */\n    tag_210:\n        /* \"#utility.yul\":20037:20044   */\n      0x00\n        /* \"#utility.yul\":20080:20085   */\n      dup2\n        /* \"#utility.yul\":20073:20086   */\n      iszero\n        /* \"#utility.yul\":20066:20087   */\n      iszero\n        /* \"#utility.yul\":20055:20087   */\n      swap1\n      pop\n        /* \"#utility.yul\":20003:20093   */\n      swap2\n      swap1\n      pop\n      jump\t// out\n        /* \"#utility.yul\":20099:20208   */\n    tag_211:\n        /* \"#utility.yul\":20180:20201   */\n      tag_435\n        /* \"#utility.yul\":20195:20200   */\n      dup2\n        /* \"#utility.yul\":20180:20201   */\n      tag_210\n      jump\t// in\n    tag_435:\n        /* \"#utility.yul\":20175:20178   */\n      dup3\n        /* \"#utility.yul\":20168:20202   */\n      mstore\n        /* \"#utility.yul\":20099:20208   */\n      pop\n      pop\n      jump\t// out\n        /* \"#utility.yul\":20214:20640   */\n    tag_119:\n        /* \"#utility.yul\":20355:20359   */\n      0x00\n        /* \"#utility.yul\":20393:20395   */\n      0x60\n        /* \"#utility.yul\":20382:20391   */\n      dup3\n        /* \"#utility.yul\":20378:20396   */\n      add\n        /* \"#utility.yul\":20370:20396   */\n      swap1\n      pop\n        /* \"#utility.yul\":20406:20477   */\n      tag_437\n        /* \"#utility.yul\":20474:20475   */\n      0x00\n        /* \"#utility.yul\":20463:20472   */\n      dup4\n        /* \"#utility.yul\":20459:20476   */\n      add\n        /* \"#utility.yul\":20450:20456   */\n      dup7\n        /* \"#utility.yul\":20406:20477   */\n      tag_179\n      jump\t// in\n    tag_437:\n        /* \"#utility.yul\":20487:20557   */\n      tag_438\n        /* \"#utility.yul\":20553:20555   */\n      0x20\n        /* \"#utility.yul\":20542:20551   */\n      dup4\n        /* \"#utility.yul\":20538:20556   */\n      add\n        /* \"#utility.yul\":20529:20535   */\n      dup6\n        /* \"#utility.yul\":20487:20557   */\n      tag_171\n      jump\t// in\n    tag_438:\n        /* \"#utility.yul\":20567:20633   */\n      tag_439\n        /* \"#utility.yul\":20629:20631   */\n      0x40\n        /* \"#utility.yul\":20618:20627   */\n      dup4\n        /* \"#utility.yul\":20614:20632   */\n      add\n        /* \"#utility.yul\":20605:20611   */\n      dup5\n        /* \"#utility.yul\":20567:20633   */\n      tag_211\n      jump\t// in\n    tag_439:\n        /* \"#utility.yul\":20214:20640   */\n      swap5\n      swap4\n      pop\n      pop\n      pop\n      pop\n      jump\t// out\n        /* \"#utility.yul\":20646:20829   */\n    tag_126:\n        /* \"#utility.yul\":20684:20687   */\n      0x00\n        /* \"#utility.yul\":20707:20730   */\n      tag_441\n        /* \"#utility.yul\":20724:20729   */\n      dup3\n        /* \"#utility.yul\":20707:20730   */\n      tag_163\n      jump\t// in\n    tag_441:\n        /* \"#utility.yul\":20698:20730   */\n      swap2\n      pop\n        /* \"#utility.yul\":20752:20770   */\n      0xffffffffffffffff\n        /* \"#utility.yul\":20745:20750   */\n      dup3\n        /* \"#utility.yul\":20742:20771   */\n      sub\n        /* \"#utility.yul\":20739:20794   */\n      tag_442\n      jumpi\n        /* \"#utility.yul\":20774:20792   */\n      tag_443\n      tag_196\n      jump\t// in\n    tag_443:\n        /* \"#utility.yul\":20739:20794   */\n    tag_442:\n        /* \"#utility.yul\":20821:20822   */\n      0x01\n        /* \"#utility.yul\":20814:20819   */\n      dup3\n        /* \"#utility.yul\":20810:20823   */\n      add\n        /* \"#utility.yul\":20803:20823   */\n      swap1\n      pop\n        /* \"#utility.yul\":20646:20829   */\n      swap2\n      swap1\n      pop\n      jump\t// out\n        /* \"#utility.yul\":20835:21057   */\n    tag_128:\n        /* \"#utility.yul\":20928:20932   */\n      0x00\n        /* \"#utility.yul\":20966:20968   */\n      0x20\n        /* \"#utility.yul\":20955:20964   */\n      dup3\n        /* \"#utility.yul\":20951:20969   */\n      add\n        /* \"#utility.yul\":20943:20969   */\n      swap1\n      pop\n        /* \"#utility.yul\":20979:21050   */\n      tag_445\n        /* \"#utility.yul\":21047:21048   */\n      0x00\n        /* \"#utility.yul\":21036:21045   */\n      dup4\n        /* \"#utility.yul\":21032:21049   */\n      add\n        /* \"#utility.yul\":21023:21029   */\n      dup5\n        /* \"#utility.yul\":20979:21050   */\n      tag_183\n      jump\t// in\n    tag_445:\n        /* \"#utility.yul\":20835:21057   */\n      swap3\n      swap2\n      pop\n      pop\n      jump\t// out\n        /* \"#utility.yul\":21063:21325   */\n    tag_137:\n        /* \"#utility.yul\":21102:21105   */\n      0x00\n        /* \"#utility.yul\":21121:21140   */\n      tag_447\n        /* \"#utility.yul\":21138:21139   */\n      dup3\n        /* \"#utility.yul\":21121:21140   */\n      tag_170\n      jump\t// in\n    tag_447:\n        /* \"#utility.yul\":21116:21140   */\n      swap2\n      pop\n        /* \"#utility.yul\":21154:21173   */\n      tag_448\n        /* \"#utility.yul\":21171:21172   */\n      dup4\n        /* \"#utility.yul\":21154:21173   */\n      tag_170\n      jump\t// in\n    tag_448:\n        /* \"#utility.yul\":21149:21173   */\n      swap3\n      pop\n        /* \"#utility.yul\":21267:21268   */\n      dup3\n        /* \"#utility.yul\":21239:21265   */\n      0xffffffffffffffffffffffff\n        /* \"#utility.yul\":21235:21269   */\n      sub\n        /* \"#utility.yul\":21232:21233   */\n      dup3\n        /* \"#utility.yul\":21229:21270   */\n      gt\n        /* \"#utility.yul\":21226:21293   */\n      iszero\n      tag_449\n      jumpi\n        /* \"#utility.yul\":21273:21291   */\n      tag_450\n      tag_196\n      jump\t// in\n    tag_450:\n        /* \"#utility.yul\":21226:21293   */\n    tag_449:\n        /* \"#utility.yul\":21317:21318   */\n      dup3\n        /* \"#utility.yul\":21314:21315   */\n      dup3\n        /* \"#utility.yul\":21310:21319   */\n      add\n        /* \"#utility.yul\":21303:21319   */\n      swap1\n      pop\n        /* \"#utility.yul\":21063:21325   */\n      swap3\n      swap2\n      pop\n      pop\n      jump\t// out\n        /* \"#utility.yul\":21331:21391   */\n    tag_212:\n        /* \"#utility.yul\":21359:21362   */\n      0x00\n        /* \"#utility.yul\":21380:21385   */\n      dup2\n        /* \"#utility.yul\":21373:21385   */\n      swap1\n      pop\n        /* \"#utility.yul\":21331:21391   */\n      swap2\n      swap1\n      pop\n      jump\t// out\n        /* \"#utility.yul\":21397:21537   */\n    tag_213:\n        /* \"#utility.yul\":21446:21455   */\n      0x00\n        /* \"#utility.yul\":21479:21531   */\n      tag_453\n        /* \"#utility.yul\":21497:21530   */\n      tag_454\n        /* \"#utility.yul\":21506:21529   */\n      tag_455\n        /* \"#utility.yul\":21523:21528   */\n      dup5\n        /* \"#utility.yul\":21506:21529   */\n      tag_170\n      jump\t// in\n    tag_455:\n        /* \"#utility.yul\":21497:21530   */\n      tag_212\n      jump\t// in\n    tag_454:\n        /* \"#utility.yul\":21479:21531   */\n      tag_178\n      jump\t// in\n    tag_453:\n        /* \"#utility.yul\":21466:21531   */\n      swap1\n      pop\n        /* \"#utility.yul\":21397:21537   */\n      swap2\n      swap1\n      pop\n      jump\t// out\n        /* \"#utility.yul\":21543:21672   */\n    tag_214:\n        /* \"#utility.yul\":21629:21665   */\n      tag_457\n        /* \"#utility.yul\":21659:21664   */\n      dup2\n        /* \"#utility.yul\":21629:21665   */\n      tag_213\n      jump\t// in\n    tag_457:\n        /* \"#utility.yul\":21624:21627   */\n      dup3\n        /* \"#utility.yul\":21617:21666   */\n      mstore\n        /* \"#utility.yul\":21543:21672   */\n      pop\n      pop\n      jump\t// out\n        /* \"#utility.yul\":21678:22006   */\n    tag_140:\n        /* \"#utility.yul\":21797:21801   */\n      0x00\n        /* \"#utility.yul\":21835:21837   */\n      0x40\n        /* \"#utility.yul\":21824:21833   */\n      dup3\n        /* \"#utility.yul\":21820:21838   */\n      add\n        /* \"#utility.yul\":21812:21838   */\n      swap1\n      pop\n        /* \"#utility.yul\":21848:21918   */\n      tag_459\n        /* \"#utility.yul\":21915:21916   */\n      0x00\n        /* \"#utility.yul\":21904:21913   */\n      dup4\n        /* \"#utility.yul\":21900:21917   */\n      add\n        /* \"#utility.yul\":21891:21897   */\n      dup6\n        /* \"#utility.yul\":21848:21918   */\n      tag_214\n      jump\t// in\n    tag_459:\n        /* \"#utility.yul\":21928:21999   */\n      tag_460\n        /* \"#utility.yul\":21995:21997   */\n      0x20\n        /* \"#utility.yul\":21984:21993   */\n      dup4\n        /* \"#utility.yul\":21980:21998   */\n      add\n        /* \"#utility.yul\":21971:21977   */\n      dup5\n        /* \"#utility.yul\":21928:21999   */\n      tag_214\n      jump\t// in\n    tag_460:\n        /* \"#utility.yul\":21678:22006   */\n      swap4\n      swap3\n      pop\n      pop\n      pop\n      jump\t// out\n        /* \"#utility.yul\":22012:22342   */\n    tag_147:\n        /* \"#utility.yul\":22132:22136   */\n      0x00\n        /* \"#utility.yul\":22170:22172   */\n      0x40\n        /* \"#utility.yul\":22159:22168   */\n      dup3\n        /* \"#utility.yul\":22155:22173   */\n      add\n        /* \"#utility.yul\":22147:22173   */\n      swap1\n      pop\n        /* \"#utility.yul\":22183:22254   */\n      tag_462\n        /* \"#utility.yul\":22251:22252   */\n      0x00\n        /* \"#utility.yul\":22240:22249   */\n      dup4\n        /* \"#utility.yul\":22236:22253   */\n      add\n        /* \"#utility.yul\":22227:22233   */\n      dup6\n        /* \"#utility.yul\":22183:22254   */\n      tag_183\n      jump\t// in\n    tag_462:\n        /* \"#utility.yul\":22264:22335   */\n      tag_463\n        /* \"#utility.yul\":22331:22333   */\n      0x20\n        /* \"#utility.yul\":22320:22329   */\n      dup4\n        /* \"#utility.yul\":22316:22334   */\n      add\n        /* \"#utility.yul\":22307:22313   */\n      dup5\n        /* \"#utility.yul\":22264:22335   */\n      tag_214\n      jump\t// in\n    tag_463:\n        /* \"#utility.yul\":22012:22342   */\n      swap4\n      swap3\n      pop\n      pop\n      pop\n      jump\t// out\n\n    auxdata: 0xa26469706673582212204543218fea18ea9beaf0d19a25ae8249719f317166afc8791ce20e71a0be10d864736f6c634300080f0033\n}\n",
				"bytecode": {
					"linkReferences": {},
					"object": "60c06040526001805560646002553480156200001a57600080fd5b5060405162002036380380620020368339818101604052810190620000409190620000de565b816bffffffffffffffffffffffff166080816bffffffffffffffffffffffff1681525050806bffffffffffffffffffffffff1660a0816bffffffffffffffffffffffff1681525050505062000125565b600080fd5b60006bffffffffffffffffffffffff82169050919050565b620000b88162000095565b8114620000c457600080fd5b50565b600081519050620000d881620000ad565b92915050565b60008060408385031215620000f857620000f762000090565b5b60006200010885828601620000c7565b92505060206200011b85828601620000c7565b9150509250929050565b60805160a051611edd620001596000396000818161086a0152610cda01526000818161031101526108af0152611edd6000f3fe608060405234801561001057600080fd5b50600436106100ce5760003560e01c8063823597401161008c578063a410347f11610066578063a410347f146101eb578063a47c769614610209578063afc69b531461023c578063d7ae1d3014610258576100ce565b806382359740146101955780639f87fad7146101b1578063a21a23e4146101cd576100ce565b8062012291146100d357806304c357cb146100f35780633d18651e1461010f5780635d3b1d301461012d5780637341c10c1461015d578063808974ff14610179575b600080fd5b6100db610274565b6040516100ea9392919061138c565b60405180910390f35b61010d6004803603810190610108919061146d565b6102d4565b005b61011761030f565b60405161012491906114d4565b60405180910390f35b61014760048036038101906101429190611573565b610333565b6040516101549190611607565b60405180910390f35b6101776004803603810190610172919061146d565b61054e565b005b610193600480360381019061018e919061164e565b610589565b005b6101af60048036038101906101aa919061168e565b610aad565b005b6101cb60048036038101906101c6919061146d565b610ae8565b005b6101d5610b23565b6040516101e291906116ca565b60405180910390f35b6101f3610cd8565b60405161020091906114d4565b60405180910390f35b610223600480360381019061021e919061168e565b610cfc565b60405161023394939291906117b2565b60405180910390f35b6102566004803603810190610251919061182a565b610e9c565b005b610272600480360381019061026d919061146d565b611066565b005b60008060606003621e8480600067ffffffffffffffff81111561029a5761029961186a565b5b6040519080825280602002602001820160405280156102c85781602001602082028036833780820191505090505b50925092509250909192565b6040517f08c379a0000000000000000000000000000000000000000000000000000000008152600401610306906118f6565b60405180910390fd5b7f000000000000000000000000000000000000000000000000000000000000000081565b60008073ffffffffffffffffffffffffffffffffffffffff16600360008767ffffffffffffffff1667ffffffffffffffff16815260200190815260200160002060000160009054906101000a900473ffffffffffffffffffffffffffffffffffffffff1673ffffffffffffffffffffffffffffffffffffffff16036103e4576040517f1f6a65b600000000000000000000000000000000000000000000000000000000815260040160405180910390fd5b6000600160008154809291906103f990611945565b91905055905060006002600081548092919061041490611945565b91905055905060405180606001604052808867ffffffffffffffff1681526020018663ffffffff1681526020018563ffffffff168152506004600084815260200190815260200160002060008201518160000160006101000a81548167ffffffffffffffff021916908367ffffffffffffffff16021790555060208201518160000160086101000a81548163ffffffff021916908363ffffffff160217905550604082015181600001600c6101000a81548163ffffffff021916908363ffffffff1602179055509050503373ffffffffffffffffffffffffffffffffffffffff168767ffffffffffffffff16897f63373d1c4696214b898952999c9aaec57dac1ee2723cec59bea6888f489a977285858b8b8b60405161053895949392919061198d565b60405180910390a4819250505095945050505050565b6040517f08c379a0000000000000000000000000000000000000000000000000000000008152600401610580906118f6565b60405180910390fd5b60005a905060006004600085815260200190815260200160002060000160009054906101000a900467ffffffffffffffff1667ffffffffffffffff1603610605576040517f08c379a00000000000000000000000000000000000000000000000000000000081526004016105fc90611a2c565b60405180910390fd5b6000600460008581526020019081526020016000206040518060600160405290816000820160009054906101000a900467ffffffffffffffff1667ffffffffffffffff1667ffffffffffffffff1681526020016000820160089054906101000a900463ffffffff1663ffffffff1663ffffffff16815260200160008201600c9054906101000a900463ffffffff1663ffffffff1663ffffffff168152505090506000816040015163ffffffff1667ffffffffffffffff8111156106cb576106ca61186a565b5b6040519080825280602002602001820160405280156106f95781602001602082028036833780820191505090505b50905060005b826040015163ffffffff1681101561076f578581604051602001610724929190611a4c565b6040516020818303038152906040528051906020012060001c8282815181106107505761074f611a75565b5b602002602001018181525050808061076790611945565b9150506106ff565b50600080631fe543e360e01b878460405160240161078e929190611b62565b604051602081830303815290604052907bffffffffffffffffffffffffffffffffffffffffffffffffffffffff19166020820180517bffffffffffffffffffffffffffffffffffffffffffffffffffffffff8381831617835250505050905060008673ffffffffffffffffffffffffffffffffffffffff16856020015163ffffffff168360405161081f9190611c0c565b60006040518083038160008787f1925050503d806000811461085d576040519150601f19603f3d011682016040523d82523d6000602084013e610862565b606091505b5050905060007f00000000000000000000000000000000000000000000000000000000000000006bffffffffffffffffffffffff165a886108a39190611c23565b6108ad9190611c57565b7f00000000000000000000000000000000000000000000000000000000000000006bffffffffffffffffffffffff166108e69190611cb1565b9050806bffffffffffffffffffffffff1660036000886000015167ffffffffffffffff1667ffffffffffffffff16815260200190815260200160002060000160149054906101000a90046bffffffffffffffffffffffff166bffffffffffffffffffffffff161015610984576040517ff4d678b800000000000000000000000000000000000000000000000000000000815260040160405180910390fd5b8060036000886000015167ffffffffffffffff1667ffffffffffffffff16815260200190815260200160002060000160148282829054906101000a90046bffffffffffffffffffffffff166109d99190611d07565b92506101000a8154816bffffffffffffffffffffffff02191690836bffffffffffffffffffffffff160217905550600460008a8152602001908152602001600020600080820160006101000a81549067ffffffffffffffff02191690556000820160086101000a81549063ffffffff021916905560008201600c6101000a81549063ffffffff02191690555050887f7dffc5ae5ee4e2e4df1651cf6ad329a73cebdb728f37ea0187b9b17e036756e48a8385604051610a9a93929190611d56565b60405180910390a2505050505050505050565b6040517f08c379a0000000000000000000000000000000000000000000000000000000008152600401610adf906118f6565b60405180910390fd5b6040517f08c379a0000000000000000000000000000000000000000000000000000000008152600401610b1a906118f6565b60405180910390fd5b600080600081819054906101000a900467ffffffffffffffff1680929190610b4a90611d8d565b91906101000a81548167ffffffffffffffff021916908367ffffffffffffffff1602179055505060405180604001604052803373ffffffffffffffffffffffffffffffffffffffff16815260200160006bffffffffffffffffffffffff16815250600360008060009054906101000a900467ffffffffffffffff1667ffffffffffffffff1667ffffffffffffffff16815260200190815260200160002060008201518160000160006101000a81548173ffffffffffffffffffffffffffffffffffffffff021916908373ffffffffffffffffffffffffffffffffffffffff16021790555060208201518160000160146101000a8154816bffffffffffffffffffffffff02191690836bffffffffffffffffffffffff16021790555090505060008054906101000a900467ffffffffffffffff1667ffffffffffffffff167f464722b4166576d3dcbba877b999bc35cf911f4eaf434b7eba68fa113951d0bf33604051610cb69190611dbd565b60405180910390a260008054906101000a900467ffffffffffffffff16905090565b7f000000000000000000000000000000000000000000000000000000000000000081565b60008060006060600073ffffffffffffffffffffffffffffffffffffffff16600360008767ffffffffffffffff1667ffffffffffffffff16815260200190815260200160002060000160009054906101000a900473ffffffffffffffffffffffffffffffffffffffff1673ffffffffffffffffffffffffffffffffffffffff1603610db3576040517f1f6a65b600000000000000000000000000000000000000000000000000000000815260040160405180910390fd5b600360008667ffffffffffffffff1667ffffffffffffffff16815260200190815260200160002060000160149054906101000a90046bffffffffffffffffffffffff166000600360008867ffffffffffffffff1667ffffffffffffffff16815260200190815260200160002060000160009054906101000a900473ffffffffffffffffffffffffffffffffffffffff16600067ffffffffffffffff811115610e5e57610e5d61186a565b5b604051908082528060200260200182016040528015610e8c5781602001602082028036833780820191505090505b5093509350935093509193509193565b600073ffffffffffffffffffffffffffffffffffffffff16600360008467ffffffffffffffff1667ffffffffffffffff16815260200190815260200160002060000160009054906101000a900473ffffffffffffffffffffffffffffffffffffffff1673ffffffffffffffffffffffffffffffffffffffff1603610f4c576040517f1f6a65b600000000000000000000000000000000000000000000000000000000815260040160405180910390fd5b6000600360008467ffffffffffffffff1667ffffffffffffffff16815260200190815260200160002060000160149054906101000a90046bffffffffffffffffffffffff16905081600360008567ffffffffffffffff1667ffffffffffffffff16815260200190815260200160002060000160148282829054906101000a90046bffffffffffffffffffffffff16610fe49190611dd8565b92506101000a8154816bffffffffffffffffffffffff02191690836bffffffffffffffffffffffff1602179055508267ffffffffffffffff167fd39ec07f4e209f627a4c427971473820dc129761ba28de8906bd56f57101d4f882848461104b9190611dd8565b604051611059929190611e55565b60405180910390a2505050565b816000600360008367ffffffffffffffff1667ffffffffffffffff16815260200190815260200160002060000160009054906101000a900473ffffffffffffffffffffffffffffffffffffffff169050600073ffffffffffffffffffffffffffffffffffffffff168173ffffffffffffffffffffffffffffffffffffffff160361111c576040517f1f6a65b600000000000000000000000000000000000000000000000000000000815260040160405180910390fd5b8073ffffffffffffffffffffffffffffffffffffffff163373ffffffffffffffffffffffffffffffffffffffff161461118c57806040517fd8a3fb520000000000000000000000000000000000000000000000000000000081526004016111839190611dbd565b60405180910390fd5b8367ffffffffffffffff167fe8ed5b475a5b5987aa9165e8731bb78043f39eee32ec5a1169a89e27fcd4981584600360008867ffffffffffffffff1667ffffffffffffffff16815260200190815260200160002060000160149054906101000a90046bffffffffffffffffffffffff1660405161120a929190611e7e565b60405180910390a2600360008567ffffffffffffffff1667ffffffffffffffff168152602001908152602001600020600080820160006101000a81549073ffffffffffffffffffffffffffffffffffffffff02191690556000820160146101000a8154906bffffffffffffffffffffffff0219169055505050505050565b600061ffff82169050919050565b61129f81611288565b82525050565b600063ffffffff82169050919050565b6112be816112a5565b82525050565b600081519050919050565b600082825260208201905092915050565b6000819050602082019050919050565b6000819050919050565b611303816112f0565b82525050565b600061131583836112fa565b60208301905092915050565b6000602082019050919050565b6000611339826112c4565b61134381856112cf565b935061134e836112e0565b8060005b8381101561137f5781516113668882611309565b975061137183611321565b925050600181019050611352565b5085935050505092915050565b60006060820190506113a16000830186611296565b6113ae60208301856112b5565b81810360408301526113c0818461132e565b9050949350505050565b600080fd5b600067ffffffffffffffff82169050919050565b6113ec816113cf565b81146113f757600080fd5b50565b600081359050611409816113e3565b92915050565b600073ffffffffffffffffffffffffffffffffffffffff82169050919050565b600061143a8261140f565b9050919050565b61144a8161142f565b811461145557600080fd5b50565b60008135905061146781611441565b92915050565b60008060408385031215611484576114836113ca565b5b6000611492858286016113fa565b92505060206114a385828601611458565b9150509250929050565b60006bffffffffffffffffffffffff82169050919050565b6114ce816114ad565b82525050565b60006020820190506114e960008301846114c5565b92915050565b6114f8816112f0565b811461150357600080fd5b50565b600081359050611515816114ef565b92915050565b61152481611288565b811461152f57600080fd5b50565b6000813590506115418161151b565b92915050565b611550816112a5565b811461155b57600080fd5b50565b60008135905061156d81611547565b92915050565b600080600080600060a0868803121561158f5761158e6113ca565b5b600061159d88828901611506565b95505060206115ae888289016113fa565b94505060406115bf88828901611532565b93505060606115d08882890161155e565b92505060806115e18882890161155e565b9150509295509295909350565b6000819050919050565b611601816115ee565b82525050565b600060208201905061161c60008301846115f8565b92915050565b61162b816115ee565b811461163657600080fd5b50565b60008135905061164881611622565b92915050565b60008060408385031215611665576116646113ca565b5b600061167385828601611639565b925050602061168485828601611458565b9150509250929050565b6000602082840312156116a4576116a36113ca565b5b60006116b2848285016113fa565b91505092915050565b6116c4816113cf565b82525050565b60006020820190506116df60008301846116bb565b92915050565b6116ee8161142f565b82525050565b600081519050919050565b600082825260208201905092915050565b6000819050602082019050919050565b6117298161142f565b82525050565b600061173b8383611720565b60208301905092915050565b6000602082019050919050565b600061175f826116f4565b61176981856116ff565b935061177483611710565b8060005b838110156117a557815161178c888261172f565b975061179783611747565b925050600181019050611778565b5085935050505092915050565b60006080820190506117c760008301876114c5565b6117d460208301866116bb565b6117e160408301856116e5565b81810360608301526117f38184611754565b905095945050505050565b611807816114ad565b811461181257600080fd5b50565b600081359050611824816117fe565b92915050565b60008060408385031215611841576118406113ca565b5b600061184f858286016113fa565b925050602061186085828601611815565b9150509250929050565b7f4e487b7100000000000000000000000000000000000000000000000000000000600052604160045260246000fd5b600082825260208201905092915050565b7f6e6f7420696d706c656d656e7465640000000000000000000000000000000000600082015250565b60006118e0600f83611899565b91506118eb826118aa565b602082019050919050565b6000602082019050818103600083015261190f816118d3565b9050919050565b7f4e487b7100000000000000000000000000000000000000000000000000000000600052601160045260246000fd5b6000611950826115ee565b91507fffffffffffffffffffffffffffffffffffffffffffffffffffffffffffffffff820361198257611981611916565b5b600182019050919050565b600060a0820190506119a260008301886115f8565b6119af60208301876115f8565b6119bc6040830186611296565b6119c960608301856112b5565b6119d660808301846112b5565b9695505050505050565b7f6e6f6e6578697374656e74207265717565737400000000000000000000000000600082015250565b6000611a16601383611899565b9150611a21826119e0565b602082019050919050565b60006020820190508181036000830152611a4581611a09565b9050919050565b6000604082019050611a6160008301856115f8565b611a6e60208301846115f8565b9392505050565b7f4e487b7100000000000000000000000000000000000000000000000000000000600052603260045260246000fd5b600081519050919050565b600082825260208201905092915050565b6000819050602082019050919050565b611ad9816115ee565b82525050565b6000611aeb8383611ad0565b60208301905092915050565b6000602082019050919050565b6000611b0f82611aa4565b611b198185611aaf565b9350611b2483611ac0565b8060005b83811015611b55578151611b3c8882611adf565b9750611b4783611af7565b925050600181019050611b28565b5085935050505092915050565b6000604082019050611b7760008301856115f8565b8181036020830152611b898184611b04565b90509392505050565b600081519050919050565b600081905092915050565b60005b83811015611bc6578082015181840152602081019050611bab565b83811115611bd5576000848401525b50505050565b6000611be682611b92565b611bf08185611b9d565b9350611c00818560208601611ba8565b80840191505092915050565b6000611c188284611bdb565b915081905092915050565b6000611c2e826115ee565b9150611c39836115ee565b925082821015611c4c57611c4b611916565b5b828203905092915050565b6000611c62826115ee565b9150611c6d836115ee565b9250817fffffffffffffffffffffffffffffffffffffffffffffffffffffffffffffffff0483118215151615611ca657611ca5611916565b5b828202905092915050565b6000611cbc826115ee565b9150611cc7836115ee565b9250827fffffffffffffffffffffffffffffffffffffffffffffffffffffffffffffffff03821115611cfc57611cfb611916565b5b828201905092915050565b6000611d12826114ad565b9150611d1d836114ad565b925082821015611d3057611d2f611916565b5b828203905092915050565b60008115159050919050565b611d5081611d3b565b82525050565b6000606082019050611d6b60008301866115f8565b611d7860208301856114c5565b611d856040830184611d47565b949350505050565b6000611d98826113cf565b915067ffffffffffffffff8203611db257611db1611916565b5b600182019050919050565b6000602082019050611dd260008301846116e5565b92915050565b6000611de3826114ad565b9150611dee836114ad565b9250826bffffffffffffffffffffffff03821115611e0f57611e0e611916565b5b828201905092915050565b6000819050919050565b6000611e3f611e3a611e35846114ad565b611e1a565b6115ee565b9050919050565b611e4f81611e24565b82525050565b6000604082019050611e6a6000830185611e46565b611e776020830184611e46565b9392505050565b6000604082019050611e9360008301856116e5565b611ea06020830184611e46565b939250505056fea26469706673582212204543218fea18ea9beaf0d19a25ae8249719f317166afc8791ce20e71a0be10d864736f6c634300080f0033",
					"opcodes": "PUSH1 0xC0 PUSH1 0x40 MSTORE PUSH1 0x1 DUP1 SSTORE PUSH1 0x64 PUSH1 0x2 SSTORE CALLVALUE DUP1 ISZERO PUSH3 0x1A JUMPI PUSH1 0x0 DUP1 REVERT JUMPDEST POP PUSH1 0x40 MLOAD PUSH3 0x2036 CODESIZE SUB DUP1 PUSH3 0x2036 DUP4 CODECOPY DUP2 DUP2 ADD PUSH1 0x40 MSTORE DUP2 ADD SWAP1 PUSH3 0x40 SWAP2 SWAP1 PUSH3 0xDE JUMP JUMPDEST DUP2 PUSH12 0xFFFFFFFFFFFFFFFFFFFFFFFF AND PUSH1 0x80 DUP2 PUSH12 0xFFFFFFFFFFFFFFFFFFFFFFFF AND DUP2 MSTORE POP POP DUP1 PUSH12 0xFFFFFFFFFFFFFFFFFFFFFFFF AND PUSH1 0xA0 DUP2 PUSH12 0xFFFFFFFFFFFFFFFFFFFFFFFF AND DUP2 MSTORE POP POP POP POP PUSH3 0x125 JUMP JUMPDEST PUSH1 0x0 DUP1 REVERT JUMPDEST PUSH1 0x0 PUSH12 0xFFFFFFFFFFFFFFFFFFFFFFFF DUP3 AND SWAP1 POP SWAP2 SWAP1 POP JUMP JUMPDEST PUSH3 0xB8 DUP2 PUSH3 0x95 JUMP JUMPDEST DUP2 EQ PUSH3 0xC4 JUMPI PUSH1 0x0 DUP1 REVERT JUMPDEST POP JUMP JUMPDEST PUSH1 0x0 DUP2 MLOAD SWAP1 POP PUSH3 0xD8 DUP2 PUSH3 0xAD JUMP JUMPDEST SWAP3 SWAP2 POP POP JUMP JUMPDEST PUSH1 0x0 DUP1 PUSH1 0x40 DUP4 DUP6 SUB SLT ISZERO PUSH3 0xF8 JUMPI PUSH3 0xF7 PUSH3 0x90 JUMP JUMPDEST JUMPDEST PUSH1 0x0 PUSH3 0x108 DUP6 DUP3 DUP7 ADD PUSH3 0xC7 JUMP JUMPDEST SWAP3 POP POP PUSH1 0x20 PUSH3 0x11B DUP6 DUP3 DUP7 ADD PUSH3 0xC7 JUMP JUMPDEST SWAP2 POP POP SWAP3 POP SWAP3 SWAP1 POP JUMP JUMPDEST PUSH1 0x80 MLOAD PUSH1 0xA0 MLOAD PUSH2 0x1EDD PUSH3 0x159 PUSH1 0x0 CODECOPY PUSH1 0x0 DUP2 DUP2 PUSH2 0x86A ADD MSTORE PUSH2 0xCDA ADD MSTORE PUSH1 0x0 DUP2 DUP2 PUSH2 0x311 ADD MSTORE PUSH2 0x8AF ADD MSTORE PUSH2 0x1EDD PUSH1 0x0 RETURN INVALID PUSH1 0x80 PUSH1 0x40 MSTORE CALLVALUE DUP1 ISZERO PUSH2 0x10 JUMPI PUSH1 0x0 DUP1 REVERT JUMPDEST POP PUSH1 0x4 CALLDATASIZE LT PUSH2 0xCE JUMPI PUSH1 0x0 CALLDATALOAD PUSH1 0xE0 SHR DUP1 PUSH4 0x82359740 GT PUSH2 0x8C JUMPI DUP1 PUSH4 0xA410347F GT PUSH2 0x66 JUMPI DUP1 PUSH4 0xA410347F EQ PUSH2 0x1EB JUMPI DUP1 PUSH4 0xA47C7696 EQ PUSH2 0x209 JUMPI DUP1 PUSH4 0xAFC69B53 EQ PUSH2 0x23C JUMPI DUP1 PUSH4 0xD7AE1D30 EQ PUSH2 0x258 JUMPI PUSH2 0xCE JUMP JUMPDEST DUP1 PUSH4 0x82359740 EQ PUSH2 0x195 JUMPI DUP1 PUSH4 0x9F87FAD7 EQ PUSH2 0x1B1 JUMPI DUP1 PUSH4 0xA21A23E4 EQ PUSH2 0x1CD JUMPI PUSH2 0xCE JUMP JUMPDEST DUP1 PUSH3 0x12291 EQ PUSH2 0xD3 JUMPI DUP1 PUSH4 0x4C357CB EQ PUSH2 0xF3 JUMPI DUP1 PUSH4 0x3D18651E EQ PUSH2 0x10F JUMPI DUP1 PUSH4 0x5D3B1D30 EQ PUSH2 0x12D JUMPI DUP1 PUSH4 0x7341C10C EQ PUSH2 0x15D JUMPI DUP1 PUSH4 0x808974FF EQ PUSH2 0x179 JUMPI JUMPDEST PUSH1 0x0 DUP1 REVERT JUMPDEST PUSH2 0xDB PUSH2 0x274 JUMP JUMPDEST PUSH1 0x40 MLOAD PUSH2 0xEA SWAP4 SWAP3 SWAP2 SWAP1 PUSH2 0x138C JUMP JUMPDEST PUSH1 0x40 MLOAD DUP1 SWAP2 SUB SWAP1 RETURN JUMPDEST PUSH2 0x10D PUSH1 0x4 DUP1 CALLDATASIZE SUB DUP2 ADD SWAP1 PUSH2 0x108 SWAP2 SWAP1 PUSH2 0x146D JUMP JUMPDEST PUSH2 0x2D4 JUMP JUMPDEST STOP JUMPDEST PUSH2 0x117 PUSH2 0x30F JUMP JUMPDEST PUSH1 0x40 MLOAD PUSH2 0x124 SWAP2 SWAP1 PUSH2 0x14D4 JUMP JUMPDEST PUSH1 0x40 MLOAD DUP1 SWAP2 SUB SWAP1 RETURN JUMPDEST PUSH2 0x147 PUSH1 0x4 DUP1 CALLDATASIZE SUB DUP2 ADD SWAP1 PUSH2 0x142 SWAP2 SWAP1 PUSH2 0x1573 JUMP JUMPDEST PUSH2 0x333 JUMP JUMPDEST PUSH1 0x40 MLOAD PUSH2 0x154 SWAP2 SWAP1 PUSH2 0x1607 JUMP JUMPDEST PUSH1 0x40 MLOAD DUP1 SWAP2 SUB SWAP1 RETURN JUMPDEST PUSH2 0x177 PUSH1 0x4 DUP1 CALLDATASIZE SUB DUP2 ADD SWAP1 PUSH2 0x172 SWAP2 SWAP1 PUSH2 0x146D JUMP JUMPDEST PUSH2 0x54E JUMP JUMPDEST STOP JUMPDEST PUSH2 0x193 PUSH1 0x4 DUP1 CALLDATASIZE SUB DUP2 ADD SWAP1 PUSH2 0x18E SWAP2 SWAP1 PUSH2 0x164E JUMP JUMPDEST PUSH2 0x589 JUMP JUMPDEST STOP JUMPDEST PUSH2 0x1AF PUSH1 0x4 DUP1 CALLDATASIZE SUB DUP2 ADD SWAP1 PUSH2 0x1AA SWAP2 SWAP1 PUSH2 0x168E JUMP JUMPDEST PUSH2 0xAAD JUMP JUMPDEST STOP JUMPDEST PUSH2 0x1CB PUSH1 0x4 DUP1 CALLDATASIZE SUB DUP2 ADD SWAP1 PUSH2 0x1C6 SWAP2 SWAP1 PUSH2 0x146D JUMP JUMPDEST PUSH2 0xAE8 JUMP JUMPDEST STOP JUMPDEST PUSH2 0x1D5 PUSH2 0xB23 JUMP JUMPDEST PUSH1 0x40 MLOAD PUSH2 0x1E2 SWAP2 SWAP1 PUSH2 0x16CA JUMP JUMPDEST PUSH1 0x40 MLOAD DUP1 SWAP2 SUB SWAP1 RETURN JUMPDEST PUSH2 0x1F3 PUSH2 0xCD8 JUMP JUMPDEST PUSH1 0x40 MLOAD PUSH2 0x200 SWAP2 SWAP1 PUSH2 0x14D4 JUMP JUMPDEST PUSH1 0x40 MLOAD DUP1 SWAP2 SUB SWAP1 RETURN JUMPDEST PUSH2 0x223 PUSH1 0x4 DUP1 CALLDATASIZE SUB DUP2 ADD SWAP1 PUSH2 0x21E SWAP2 SWAP1 PUSH2 0x168E JUMP JUMPDEST PUSH2 0xCFC JUMP JUMPDEST PUSH1 0x40 MLOAD PUSH2 0x233 SWAP5 SWAP4 SWAP3 SWAP2 SWAP1 PUSH2 0x17B2 JUMP JUMPDEST PUSH1 0x40 MLOAD DUP1 SWAP2 SUB SWAP1 RETURN JUMPDEST PUSH2 0x256 PUSH1 0x4 DUP1 CALLDATASIZE SUB DUP2 ADD SWAP1 PUSH2 0x251 SWAP2 SWAP1 PUSH2 0x182A JUMP JUMPDEST PUSH2 0xE9C JUMP JUMPDEST STOP JUMPDEST PUSH2 0x272 PUSH1 0x4 DUP1 CALLDATASIZE SUB DUP2 ADD SWAP1 PUSH2 0x26D SWAP2 SWAP1 PUSH2 0x146D JUMP JUMPDEST PUSH2 0x1066 JUMP JUMPDEST STOP JUMPDEST PUSH1 0x0 DUP1 PUSH1 0x60 PUSH1 0x3 PUSH3 0x1E8480 PUSH1 0x0 PUSH8 0xFFFFFFFFFFFFFFFF DUP2 GT ISZERO PUSH2 0x29A JUMPI PUSH2 0x299 PUSH2 0x186A JUMP JUMPDEST JUMPDEST PUSH1 0x40 MLOAD SWAP1 DUP1 DUP3 MSTORE DUP1 PUSH1 0x20 MUL PUSH1 0x20 ADD DUP3 ADD PUSH1 0x40 MSTORE DUP1 ISZERO PUSH2 0x2C8 JUMPI DUP2 PUSH1 0x20 ADD PUSH1 0x20 DUP3 MUL DUP1 CALLDATASIZE DUP4 CALLDATACOPY DUP1 DUP3 ADD SWAP2 POP POP SWAP1 POP JUMPDEST POP SWAP3 POP SWAP3 POP SWAP3 POP SWAP1 SWAP2 SWAP3 JUMP JUMPDEST PUSH1 0x40 MLOAD PUSH32 0x8C379A000000000000000000000000000000000000000000000000000000000 DUP2 MSTORE PUSH1 0x4 ADD PUSH2 0x306 SWAP1 PUSH2 0x18F6 JUMP JUMPDEST PUSH1 0x40 MLOAD DUP1 SWAP2 SUB SWAP1 REVERT JUMPDEST PUSH32 0x0 DUP2 JUMP JUMPDEST PUSH1 0x0 DUP1 PUSH20 0xFFFFFFFFFFFFFFFFFFFFFFFFFFFFFFFFFFFFFFFF AND PUSH1 0x3 PUSH1 0x0 DUP8 PUSH8 0xFFFFFFFFFFFFFFFF AND PUSH8 0xFFFFFFFFFFFFFFFF AND DUP2 MSTORE PUSH1 0x20 ADD SWAP1 DUP2 MSTORE PUSH1 0x20 ADD PUSH1 0x0 KECCAK256 PUSH1 0x0 ADD PUSH1 0x0 SWAP1 SLOAD SWAP1 PUSH2 0x100 EXP SWAP1 DIV PUSH20 0xFFFFFFFFFFFFFFFFFFFFFFFFFFFFFFFFFFFFFFFF AND PUSH20 0xFFFFFFFFFFFFFFFFFFFFFFFFFFFFFFFFFFFFFFFF AND SUB PUSH2 0x3E4 JUMPI PUSH1 0x40 MLOAD PUSH32 0x1F6A65B600000000000000000000000000000000000000000000000000000000 DUP2 MSTORE PUSH1 0x4 ADD PUSH1 0x40 MLOAD DUP1 SWAP2 SUB SWAP1 REVERT JUMPDEST PUSH1 0x0 PUSH1 0x1 PUSH1 0x0 DUP2 SLOAD DUP1 SWAP3 SWAP2 SWAP1 PUSH2 0x3F9 SWAP1 PUSH2 0x1945 JUMP JUMPDEST SWAP2 SWAP1 POP SSTORE SWAP1 POP PUSH1 0x0 PUSH1 0x2 PUSH1 0x0 DUP2 SLOAD DUP1 SWAP3 SWAP2 SWAP1 PUSH2 0x414 SWAP1 PUSH2 0x1945 JUMP JUMPDEST SWAP2 SWAP1 POP SSTORE SWAP1 POP PUSH1 0x40 MLOAD DUP1 PUSH1 0x60 ADD PUSH1 0x40 MSTORE DUP1 DUP9 PUSH8 0xFFFFFFFFFFFFFFFF AND DUP2 MSTORE PUSH1 0x20 ADD DUP7 PUSH4 0xFFFFFFFF AND DUP2 MSTORE PUSH1 0x20 ADD DUP6 PUSH4 0xFFFFFFFF AND DUP2 MSTORE POP PUSH1 0x4 PUSH1 0x0 DUP5 DUP2 MSTORE PUSH1 0x20 ADD SWAP1 DUP2 MSTORE PUSH1 0x20 ADD PUSH1 0x0 KECCAK256 PUSH1 0x0 DUP3 ADD MLOAD DUP2 PUSH1 0x0 ADD PUSH1 0x0 PUSH2 0x100 EXP DUP2 SLOAD DUP2 PUSH8 0xFFFFFFFFFFFFFFFF MUL NOT AND SWAP1 DUP4 PUSH8 0xFFFFFFFFFFFFFFFF AND MUL OR SWAP1 SSTORE POP PUSH1 0x20 DUP3 ADD MLOAD DUP2 PUSH1 0x0 ADD PUSH1 0x8 PUSH2 0x100 EXP DUP2 SLOAD DUP2 PUSH4 0xFFFFFFFF MUL NOT AND SWAP1 DUP4 PUSH4 0xFFFFFFFF AND MUL OR SWAP1 SSTORE POP PUSH1 0x40 DUP3 ADD MLOAD DUP2 PUSH1 0x0 ADD PUSH1 0xC PUSH2 0x100 EXP DUP2 SLOAD DUP2 PUSH4 0xFFFFFFFF MUL NOT AND SWAP1 DUP4 PUSH4 0xFFFFFFFF AND MUL OR SWAP1 SSTORE POP SWAP1 POP POP CALLER PUSH20 0xFFFFFFFFFFFFFFFFFFFFFFFFFFFFFFFFFFFFFFFF AND DUP8 PUSH8 0xFFFFFFFFFFFFFFFF AND DUP10 PUSH32 0x63373D1C4696214B898952999C9AAEC57DAC1EE2723CEC59BEA6888F489A9772 DUP6 DUP6 DUP12 DUP12 DUP12 PUSH1 0x40 MLOAD PUSH2 0x538 SWAP6 SWAP5 SWAP4 SWAP3 SWAP2 SWAP1 PUSH2 0x198D JUMP JUMPDEST PUSH1 0x40 MLOAD DUP1 SWAP2 SUB SWAP1 LOG4 DUP2 SWAP3 POP POP POP SWAP6 SWAP5 POP POP POP POP POP JUMP JUMPDEST PUSH1 0x40 MLOAD PUSH32 0x8C379A000000000000000000000000000000000000000000000000000000000 DUP2 MSTORE PUSH1 0x4 ADD PUSH2 0x580 SWAP1 PUSH2 0x18F6 JUMP JUMPDEST PUSH1 0x40 MLOAD DUP1 SWAP2 SUB SWAP1 REVERT JUMPDEST PUSH1 0x0 GAS SWAP1 POP PUSH1 0x0 PUSH1 0x4 PUSH1 0x0 DUP6 DUP2 MSTORE PUSH1 0x20 ADD SWAP1 DUP2 MSTORE PUSH1 0x20 ADD PUSH1 0x0 KECCAK256 PUSH1 0x0 ADD PUSH1 0x0 SWAP1 SLOAD SWAP1 PUSH2 0x100 EXP SWAP1 DIV PUSH8 0xFFFFFFFFFFFFFFFF AND PUSH8 0xFFFFFFFFFFFFFFFF AND SUB PUSH2 0x605 JUMPI PUSH1 0x40 MLOAD PUSH32 0x8C379A000000000000000000000000000000000000000000000000000000000 DUP2 MSTORE PUSH1 0x4 ADD PUSH2 0x5FC SWAP1 PUSH2 0x1A2C JUMP JUMPDEST PUSH1 0x40 MLOAD DUP1 SWAP2 SUB SWAP1 REVERT JUMPDEST PUSH1 0x0 PUSH1 0x4 PUSH1 0x0 DUP6 DUP2 MSTORE PUSH1 0x20 ADD SWAP1 DUP2 MSTORE PUSH1 0x20 ADD PUSH1 0x0 KECCAK256 PUSH1 0x40 MLOAD DUP1 PUSH1 0x60 ADD PUSH1 0x40 MSTORE SWAP1 DUP2 PUSH1 0x0 DUP3 ADD PUSH1 0x0 SWAP1 SLOAD SWAP1 PUSH2 0x100 EXP SWAP1 DIV PUSH8 0xFFFFFFFFFFFFFFFF AND PUSH8 0xFFFFFFFFFFFFFFFF AND PUSH8 0xFFFFFFFFFFFFFFFF AND DUP2 MSTORE PUSH1 0x20 ADD PUSH1 0x0 DUP3 ADD PUSH1 0x8 SWAP1 SLOAD SWAP1 PUSH2 0x100 EXP SWAP1 DIV PUSH4 0xFFFFFFFF AND PUSH4 0xFFFFFFFF AND PUSH4 0xFFFFFFFF AND DUP2 MSTORE PUSH1 0x20 ADD PUSH1 0x0 DUP3 ADD PUSH1 0xC SWAP1 SLOAD SWAP1 PUSH2 0x100 EXP SWAP1 DIV PUSH4 0xFFFFFFFF AND PUSH4 0xFFFFFFFF AND PUSH4 0xFFFFFFFF AND DUP2 MSTORE POP POP SWAP1 POP PUSH1 0x0 DUP2 PUSH1 0x40 ADD MLOAD PUSH4 0xFFFFFFFF AND PUSH8 0xFFFFFFFFFFFFFFFF DUP2 GT ISZERO PUSH2 0x6CB JUMPI PUSH2 0x6CA PUSH2 0x186A JUMP JUMPDEST JUMPDEST PUSH1 0x40 MLOAD SWAP1 DUP1 DUP3 MSTORE DUP1 PUSH1 0x20 MUL PUSH1 0x20 ADD DUP3 ADD PUSH1 0x40 MSTORE DUP1 ISZERO PUSH2 0x6F9 JUMPI DUP2 PUSH1 0x20 ADD PUSH1 0x20 DUP3 MUL DUP1 CALLDATASIZE DUP4 CALLDATACOPY DUP1 DUP3 ADD SWAP2 POP POP SWAP1 POP JUMPDEST POP SWAP1 POP PUSH1 0x0 JUMPDEST DUP3 PUSH1 0x40 ADD MLOAD PUSH4 0xFFFFFFFF AND DUP2 LT ISZERO PUSH2 0x76F JUMPI DUP6 DUP2 PUSH1 0x40 MLOAD PUSH1 0x20 ADD PUSH2 0x724 SWAP3 SWAP2 SWAP1 PUSH2 0x1A4C JUMP JUMPDEST PUSH1 0x40 MLOAD PUSH1 0x20 DUP2 DUP4 SUB SUB DUP2 MSTORE SWAP1 PUSH1 0x40 MSTORE DUP1 MLOAD SWAP1 PUSH1 0x20 ADD KECCAK256 PUSH1 0x0 SHR DUP3 DUP3 DUP2 MLOAD DUP2 LT PUSH2 0x750 JUMPI PUSH2 0x74F PUSH2 0x1A75 JUMP JUMPDEST JUMPDEST PUSH1 0x20 MUL PUSH1 0x20 ADD ADD DUP2 DUP2 MSTORE POP POP DUP1 DUP1 PUSH2 0x767 SWAP1 PUSH2 0x1945 JUMP JUMPDEST SWAP2 POP POP PUSH2 0x6FF JUMP JUMPDEST POP PUSH1 0x0 DUP1 PUSH4 0x1FE543E3 PUSH1 0xE0 SHL DUP8 DUP5 PUSH1 0x40 MLOAD PUSH1 0x24 ADD PUSH2 0x78E SWAP3 SWAP2 SWAP1 PUSH2 0x1B62 JUMP JUMPDEST PUSH1 0x40 MLOAD PUSH1 0x20 DUP2 DUP4 SUB SUB DUP2 MSTORE SWAP1 PUSH1 0x40 MSTORE SWAP1 PUSH28 0xFFFFFFFFFFFFFFFFFFFFFFFFFFFFFFFFFFFFFFFFFFFFFFFFFFFFFFFF NOT AND PUSH1 0x20 DUP3 ADD DUP1 MLOAD PUSH28 0xFFFFFFFFFFFFFFFFFFFFFFFFFFFFFFFFFFFFFFFFFFFFFFFFFFFFFFFF DUP4 DUP2 DUP4 AND OR DUP4 MSTORE POP POP POP POP SWAP1 POP PUSH1 0x0 DUP7 PUSH20 0xFFFFFFFFFFFFFFFFFFFFFFFFFFFFFFFFFFFFFFFF AND DUP6 PUSH1 0x20 ADD MLOAD PUSH4 0xFFFFFFFF AND DUP4 PUSH1 0x40 MLOAD PUSH2 0x81F SWAP2 SWAP1 PUSH2 0x1C0C JUMP JUMPDEST PUSH1 0x0 PUSH1 0x40 MLOAD DUP1 DUP4 SUB DUP2 PUSH1 0x0 DUP8 DUP8 CALL SWAP3 POP POP POP RETURNDATASIZE DUP1 PUSH1 0x0 DUP2 EQ PUSH2 0x85D JUMPI PUSH1 0x40 MLOAD SWAP2 POP PUSH1 0x1F NOT PUSH1 0x3F RETURNDATASIZE ADD AND DUP3 ADD PUSH1 0x40 MSTORE RETURNDATASIZE DUP3 MSTORE RETURNDATASIZE PUSH1 0x0 PUSH1 0x20 DUP5 ADD RETURNDATACOPY PUSH2 0x862 JUMP JUMPDEST PUSH1 0x60 SWAP2 POP JUMPDEST POP POP SWAP1 POP PUSH1 0x0 PUSH32 0x0 PUSH12 0xFFFFFFFFFFFFFFFFFFFFFFFF AND GAS DUP9 PUSH2 0x8A3 SWAP2 SWAP1 PUSH2 0x1C23 JUMP JUMPDEST PUSH2 0x8AD SWAP2 SWAP1 PUSH2 0x1C57 JUMP JUMPDEST PUSH32 0x0 PUSH12 0xFFFFFFFFFFFFFFFFFFFFFFFF AND PUSH2 0x8E6 SWAP2 SWAP1 PUSH2 0x1CB1 JUMP JUMPDEST SWAP1 POP DUP1 PUSH12 0xFFFFFFFFFFFFFFFFFFFFFFFF AND PUSH1 0x3 PUSH1 0x0 DUP9 PUSH1 0x0 ADD MLOAD PUSH8 0xFFFFFFFFFFFFFFFF AND PUSH8 0xFFFFFFFFFFFFFFFF AND DUP2 MSTORE PUSH1 0x20 ADD SWAP1 DUP2 MSTORE PUSH1 0x20 ADD PUSH1 0x0 KECCAK256 PUSH1 0x0 ADD PUSH1 0x14 SWAP1 SLOAD SWAP1 PUSH2 0x100 EXP SWAP1 DIV PUSH12 0xFFFFFFFFFFFFFFFFFFFFFFFF AND PUSH12 0xFFFFFFFFFFFFFFFFFFFFFFFF AND LT ISZERO PUSH2 0x984 JUMPI PUSH1 0x40 MLOAD PUSH32 0xF4D678B800000000000000000000000000000000000000000000000000000000 DUP2 MSTORE PUSH1 0x4 ADD PUSH1 0x40 MLOAD DUP1 SWAP2 SUB SWAP1 REVERT JUMPDEST DUP1 PUSH1 0x3 PUSH1 0x0 DUP9 PUSH1 0x0 ADD MLOAD PUSH8 0xFFFFFFFFFFFFFFFF AND PUSH8 0xFFFFFFFFFFFFFFFF AND DUP2 MSTORE PUSH1 0x20 ADD SWAP1 DUP2 MSTORE PUSH1 0x20 ADD PUSH1 0x0 KECCAK256 PUSH1 0x0 ADD PUSH1 0x14 DUP3 DUP3 DUP3 SWAP1 SLOAD SWAP1 PUSH2 0x100 EXP SWAP1 DIV PUSH12 0xFFFFFFFFFFFFFFFFFFFFFFFF AND PUSH2 0x9D9 SWAP2 SWAP1 PUSH2 0x1D07 JUMP JUMPDEST SWAP3 POP PUSH2 0x100 EXP DUP2 SLOAD DUP2 PUSH12 0xFFFFFFFFFFFFFFFFFFFFFFFF MUL NOT AND SWAP1 DUP4 PUSH12 0xFFFFFFFFFFFFFFFFFFFFFFFF AND MUL OR SWAP1 SSTORE POP PUSH1 0x4 PUSH1 0x0 DUP11 DUP2 MSTORE PUSH1 0x20 ADD SWAP1 DUP2 MSTORE PUSH1 0x20 ADD PUSH1 0x0 KECCAK256 PUSH1 0x0 DUP1 DUP3 ADD PUSH1 0x0 PUSH2 0x100 EXP DUP2 SLOAD SWAP1 PUSH8 0xFFFFFFFFFFFFFFFF MUL NOT AND SWAP1 SSTORE PUSH1 0x0 DUP3 ADD PUSH1 0x8 PUSH2 0x100 EXP DUP2 SLOAD SWAP1 PUSH4 0xFFFFFFFF MUL NOT AND SWAP1 SSTORE PUSH1 0x0 DUP3 ADD PUSH1 0xC PUSH2 0x100 EXP DUP2 SLOAD SWAP1 PUSH4 0xFFFFFFFF MUL NOT AND SWAP1 SSTORE POP POP DUP9 PUSH32 0x7DFFC5AE5EE4E2E4DF1651CF6AD329A73CEBDB728F37EA0187B9B17E036756E4 DUP11 DUP4 DUP6 PUSH1 0x40 MLOAD PUSH2 0xA9A SWAP4 SWAP3 SWAP2 SWAP1 PUSH2 0x1D56 JUMP JUMPDEST PUSH1 0x40 MLOAD DUP1 SWAP2 SUB SWAP1 LOG2 POP POP POP POP POP POP POP POP POP JUMP JUMPDEST PUSH1 0x40 MLOAD PUSH32 0x8C379A000000000000000000000000000000000000000000000000000000000 DUP2 MSTORE PUSH1 0x4 ADD PUSH2 0xADF SWAP1 PUSH2 0x18F6 JUMP JUMPDEST PUSH1 0x40 MLOAD DUP1 SWAP2 SUB SWAP1 REVERT JUMPDEST PUSH1 0x40 MLOAD PUSH32 0x8C379A000000000000000000000000000000000000000000000000000000000 DUP2 MSTORE PUSH1 0x4 ADD PUSH2 0xB1A SWAP1 PUSH2 0x18F6 JUMP JUMPDEST PUSH1 0x40 MLOAD DUP1 SWAP2 SUB SWAP1 REVERT JUMPDEST PUSH1 0x0 DUP1 PUSH1 0x0 DUP2 DUP2 SWAP1 SLOAD SWAP1 PUSH2 0x100 EXP SWAP1 DIV PUSH8 0xFFFFFFFFFFFFFFFF AND DUP1 SWAP3 SWAP2 SWAP1 PUSH2 0xB4A SWAP1 PUSH2 0x1D8D JUMP JUMPDEST SWAP2 SWAP1 PUSH2 0x100 EXP DUP2 SLOAD DUP2 PUSH8 0xFFFFFFFFFFFFFFFF MUL NOT AND SWAP1 DUP4 PUSH8 0xFFFFFFFFFFFFFFFF AND MUL OR SWAP1 SSTORE POP POP PUSH1 0x40 MLOAD DUP1 PUSH1 0x40 ADD PUSH1 0x40 MSTORE DUP1 CALLER PUSH20 0xFFFFFFFFFFFFFFFFFFFFFFFFFFFFFFFFFFFFFFFF AND DUP2 MSTORE PUSH1 0x20 ADD PUSH1 0x0 PUSH12 0xFFFFFFFFFFFFFFFFFFFFFFFF AND DUP2 MSTORE POP PUSH1 0x3 PUSH1 0x0 DUP1 PUSH1 0x0 SWAP1 SLOAD SWAP1 PUSH2 0x100 EXP SWAP1 DIV PUSH8 0xFFFFFFFFFFFFFFFF AND PUSH8 0xFFFFFFFFFFFFFFFF AND PUSH8 0xFFFFFFFFFFFFFFFF AND DUP2 MSTORE PUSH1 0x20 ADD SWAP1 DUP2 MSTORE PUSH1 0x20 ADD PUSH1 0x0 KECCAK256 PUSH1 0x0 DUP3 ADD MLOAD DUP2 PUSH1 0x0 ADD PUSH1 0x0 PUSH2 0x100 EXP DUP2 SLOAD DUP2 PUSH20 0xFFFFFFFFFFFFFFFFFFFFFFFFFFFFFFFFFFFFFFFF MUL NOT AND SWAP1 DUP4 PUSH20 0xFFFFFFFFFFFFFFFFFFFFFFFFFFFFFFFFFFFFFFFF AND MUL OR SWAP1 SSTORE POP PUSH1 0x20 DUP3 ADD MLOAD DUP2 PUSH1 0x0 ADD PUSH1 0x14 PUSH2 0x100 EXP DUP2 SLOAD DUP2 PUSH12 0xFFFFFFFFFFFFFFFFFFFFFFFF MUL NOT AND SWAP1 DUP4 PUSH12 0xFFFFFFFFFFFFFFFFFFFFFFFF AND MUL OR SWAP1 SSTORE POP SWAP1 POP POP PUSH1 0x0 DUP1 SLOAD SWAP1 PUSH2 0x100 EXP SWAP1 DIV PUSH8 0xFFFFFFFFFFFFFFFF AND PUSH8 0xFFFFFFFFFFFFFFFF AND PUSH32 0x464722B4166576D3DCBBA877B999BC35CF911F4EAF434B7EBA68FA113951D0BF CALLER PUSH1 0x40 MLOAD PUSH2 0xCB6 SWAP2 SWAP1 PUSH2 0x1DBD JUMP JUMPDEST PUSH1 0x40 MLOAD DUP1 SWAP2 SUB SWAP1 LOG2 PUSH1 0x0 DUP1 SLOAD SWAP1 PUSH2 0x100 EXP SWAP1 DIV PUSH8 0xFFFFFFFFFFFFFFFF AND SWAP1 POP SWAP1 JUMP JUMPDEST PUSH32 0x0 DUP2 JUMP JUMPDEST PUSH1 0x0 DUP1 PUSH1 0x0 PUSH1 0x60 PUSH1 0x0 PUSH20 0xFFFFFFFFFFFFFFFFFFFFFFFFFFFFFFFFFFFFFFFF AND PUSH1 0x3 PUSH1 0x0 DUP8 PUSH8 0xFFFFFFFFFFFFFFFF AND PUSH8 0xFFFFFFFFFFFFFFFF AND DUP2 MSTORE PUSH1 0x20 ADD SWAP1 DUP2 MSTORE PUSH1 0x20 ADD PUSH1 0x0 KECCAK256 PUSH1 0x0 ADD PUSH1 0x0 SWAP1 SLOAD SWAP1 PUSH2 0x100 EXP SWAP1 DIV PUSH20 0xFFFFFFFFFFFFFFFFFFFFFFFFFFFFFFFFFFFFFFFF AND PUSH20 0xFFFFFFFFFFFFFFFFFFFFFFFFFFFFFFFFFFFFFFFF AND SUB PUSH2 0xDB3 JUMPI PUSH1 0x40 MLOAD PUSH32 0x1F6A65B600000000000000000000000000000000000000000000000000000000 DUP2 MSTORE PUSH1 0x4 ADD PUSH1 0x40 MLOAD DUP1 SWAP2 SUB SWAP1 REVERT JUMPDEST PUSH1 0x3 PUSH1 0x0 DUP7 PUSH8 0xFFFFFFFFFFFFFFFF AND PUSH8 0xFFFFFFFFFFFFFFFF AND DUP2 MSTORE PUSH1 0x20 ADD SWAP1 DUP2 MSTORE PUSH1 0x20 ADD PUSH1 0x0 KECCAK256 PUSH1 0x0 ADD PUSH1 0x14 SWAP1 SLOAD SWAP1 PUSH2 0x100 EXP SWAP1 DIV PUSH12 0xFFFFFFFFFFFFFFFFFFFFFFFF AND PUSH1 0x0 PUSH1 0x3 PUSH1 0x0 DUP9 PUSH8 0xFFFFFFFFFFFFFFFF AND PUSH8 0xFFFFFFFFFFFFFFFF AND DUP2 MSTORE PUSH1 0x20 ADD SWAP1 DUP2 MSTORE PUSH1 0x20 ADD PUSH1 0x0 KECCAK256 PUSH1 0x0 ADD PUSH1 0x0 SWAP1 SLOAD SWAP1 PUSH2 0x100 EXP SWAP1 DIV PUSH20 0xFFFFFFFFFFFFFFFFFFFFFFFFFFFFFFFFFFFFFFFF AND PUSH1 0x0 PUSH8 0xFFFFFFFFFFFFFFFF DUP2 GT ISZERO PUSH2 0xE5E JUMPI PUSH2 0xE5D PUSH2 0x186A JUMP JUMPDEST JUMPDEST PUSH1 0x40 MLOAD SWAP1 DUP1 DUP3 MSTORE DUP1 PUSH1 0x20 MUL PUSH1 0x20 ADD DUP3 ADD PUSH1 0x40 MSTORE DUP1 ISZERO PUSH2 0xE8C JUMPI DUP2 PUSH1 0x20 ADD PUSH1 0x20 DUP3 MUL DUP1 CALLDATASIZE DUP4 CALLDATACOPY DUP1 DUP3 ADD SWAP2 POP POP SWAP1 POP JUMPDEST POP SWAP4 POP SWAP4 POP SWAP4 POP SWAP4 POP SWAP2 SWAP4 POP SWAP2 SWAP4 JUMP JUMPDEST PUSH1 0x0 PUSH20 0xFFFFFFFFFFFFFFFFFFFFFFFFFFFFFFFFFFFFFFFF AND PUSH1 0x3 PUSH1 0x0 DUP5 PUSH8 0xFFFFFFFFFFFFFFFF AND PUSH8 0xFFFFFFFFFFFFFFFF AND DUP2 MSTORE PUSH1 0x20 ADD SWAP1 DUP2 MSTORE PUSH1 0x20 ADD PUSH1 0x0 KECCAK256 PUSH1 0x0 ADD PUSH1 0x0 SWAP1 SLOAD SWAP1 PUSH2 0x100 EXP SWAP1 DIV PUSH20 0xFFFFFFFFFFFFFFFFFFFFFFFFFFFFFFFFFFFFFFFF AND PUSH20 0xFFFFFFFFFFFFFFFFFFFFFFFFFFFFFFFFFFFFFFFF AND SUB PUSH2 0xF4C JUMPI PUSH1 0x40 MLOAD PUSH32 0x1F6A65B600000000000000000000000000000000000000000000000000000000 DUP2 MSTORE PUSH1 0x4 ADD PUSH1 0x40 MLOAD DUP1 SWAP2 SUB SWAP1 REVERT JUMPDEST PUSH1 0x0 PUSH1 0x3 PUSH1 0x0 DUP5 PUSH8 0xFFFFFFFFFFFFFFFF AND PUSH8 0xFFFFFFFFFFFFFFFF AND DUP2 MSTORE PUSH1 0x20 ADD SWAP1 DUP2 MSTORE PUSH1 0x20 ADD PUSH1 0x0 KECCAK256 PUSH1 0x0 ADD PUSH1 0x14 SWAP1 SLOAD SWAP1 PUSH2 0x100 EXP SWAP1 DIV PUSH12 0xFFFFFFFFFFFFFFFFFFFFFFFF AND SWAP1 POP DUP2 PUSH1 0x3 PUSH1 0x0 DUP6 PUSH8 0xFFFFFFFFFFFFFFFF AND PUSH8 0xFFFFFFFFFFFFFFFF AND DUP2 MSTORE PUSH1 0x20 ADD SWAP1 DUP2 MSTORE PUSH1 0x20 ADD PUSH1 0x0 KECCAK256 PUSH1 0x0 ADD PUSH1 0x14 DUP3 DUP3 DUP3 SWAP1 SLOAD SWAP1 PUSH2 0x100 EXP SWAP1 DIV PUSH12 0xFFFFFFFFFFFFFFFFFFFFFFFF AND PUSH2 0xFE4 SWAP2 SWAP1 PUSH2 0x1DD8 JUMP JUMPDEST SWAP3 POP PUSH2 0x100 EXP DUP2 SLOAD DUP2 PUSH12 0xFFFFFFFFFFFFFFFFFFFFFFFF MUL NOT AND SWAP1 DUP4 PUSH12 0xFFFFFFFFFFFFFFFFFFFFFFFF AND MUL OR SWAP1 SSTORE POP DUP3 PUSH8 0xFFFFFFFFFFFFFFFF AND PUSH32 0xD39EC07F4E209F627A4C427971473820DC129761BA28DE8906BD56F57101D4F8 DUP3 DUP5 DUP5 PUSH2 0x104B SWAP2 SWAP1 PUSH2 0x1DD8 JUMP JUMPDEST PUSH1 0x40 MLOAD PUSH2 0x1059 SWAP3 SWAP2 SWAP1 PUSH2 0x1E55 JUMP JUMPDEST PUSH1 0x40 MLOAD DUP1 SWAP2 SUB SWAP1 LOG2 POP POP POP JUMP JUMPDEST DUP2 PUSH1 0x0 PUSH1 0x3 PUSH1 0x0 DUP4 PUSH8 0xFFFFFFFFFFFFFFFF AND PUSH8 0xFFFFFFFFFFFFFFFF AND DUP2 MSTORE PUSH1 0x20 ADD SWAP1 DUP2 MSTORE PUSH1 0x20 ADD PUSH1 0x0 KECCAK256 PUSH1 0x0 ADD PUSH1 0x0 SWAP1 SLOAD SWAP1 PUSH2 0x100 EXP SWAP1 DIV PUSH20 0xFFFFFFFFFFFFFFFFFFFFFFFFFFFFFFFFFFFFFFFF AND SWAP1 POP PUSH1 0x0 PUSH20 0xFFFFFFFFFFFFFFFFFFFFFFFFFFFFFFFFFFFFFFFF AND DUP2 PUSH20 0xFFFFFFFFFFFFFFFFFFFFFFFFFFFFFFFFFFFFFFFF AND SUB PUSH2 0x111C JUMPI PUSH1 0x40 MLOAD PUSH32 0x1F6A65B600000000000000000000000000000000000000000000000000000000 DUP2 MSTORE PUSH1 0x4 ADD PUSH1 0x40 MLOAD DUP1 SWAP2 SUB SWAP1 REVERT JUMPDEST DUP1 PUSH20 0xFFFFFFFFFFFFFFFFFFFFFFFFFFFFFFFFFFFFFFFF AND CALLER PUSH20 0xFFFFFFFFFFFFFFFFFFFFFFFFFFFFFFFFFFFFFFFF AND EQ PUSH2 0x118C JUMPI DUP1 PUSH1 0x40 MLOAD PUSH32 0xD8A3FB5200000000000000000000000000000000000000000000000000000000 DUP2 MSTORE PUSH1 0x4 ADD PUSH2 0x1183 SWAP2 SWAP1 PUSH2 0x1DBD JUMP JUMPDEST PUSH1 0x40 MLOAD DUP1 SWAP2 SUB SWAP1 REVERT JUMPDEST DUP4 PUSH8 0xFFFFFFFFFFFFFFFF AND PUSH32 0xE8ED5B475A5B5987AA9165E8731BB78043F39EEE32EC5A1169A89E27FCD49815 DUP5 PUSH1 0x3 PUSH1 0x0 DUP9 PUSH8 0xFFFFFFFFFFFFFFFF AND PUSH8 0xFFFFFFFFFFFFFFFF AND DUP2 MSTORE PUSH1 0x20 ADD SWAP1 DUP2 MSTORE PUSH1 0x20 ADD PUSH1 0x0 KECCAK256 PUSH1 0x0 ADD PUSH1 0x14 SWAP1 SLOAD SWAP1 PUSH2 0x100 EXP SWAP1 DIV PUSH12 0xFFFFFFFFFFFFFFFFFFFFFFFF AND PUSH1 0x40 MLOAD PUSH2 0x120A SWAP3 SWAP2 SWAP1 PUSH2 0x1E7E JUMP JUMPDEST PUSH1 0x40 MLOAD DUP1 SWAP2 SUB SWAP1 LOG2 PUSH1 0x3 PUSH1 0x0 DUP6 PUSH8 0xFFFFFFFFFFFFFFFF AND PUSH8 0xFFFFFFFFFFFFFFFF AND DUP2 MSTORE PUSH1 0x20 ADD SWAP1 DUP2 MSTORE PUSH1 0x20 ADD PUSH1 0x0 KECCAK256 PUSH1 0x0 DUP1 DUP3 ADD PUSH1 0x0 PUSH2 0x100 EXP DUP2 SLOAD SWAP1 PUSH20 0xFFFFFFFFFFFFFFFFFFFFFFFFFFFFFFFFFFFFFFFF MUL NOT AND SWAP1 SSTORE PUSH1 0x0 DUP3 ADD PUSH1 0x14 PUSH2 0x100 EXP DUP2 SLOAD SWAP1 PUSH12 0xFFFFFFFFFFFFFFFFFFFFFFFF MUL NOT AND SWAP1 SSTORE POP POP POP POP POP POP JUMP JUMPDEST PUSH1 0x0 PUSH2 0xFFFF DUP3 AND SWAP1 POP SWAP2 SWAP1 POP JUMP JUMPDEST PUSH2 0x129F DUP2 PUSH2 0x1288 JUMP JUMPDEST DUP3 MSTORE POP POP JUMP JUMPDEST PUSH1 0x0 PUSH4 0xFFFFFFFF DUP3 AND SWAP1 POP SWAP2 SWAP1 POP JUMP JUMPDEST PUSH2 0x12BE DUP2 PUSH2 0x12A5 JUMP JUMPDEST DUP3 MSTORE POP POP JUMP JUMPDEST PUSH1 0x0 DUP2 MLOAD SWAP1 POP SWAP2 SWAP1 POP JUMP JUMPDEST PUSH1 0x0 DUP3 DUP3 MSTORE PUSH1 0x20 DUP3 ADD SWAP1 POP SWAP3 SWAP2 POP POP JUMP JUMPDEST PUSH1 0x0 DUP2 SWAP1 POP PUSH1 0x20 DUP3 ADD SWAP1 POP SWAP2 SWAP1 POP JUMP JUMPDEST PUSH1 0x0 DUP2 SWAP1 POP SWAP2 SWAP1 POP JUMP JUMPDEST PUSH2 0x1303 DUP2 PUSH2 0x12F0 JUMP JUMPDEST DUP3 MSTORE POP POP JUMP JUMPDEST PUSH1 0x0 PUSH2 0x1315 DUP4 DUP4 PUSH2 0x12FA JUMP JUMPDEST PUSH1 0x20 DUP4 ADD SWAP1 POP SWAP3 SWAP2 POP POP JUMP JUMPDEST PUSH1 0x0 PUSH1 0x20 DUP3 ADD SWAP1 POP SWAP2 SWAP1 POP JUMP JUMPDEST PUSH1 0x0 PUSH2 0x1339 DUP3 PUSH2 0x12C4 JUMP JUMPDEST PUSH2 0x1343 DUP2 DUP6 PUSH2 0x12CF JUMP JUMPDEST SWAP4 POP PUSH2 0x134E DUP4 PUSH2 0x12E0 JUMP JUMPDEST DUP1 PUSH1 0x0 JUMPDEST DUP4 DUP2 LT ISZERO PUSH2 0x137F JUMPI DUP2 MLOAD PUSH2 0x1366 DUP9 DUP3 PUSH2 0x1309 JUMP JUMPDEST SWAP8 POP PUSH2 0x1371 DUP4 PUSH2 0x1321 JUMP JUMPDEST SWAP3 POP POP PUSH1 0x1 DUP2 ADD SWAP1 POP PUSH2 0x1352 JUMP JUMPDEST POP DUP6 SWAP4 POP POP POP POP SWAP3 SWAP2 POP POP JUMP JUMPDEST PUSH1 0x0 PUSH1 0x60 DUP3 ADD SWAP1 POP PUSH2 0x13A1 PUSH1 0x0 DUP4 ADD DUP7 PUSH2 0x1296 JUMP JUMPDEST PUSH2 0x13AE PUSH1 0x20 DUP4 ADD DUP6 PUSH2 0x12B5 JUMP JUMPDEST DUP2 DUP2 SUB PUSH1 0x40 DUP4 ADD MSTORE PUSH2 0x13C0 DUP2 DUP5 PUSH2 0x132E JUMP JUMPDEST SWAP1 POP SWAP5 SWAP4 POP POP POP POP JUMP JUMPDEST PUSH1 0x0 DUP1 REVERT JUMPDEST PUSH1 0x0 PUSH8 0xFFFFFFFFFFFFFFFF DUP3 AND SWAP1 POP SWAP2 SWAP1 POP JUMP JUMPDEST PUSH2 0x13EC DUP2 PUSH2 0x13CF JUMP JUMPDEST DUP2 EQ PUSH2 0x13F7 JUMPI PUSH1 0x0 DUP1 REVERT JUMPDEST POP JUMP JUMPDEST PUSH1 0x0 DUP2 CALLDATALOAD SWAP1 POP PUSH2 0x1409 DUP2 PUSH2 0x13E3 JUMP JUMPDEST SWAP3 SWAP2 POP POP JUMP JUMPDEST PUSH1 0x0 PUSH20 0xFFFFFFFFFFFFFFFFFFFFFFFFFFFFFFFFFFFFFFFF DUP3 AND SWAP1 POP SWAP2 SWAP1 POP JUMP JUMPDEST PUSH1 0x0 PUSH2 0x143A DUP3 PUSH2 0x140F JUMP JUMPDEST SWAP1 POP SWAP2 SWAP1 POP JUMP JUMPDEST PUSH2 0x144A DUP2 PUSH2 0x142F JUMP JUMPDEST DUP2 EQ PUSH2 0x1455 JUMPI PUSH1 0x0 DUP1 REVERT JUMPDEST POP JUMP JUMPDEST PUSH1 0x0 DUP2 CALLDATALOAD SWAP1 POP PUSH2 0x1467 DUP2 PUSH2 0x1441 JUMP JUMPDEST SWAP3 SWAP2 POP POP JUMP JUMPDEST PUSH1 0x0 DUP1 PUSH1 0x40 DUP4 DUP6 SUB SLT ISZERO PUSH2 0x1484 JUMPI PUSH2 0x1483 PUSH2 0x13CA JUMP JUMPDEST JUMPDEST PUSH1 0x0 PUSH2 0x1492 DUP6 DUP3 DUP7 ADD PUSH2 0x13FA JUMP JUMPDEST SWAP3 POP POP PUSH1 0x20 PUSH2 0x14A3 DUP6 DUP3 DUP7 ADD PUSH2 0x1458 JUMP JUMPDEST SWAP2 POP POP SWAP3 POP SWAP3 SWAP1 POP JUMP JUMPDEST PUSH1 0x0 PUSH12 0xFFFFFFFFFFFFFFFFFFFFFFFF DUP3 AND SWAP1 POP SWAP2 SWAP1 POP JUMP JUMPDEST PUSH2 0x14CE DUP2 PUSH2 0x14AD JUMP JUMPDEST DUP3 MSTORE POP POP JUMP JUMPDEST PUSH1 0x0 PUSH1 0x20 DUP3 ADD SWAP1 POP PUSH2 0x14E9 PUSH1 0x0 DUP4 ADD DUP5 PUSH2 0x14C5 JUMP JUMPDEST SWAP3 SWAP2 POP POP JUMP JUMPDEST PUSH2 0x14F8 DUP2 PUSH2 0x12F0 JUMP JUMPDEST DUP2 EQ PUSH2 0x1503 JUMPI PUSH1 0x0 DUP1 REVERT JUMPDEST POP JUMP JUMPDEST PUSH1 0x0 DUP2 CALLDATALOAD SWAP1 POP PUSH2 0x1515 DUP2 PUSH2 0x14EF JUMP JUMPDEST SWAP3 SWAP2 POP POP JUMP JUMPDEST PUSH2 0x1524 DUP2 PUSH2 0x1288 JUMP JUMPDEST DUP2 EQ PUSH2 0x152F JUMPI PUSH1 0x0 DUP1 REVERT JUMPDEST POP JUMP JUMPDEST PUSH1 0x0 DUP2 CALLDATALOAD SWAP1 POP PUSH2 0x1541 DUP2 PUSH2 0x151B JUMP JUMPDEST SWAP3 SWAP2 POP POP JUMP JUMPDEST PUSH2 0x1550 DUP2 PUSH2 0x12A5 JUMP JUMPDEST DUP2 EQ PUSH2 0x155B JUMPI PUSH1 0x0 DUP1 REVERT JUMPDEST POP JUMP JUMPDEST PUSH1 0x0 DUP2 CALLDATALOAD SWAP1 POP PUSH2 0x156D DUP2 PUSH2 0x1547 JUMP JUMPDEST SWAP3 SWAP2 POP POP JUMP JUMPDEST PUSH1 0x0 DUP1 PUSH1 0x0 DUP1 PUSH1 0x0 PUSH1 0xA0 DUP7 DUP9 SUB SLT ISZERO PUSH2 0x158F JUMPI PUSH2 0x158E PUSH2 0x13CA JUMP JUMPDEST JUMPDEST PUSH1 0x0 PUSH2 0x159D DUP9 DUP3 DUP10 ADD PUSH2 0x1506 JUMP JUMPDEST SWAP6 POP POP PUSH1 0x20 PUSH2 0x15AE DUP9 DUP3 DUP10 ADD PUSH2 0x13FA JUMP JUMPDEST SWAP5 POP POP PUSH1 0x40 PUSH2 0x15BF DUP9 DUP3 DUP10 ADD PUSH2 0x1532 JUMP JUMPDEST SWAP4 POP POP PUSH1 0x60 PUSH2 0x15D0 DUP9 DUP3 DUP10 ADD PUSH2 0x155E JUMP JUMPDEST SWAP3 POP POP PUSH1 0x80 PUSH2 0x15E1 DUP9 DUP3 DUP10 ADD PUSH2 0x155E JUMP JUMPDEST SWAP2 POP POP SWAP3 SWAP6 POP SWAP3 SWAP6 SWAP1 SWAP4 POP JUMP JUMPDEST PUSH1 0x0 DUP2 SWAP1 POP SWAP2 SWAP1 POP JUMP JUMPDEST PUSH2 0x1601 DUP2 PUSH2 0x15EE JUMP JUMPDEST DUP3 MSTORE POP POP JUMP JUMPDEST PUSH1 0x0 PUSH1 0x20 DUP3 ADD SWAP1 POP PUSH2 0x161C PUSH1 0x0 DUP4 ADD DUP5 PUSH2 0x15F8 JUMP JUMPDEST SWAP3 SWAP2 POP POP JUMP JUMPDEST PUSH2 0x162B DUP2 PUSH2 0x15EE JUMP JUMPDEST DUP2 EQ PUSH2 0x1636 JUMPI PUSH1 0x0 DUP1 REVERT JUMPDEST POP JUMP JUMPDEST PUSH1 0x0 DUP2 CALLDATALOAD SWAP1 POP PUSH2 0x1648 DUP2 PUSH2 0x1622 JUMP JUMPDEST SWAP3 SWAP2 POP POP JUMP JUMPDEST PUSH1 0x0 DUP1 PUSH1 0x40 DUP4 DUP6 SUB SLT ISZERO PUSH2 0x1665 JUMPI PUSH2 0x1664 PUSH2 0x13CA JUMP JUMPDEST JUMPDEST PUSH1 0x0 PUSH2 0x1673 DUP6 DUP3 DUP7 ADD PUSH2 0x1639 JUMP JUMPDEST SWAP3 POP POP PUSH1 0x20 PUSH2 0x1684 DUP6 DUP3 DUP7 ADD PUSH2 0x1458 JUMP JUMPDEST SWAP2 POP POP SWAP3 POP SWAP3 SWAP1 POP JUMP JUMPDEST PUSH1 0x0 PUSH1 0x20 DUP3 DUP5 SUB SLT ISZERO PUSH2 0x16A4 JUMPI PUSH2 0x16A3 PUSH2 0x13CA JUMP JUMPDEST JUMPDEST PUSH1 0x0 PUSH2 0x16B2 DUP5 DUP3 DUP6 ADD PUSH2 0x13FA JUMP JUMPDEST SWAP2 POP POP SWAP3 SWAP2 POP POP JUMP JUMPDEST PUSH2 0x16C4 DUP2 PUSH2 0x13CF JUMP JUMPDEST DUP3 MSTORE POP POP JUMP JUMPDEST PUSH1 0x0 PUSH1 0x20 DUP3 ADD SWAP1 POP PUSH2 0x16DF PUSH1 0x0 DUP4 ADD DUP5 PUSH2 0x16BB JUMP JUMPDEST SWAP3 SWAP2 POP POP JUMP JUMPDEST PUSH2 0x16EE DUP2 PUSH2 0x142F JUMP JUMPDEST DUP3 MSTORE POP POP JUMP JUMPDEST PUSH1 0x0 DUP2 MLOAD SWAP1 POP SWAP2 SWAP1 POP JUMP JUMPDEST PUSH1 0x0 DUP3 DUP3 MSTORE PUSH1 0x20 DUP3 ADD SWAP1 POP SWAP3 SWAP2 POP POP JUMP JUMPDEST PUSH1 0x0 DUP2 SWAP1 POP PUSH1 0x20 DUP3 ADD SWAP1 POP SWAP2 SWAP1 POP JUMP JUMPDEST PUSH2 0x1729 DUP2 PUSH2 0x142F JUMP JUMPDEST DUP3 MSTORE POP POP JUMP JUMPDEST PUSH1 0x0 PUSH2 0x173B DUP4 DUP4 PUSH2 0x1720 JUMP JUMPDEST PUSH1 0x20 DUP4 ADD SWAP1 POP SWAP3 SWAP2 POP POP JUMP JUMPDEST PUSH1 0x0 PUSH1 0x20 DUP3 ADD SWAP1 POP SWAP2 SWAP1 POP JUMP JUMPDEST PUSH1 0x0 PUSH2 0x175F DUP3 PUSH2 0x16F4 JUMP JUMPDEST PUSH2 0x1769 DUP2 DUP6 PUSH2 0x16FF JUMP JUMPDEST SWAP4 POP PUSH2 0x1774 DUP4 PUSH2 0x1710 JUMP JUMPDEST DUP1 PUSH1 0x0 JUMPDEST DUP4 DUP2 LT ISZERO PUSH2 0x17A5 JUMPI DUP2 MLOAD PUSH2 0x178C DUP9 DUP3 PUSH2 0x172F JUMP JUMPDEST SWAP8 POP PUSH2 0x1797 DUP4 PUSH2 0x1747 JUMP JUMPDEST SWAP3 POP POP PUSH1 0x1 DUP2 ADD SWAP1 POP PUSH2 0x1778 JUMP JUMPDEST POP DUP6 SWAP4 POP POP POP POP SWAP3 SWAP2 POP POP JUMP JUMPDEST PUSH1 0x0 PUSH1 0x80 DUP3 ADD SWAP1 POP PUSH2 0x17C7 PUSH1 0x0 DUP4 ADD DUP8 PUSH2 0x14C5 JUMP JUMPDEST PUSH2 0x17D4 PUSH1 0x20 DUP4 ADD DUP7 PUSH2 0x16BB JUMP JUMPDEST PUSH2 0x17E1 PUSH1 0x40 DUP4 ADD DUP6 PUSH2 0x16E5 JUMP JUMPDEST DUP2 DUP2 SUB PUSH1 0x60 DUP4 ADD MSTORE PUSH2 0x17F3 DUP2 DUP5 PUSH2 0x1754 JUMP JUMPDEST SWAP1 POP SWAP6 SWAP5 POP POP POP POP POP JUMP JUMPDEST PUSH2 0x1807 DUP2 PUSH2 0x14AD JUMP JUMPDEST DUP2 EQ PUSH2 0x1812 JUMPI PUSH1 0x0 DUP1 REVERT JUMPDEST POP JUMP JUMPDEST PUSH1 0x0 DUP2 CALLDATALOAD SWAP1 POP PUSH2 0x1824 DUP2 PUSH2 0x17FE JUMP JUMPDEST SWAP3 SWAP2 POP POP JUMP JUMPDEST PUSH1 0x0 DUP1 PUSH1 0x40 DUP4 DUP6 SUB SLT ISZERO PUSH2 0x1841 JUMPI PUSH2 0x1840 PUSH2 0x13CA JUMP JUMPDEST JUMPDEST PUSH1 0x0 PUSH2 0x184F DUP6 DUP3 DUP7 ADD PUSH2 0x13FA JUMP JUMPDEST SWAP3 POP POP PUSH1 0x20 PUSH2 0x1860 DUP6 DUP3 DUP7 ADD PUSH2 0x1815 JUMP JUMPDEST SWAP2 POP POP SWAP3 POP SWAP3 SWAP1 POP JUMP JUMPDEST PUSH32 0x4E487B7100000000000000000000000000000000000000000000000000000000 PUSH1 0x0 MSTORE PUSH1 0x41 PUSH1 0x4 MSTORE PUSH1 0x24 PUSH1 0x0 REVERT JUMPDEST PUSH1 0x0 DUP3 DUP3 MSTORE PUSH1 0x20 DUP3 ADD SWAP1 POP SWAP3 SWAP2 POP POP JUMP JUMPDEST PUSH32 0x6E6F7420696D706C656D656E7465640000000000000000000000000000000000 PUSH1 0x0 DUP3 ADD MSTORE POP JUMP JUMPDEST PUSH1 0x0 PUSH2 0x18E0 PUSH1 0xF DUP4 PUSH2 0x1899 JUMP JUMPDEST SWAP2 POP PUSH2 0x18EB DUP3 PUSH2 0x18AA JUMP JUMPDEST PUSH1 0x20 DUP3 ADD SWAP1 POP SWAP2 SWAP1 POP JUMP JUMPDEST PUSH1 0x0 PUSH1 0x20 DUP3 ADD SWAP1 POP DUP2 DUP2 SUB PUSH1 0x0 DUP4 ADD MSTORE PUSH2 0x190F DUP2 PUSH2 0x18D3 JUMP JUMPDEST SWAP1 POP SWAP2 SWAP1 POP JUMP JUMPDEST PUSH32 0x4E487B7100000000000000000000000000000000000000000000000000000000 PUSH1 0x0 MSTORE PUSH1 0x11 PUSH1 0x4 MSTORE PUSH1 0x24 PUSH1 0x0 REVERT JUMPDEST PUSH1 0x0 PUSH2 0x1950 DUP3 PUSH2 0x15EE JUMP JUMPDEST SWAP2 POP PUSH32 0xFFFFFFFFFFFFFFFFFFFFFFFFFFFFFFFFFFFFFFFFFFFFFFFFFFFFFFFFFFFFFFFF DUP3 SUB PUSH2 0x1982 JUMPI PUSH2 0x1981 PUSH2 0x1916 JUMP JUMPDEST JUMPDEST PUSH1 0x1 DUP3 ADD SWAP1 POP SWAP2 SWAP1 POP JUMP JUMPDEST PUSH1 0x0 PUSH1 0xA0 DUP3 ADD SWAP1 POP PUSH2 0x19A2 PUSH1 0x0 DUP4 ADD DUP9 PUSH2 0x15F8 JUMP JUMPDEST PUSH2 0x19AF PUSH1 0x20 DUP4 ADD DUP8 PUSH2 0x15F8 JUMP JUMPDEST PUSH2 0x19BC PUSH1 0x40 DUP4 ADD DUP7 PUSH2 0x1296 JUMP JUMPDEST PUSH2 0x19C9 PUSH1 0x60 DUP4 ADD DUP6 PUSH2 0x12B5 JUMP JUMPDEST PUSH2 0x19D6 PUSH1 0x80 DUP4 ADD DUP5 PUSH2 0x12B5 JUMP JUMPDEST SWAP7 SWAP6 POP POP POP POP POP POP JUMP JUMPDEST PUSH32 0x6E6F6E6578697374656E74207265717565737400000000000000000000000000 PUSH1 0x0 DUP3 ADD MSTORE POP JUMP JUMPDEST PUSH1 0x0 PUSH2 0x1A16 PUSH1 0x13 DUP4 PUSH2 0x1899 JUMP JUMPDEST SWAP2 POP PUSH2 0x1A21 DUP3 PUSH2 0x19E0 JUMP JUMPDEST PUSH1 0x20 DUP3 ADD SWAP1 POP SWAP2 SWAP1 POP JUMP JUMPDEST PUSH1 0x0 PUSH1 0x20 DUP3 ADD SWAP1 POP DUP2 DUP2 SUB PUSH1 0x0 DUP4 ADD MSTORE PUSH2 0x1A45 DUP2 PUSH2 0x1A09 JUMP JUMPDEST SWAP1 POP SWAP2 SWAP1 POP JUMP JUMPDEST PUSH1 0x0 PUSH1 0x40 DUP3 ADD SWAP1 POP PUSH2 0x1A61 PUSH1 0x0 DUP4 ADD DUP6 PUSH2 0x15F8 JUMP JUMPDEST PUSH2 0x1A6E PUSH1 0x20 DUP4 ADD DUP5 PUSH2 0x15F8 JUMP JUMPDEST SWAP4 SWAP3 POP POP POP JUMP JUMPDEST PUSH32 0x4E487B7100000000000000000000000000000000000000000000000000000000 PUSH1 0x0 MSTORE PUSH1 0x32 PUSH1 0x4 MSTORE PUSH1 0x24 PUSH1 0x0 REVERT JUMPDEST PUSH1 0x0 DUP2 MLOAD SWAP1 POP SWAP2 SWAP1 POP JUMP JUMPDEST PUSH1 0x0 DUP3 DUP3 MSTORE PUSH1 0x20 DUP3 ADD SWAP1 POP SWAP3 SWAP2 POP POP JUMP JUMPDEST PUSH1 0x0 DUP2 SWAP1 POP PUSH1 0x20 DUP3 ADD SWAP1 POP SWAP2 SWAP1 POP JUMP JUMPDEST PUSH2 0x1AD9 DUP2 PUSH2 0x15EE JUMP JUMPDEST DUP3 MSTORE POP POP JUMP JUMPDEST PUSH1 0x0 PUSH2 0x1AEB DUP4 DUP4 PUSH2 0x1AD0 JUMP JUMPDEST PUSH1 0x20 DUP4 ADD SWAP1 POP SWAP3 SWAP2 POP POP JUMP JUMPDEST PUSH1 0x0 PUSH1 0x20 DUP3 ADD SWAP1 POP SWAP2 SWAP1 POP JUMP JUMPDEST PUSH1 0x0 PUSH2 0x1B0F DUP3 PUSH2 0x1AA4 JUMP JUMPDEST PUSH2 0x1B19 DUP2 DUP6 PUSH2 0x1AAF JUMP JUMPDEST SWAP4 POP PUSH2 0x1B24 DUP4 PUSH2 0x1AC0 JUMP JUMPDEST DUP1 PUSH1 0x0 JUMPDEST DUP4 DUP2 LT ISZERO PUSH2 0x1B55 JUMPI DUP2 MLOAD PUSH2 0x1B3C DUP9 DUP3 PUSH2 0x1ADF JUMP JUMPDEST SWAP8 POP PUSH2 0x1B47 DUP4 PUSH2 0x1AF7 JUMP JUMPDEST SWAP3 POP POP PUSH1 0x1 DUP2 ADD SWAP1 POP PUSH2 0x1B28 JUMP JUMPDEST POP DUP6 SWAP4 POP POP POP POP SWAP3 SWAP2 POP POP JUMP JUMPDEST PUSH1 0x0 PUSH1 0x40 DUP3 ADD SWAP1 POP PUSH2 0x1B77 PUSH1 0x0 DUP4 ADD DUP6 PUSH2 0x15F8 JUMP JUMPDEST DUP2 DUP2 SUB PUSH1 0x20 DUP4 ADD MSTORE PUSH2 0x1B89 DUP2 DUP5 PUSH2 0x1B04 JUMP JUMPDEST SWAP1 POP SWAP4 SWAP3 POP POP POP JUMP JUMPDEST PUSH1 0x0 DUP2 MLOAD SWAP1 POP SWAP2 SWAP1 POP JUMP JUMPDEST PUSH1 0x0 DUP2 SWAP1 POP SWAP3 SWAP2 POP POP JUMP JUMPDEST PUSH1 0x0 JUMPDEST DUP4 DUP2 LT ISZERO PUSH2 0x1BC6 JUMPI DUP1 DUP3 ADD MLOAD DUP2 DUP5 ADD MSTORE PUSH1 0x20 DUP2 ADD SWAP1 POP PUSH2 0x1BAB JUMP JUMPDEST DUP4 DUP2 GT ISZERO PUSH2 0x1BD5 JUMPI PUSH1 0x0 DUP5 DUP5 ADD MSTORE JUMPDEST POP POP POP POP JUMP JUMPDEST PUSH1 0x0 PUSH2 0x1BE6 DUP3 PUSH2 0x1B92 JUMP JUMPDEST PUSH2 0x1BF0 DUP2 DUP6 PUSH2 0x1B9D JUMP JUMPDEST SWAP4 POP PUSH2 0x1C00 DUP2 DUP6 PUSH1 0x20 DUP7 ADD PUSH2 0x1BA8 JUMP JUMPDEST DUP1 DUP5 ADD SWAP2 POP POP SWAP3 SWAP2 POP POP JUMP JUMPDEST PUSH1 0x0 PUSH2 0x1C18 DUP3 DUP5 PUSH2 0x1BDB JUMP JUMPDEST SWAP2 POP DUP2 SWAP1 POP SWAP3 SWAP2 POP POP JUMP JUMPDEST PUSH1 0x0 PUSH2 0x1C2E DUP3 PUSH2 0x15EE JUMP JUMPDEST SWAP2 POP PUSH2 0x1C39 DUP4 PUSH2 0x15EE JUMP JUMPDEST SWAP3 POP DUP3 DUP3 LT ISZERO PUSH2 0x1C4C JUMPI PUSH2 0x1C4B PUSH2 0x1916 JUMP JUMPDEST JUMPDEST DUP3 DUP3 SUB SWAP1 POP SWAP3 SWAP2 POP POP JUMP JUMPDEST PUSH1 0x0 PUSH2 0x1C62 DUP3 PUSH2 0x15EE JUMP JUMPDEST SWAP2 POP PUSH2 0x1C6D DUP4 PUSH2 0x15EE JUMP JUMPDEST SWAP3 POP DUP2 PUSH32 0xFFFFFFFFFFFFFFFFFFFFFFFFFFFFFFFFFFFFFFFFFFFFFFFFFFFFFFFFFFFFFFFF DIV DUP4 GT DUP3 ISZERO ISZERO AND ISZERO PUSH2 0x1CA6 JUMPI PUSH2 0x1CA5 PUSH2 0x1916 JUMP JUMPDEST JUMPDEST DUP3 DUP3 MUL SWAP1 POP SWAP3 SWAP2 POP POP JUMP JUMPDEST PUSH1 0x0 PUSH2 0x1CBC DUP3 PUSH2 0x15EE JUMP JUMPDEST SWAP2 POP PUSH2 0x1CC7 DUP4 PUSH2 0x15EE JUMP JUMPDEST SWAP3 POP DUP3 PUSH32 0xFFFFFFFFFFFFFFFFFFFFFFFFFFFFFFFFFFFFFFFFFFFFFFFFFFFFFFFFFFFFFFFF SUB DUP3 GT ISZERO PUSH2 0x1CFC JUMPI PUSH2 0x1CFB PUSH2 0x1916 JUMP JUMPDEST JUMPDEST DUP3 DUP3 ADD SWAP1 POP SWAP3 SWAP2 POP POP JUMP JUMPDEST PUSH1 0x0 PUSH2 0x1D12 DUP3 PUSH2 0x14AD JUMP JUMPDEST SWAP2 POP PUSH2 0x1D1D DUP4 PUSH2 0x14AD JUMP JUMPDEST SWAP3 POP DUP3 DUP3 LT ISZERO PUSH2 0x1D30 JUMPI PUSH2 0x1D2F PUSH2 0x1916 JUMP JUMPDEST JUMPDEST DUP3 DUP3 SUB SWAP1 POP SWAP3 SWAP2 POP POP JUMP JUMPDEST PUSH1 0x0 DUP2 ISZERO ISZERO SWAP1 POP SWAP2 SWAP1 POP JUMP JUMPDEST PUSH2 0x1D50 DUP2 PUSH2 0x1D3B JUMP JUMPDEST DUP3 MSTORE POP POP JUMP JUMPDEST PUSH1 0x0 PUSH1 0x60 DUP3 ADD SWAP1 POP PUSH2 0x1D6B PUSH1 0x0 DUP4 ADD DUP7 PUSH2 0x15F8 JUMP JUMPDEST PUSH2 0x1D78 PUSH1 0x20 DUP4 ADD DUP6 PUSH2 0x14C5 JUMP JUMPDEST PUSH2 0x1D85 PUSH1 0x40 DUP4 ADD DUP5 PUSH2 0x1D47 JUMP JUMPDEST SWAP5 SWAP4 POP POP POP POP JUMP JUMPDEST PUSH1 0x0 PUSH2 0x1D98 DUP3 PUSH2 0x13CF JUMP JUMPDEST SWAP2 POP PUSH8 0xFFFFFFFFFFFFFFFF DUP3 SUB PUSH2 0x1DB2 JUMPI PUSH2 0x1DB1 PUSH2 0x1916 JUMP JUMPDEST JUMPDEST PUSH1 0x1 DUP3 ADD SWAP1 POP SWAP2 SWAP1 POP JUMP JUMPDEST PUSH1 0x0 PUSH1 0x20 DUP3 ADD SWAP1 POP PUSH2 0x1DD2 PUSH1 0x0 DUP4 ADD DUP5 PUSH2 0x16E5 JUMP JUMPDEST SWAP3 SWAP2 POP POP JUMP JUMPDEST PUSH1 0x0 PUSH2 0x1DE3 DUP3 PUSH2 0x14AD JUMP JUMPDEST SWAP2 POP PUSH2 0x1DEE DUP4 PUSH2 0x14AD JUMP JUMPDEST SWAP3 POP DUP3 PUSH12 0xFFFFFFFFFFFFFFFFFFFFFFFF SUB DUP3 GT ISZERO PUSH2 0x1E0F JUMPI PUSH2 0x1E0E PUSH2 0x1916 JUMP JUMPDEST JUMPDEST DUP3 DUP3 ADD SWAP1 POP SWAP3 SWAP2 POP POP JUMP JUMPDEST PUSH1 0x0 DUP2 SWAP1 POP SWAP2 SWAP1 POP JUMP JUMPDEST PUSH1 0x0 PUSH2 0x1E3F PUSH2 0x1E3A PUSH2 0x1E35 DUP5 PUSH2 0x14AD JUMP JUMPDEST PUSH2 0x1E1A JUMP JUMPDEST PUSH2 0x15EE JUMP JUMPDEST SWAP1 POP SWAP2 SWAP1 POP JUMP JUMPDEST PUSH2 0x1E4F DUP2 PUSH2 0x1E24 JUMP JUMPDEST DUP3 MSTORE POP POP JUMP JUMPDEST PUSH1 0x0 PUSH1 0x40 DUP3 ADD SWAP1 POP PUSH2 0x1E6A PUSH1 0x0 DUP4 ADD DUP6 PUSH2 0x1E46 JUMP JUMPDEST PUSH2 0x1E77 PUSH1 0x20 DUP4 ADD DUP5 PUSH2 0x1E46 JUMP JUMPDEST SWAP4 SWAP3 POP POP POP JUMP JUMPDEST PUSH1 0x0 PUSH1 0x40 DUP3 ADD SWAP1 POP PUSH2 0x1E93 PUSH1 0x0 DUP4 ADD DUP6 PUSH2 0x16E5 JUMP JUMPDEST PUSH2 0x1EA0 PUSH1 0x20 DUP4 ADD DUP5 PUSH2 0x1E46 JUMP JUMPDEST SWAP4 SWAP3 POP POP POP JUMP INVALID LOG2 PUSH5 0x6970667358 0x22 SLT KECCAK256 GASLIMIT NUMBER 0x21 DUP16 0xEA XOR 0xEA SWAP12 0xEA CREATE 0xD1 SWAP11 0x25 0xAE DUP3 0x49 PUSH18 0x9F317166AFC8791CE20E71A0BE10D864736F PUSH13 0x634300080F0033000000000000 "
				},
				"gasEstimates": {
					"creation": {
						"codeDepositCost": "1580200",
						"executionCost": "infinite",
						"totalCost": "infinite"
					},
					"external": {
						"BASE_FEE()": "infinite",
						"GAS_PRICE_LINK()": "infinite",
						"acceptSubscriptionOwnerTransfer(uint64)": "723",
						"addConsumer(uint64,address)": "1009",
						"cancelSubscription(uint64,address)": "infinite",
						"createSubscription()": "infinite",
						"fulfillRandomWords(uint256,address)": "infinite",
						"fundSubscription(uint64,uint96)": "infinite",
						"getRequestConfig()": "885",
						"getSubscription(uint64)": "infinite",
						"removeConsumer(uint64,address)": "965",
						"requestRandomWords(bytes32,uint64,uint16,uint32,uint32)": "infinite",
						"requestSubscriptionOwnerTransfer(uint64,address)": "943"
					}
				},
				"methodIdentifiers": {
					"BASE_FEE()": "3d18651e",
					"GAS_PRICE_LINK()": "a410347f",
					"acceptSubscriptionOwnerTransfer(uint64)": "82359740",
					"addConsumer(uint64,address)": "7341c10c",
					"cancelSubscription(uint64,address)": "d7ae1d30",
					"createSubscription()": "a21a23e4",
					"fulfillRandomWords(uint256,address)": "808974ff",
					"fundSubscription(uint64,uint96)": "afc69b53",
					"getRequestConfig()": "00012291",
					"getSubscription(uint64)": "a47c7696",
					"removeConsumer(uint64,address)": "9f87fad7",
					"requestRandomWords(bytes32,uint64,uint16,uint32,uint32)": "5d3b1d30",
					"requestSubscriptionOwnerTransfer(uint64,address)": "04c357cb"
				}
			},
			"storageLayout": {
				"storage": [
					{
						"astId": 312,
						"contract": "@chainlink/contracts/src/v0.8/mocks/VRFCoordinatorV2Mock.sol:VRFCoordinatorV2Mock",
						"label": "s_currentSubId",
						"offset": 0,
						"slot": "0",
						"type": "t_uint64"
					},
					{
						"astId": 315,
						"contract": "@chainlink/contracts/src/v0.8/mocks/VRFCoordinatorV2Mock.sol:VRFCoordinatorV2Mock",
						"label": "s_nextRequestId",
						"offset": 0,
						"slot": "1",
						"type": "t_uint256"
					},
					{
						"astId": 318,
						"contract": "@chainlink/contracts/src/v0.8/mocks/VRFCoordinatorV2Mock.sol:VRFCoordinatorV2Mock",
						"label": "s_nextPreSeed",
						"offset": 0,
						"slot": "2",
						"type": "t_uint256"
					},
					{
						"astId": 328,
						"contract": "@chainlink/contracts/src/v0.8/mocks/VRFCoordinatorV2Mock.sol:VRFCoordinatorV2Mock",
						"label": "s_subscriptions",
						"offset": 0,
						"slot": "3",
						"type": "t_mapping(t_uint64,t_struct(Subscription)323_storage)"
					},
					{
						"astId": 340,
						"contract": "@chainlink/contracts/src/v0.8/mocks/VRFCoordinatorV2Mock.sol:VRFCoordinatorV2Mock",
						"label": "s_requests",
						"offset": 0,
						"slot": "4",
						"type": "t_mapping(t_uint256,t_struct(Request)335_storage)"
					}
				],
				"types": {
					"t_address": {
						"encoding": "inplace",
						"label": "address",
						"numberOfBytes": "20"
					},
					"t_mapping(t_uint256,t_struct(Request)335_storage)": {
						"encoding": "mapping",
						"key": "t_uint256",
						"label": "mapping(uint256 => struct VRFCoordinatorV2Mock.Request)",
						"numberOfBytes": "32",
						"value": "t_struct(Request)335_storage"
					},
					"t_mapping(t_uint64,t_struct(Subscription)323_storage)": {
						"encoding": "mapping",
						"key": "t_uint64",
						"label": "mapping(uint64 => struct VRFCoordinatorV2Mock.Subscription)",
						"numberOfBytes": "32",
						"value": "t_struct(Subscription)323_storage"
					},
					"t_struct(Request)335_storage": {
						"encoding": "inplace",
						"label": "struct VRFCoordinatorV2Mock.Request",
						"members": [
							{
								"astId": 330,
								"contract": "@chainlink/contracts/src/v0.8/mocks/VRFCoordinatorV2Mock.sol:VRFCoordinatorV2Mock",
								"label": "subId",
								"offset": 0,
								"slot": "0",
								"type": "t_uint64"
							},
							{
								"astId": 332,
								"contract": "@chainlink/contracts/src/v0.8/mocks/VRFCoordinatorV2Mock.sol:VRFCoordinatorV2Mock",
								"label": "callbackGasLimit",
								"offset": 8,
								"slot": "0",
								"type": "t_uint32"
							},
							{
								"astId": 334,
								"contract": "@chainlink/contracts/src/v0.8/mocks/VRFCoordinatorV2Mock.sol:VRFCoordinatorV2Mock",
								"label": "numWords",
								"offset": 12,
								"slot": "0",
								"type": "t_uint32"
							}
						],
						"numberOfBytes": "32"
					},
					"t_struct(Subscription)323_storage": {
						"encoding": "inplace",
						"label": "struct VRFCoordinatorV2Mock.Subscription",
						"members": [
							{
								"astId": 320,
								"contract": "@chainlink/contracts/src/v0.8/mocks/VRFCoordinatorV2Mock.sol:VRFCoordinatorV2Mock",
								"label": "owner",
								"offset": 0,
								"slot": "0",
								"type": "t_address"
							},
							{
								"astId": 322,
								"contract": "@chainlink/contracts/src/v0.8/mocks/VRFCoordinatorV2Mock.sol:VRFCoordinatorV2Mock",
								"label": "balance",
								"offset": 20,
								"slot": "0",
								"type": "t_uint96"
							}
						],
						"numberOfBytes": "32"
					},
					"t_uint256": {
						"encoding": "inplace",
						"label": "uint256",
						"numberOfBytes": "32"
					},
					"t_uint32": {
						"encoding": "inplace",
						"label": "uint32",
						"numberOfBytes": "4"
					},
					"t_uint64": {
						"encoding": "inplace",
						"label": "uint64",
						"numberOfBytes": "8"
					},
					"t_uint96": {
						"encoding": "inplace",
						"label": "uint96",
						"numberOfBytes": "12"
					}
				}
			},
			"userdoc": {
				"kind": "user",
				"methods": {
					"createSubscription()": {
						"notice": "Create a VRF subscription."
					},
					"fulfillRandomWords(uint256,address)": {
						"notice": "fulfillRandomWords fulfills the given request, sending the random words to the suppliedconsumer."
					},
					"fundSubscription(uint64,uint96)": {
						"notice": "fundSubscription allows funding a subscription with an arbitrary amount for testing."
					},
					"getRequestConfig()": {
						"notice": "Get configuration relevant for making requests"
					}
				},
				"version": 1
			}
		}
	}
}